:020000040800F2
:100000000080012099460008994000089B400008A4
:100010009D4000089F400008A1400008000000002B
:10002000000000000000000000000000A3400008E5
:10003000A540000800000000A7400008A9400008F3
:10004000E9460008E9460008E9460008E9460008D4
:10005000E9460008E9460008E9460008E9460008C4
:10006000E9460008E9460008E9460008E9460008B4
:10007000E9460008E9460008E9460008E9460008A4
:10008000E9460008E9460008E9460008E946000894
:10009000E9460008E9460008E9460008E946000884
:1000A000E9460008E9460008E9460008E946000874
:1000B000E9460008E9460008E9460008E946000864
:1000C000E9460008E9460008E9460008E946000854
:1000D000E9460008E9460008E9460008E946000844
:1000E000E9460008E9460008E9460008E946000834
:1000F000E9460008E9460008E9460008E946000824
:10010000E9460008E9460008E9460008E946000813
:10011000E9460008E9460008E9460008E946000803
:10012000E9460008E9460008E9460008E9460008F3
:10013000E9460008E9460008E9460008E9460008E3
:10014000E9460008E9460008E9460008E9460008D3
:10015000E9460008E9460008E9460008E9460008C3
:10016000E9460008E9460008E9460008E9460008B3
:10017000E9460008E9460008E946000800000000DA
:08018000E9460008E946000809
:1001880010B5054C237833B9044B13B10448AFF3C9
:1001980000800123237010BD6800002000000000CB
:1001A8008C48000808B5034B1BB103490348AFF35B
:1001B800008008BD000000006C0000208C4800088A
:1001C80081F0004102E000BF83F0004330B54FEA00
:1001D80041044FEA430594EA050F08BF90EA020F6D
:1001E8001FBF54EA000C55EA020C7FEA645C7FEA00
:1001F800655C00F0E2804FEA5454D4EB5555B8BF23
:100208006D420CDD2C4480EA020281EA030382EA93
:10021800000083EA010180EA020281EA0303362D25
:1002280088BF30BD11F0004F4FEA01314FF4801CF8
:100238004CEA113102D0404261EB410113F0004F0A
:100248004FEA03334CEA133302D0524263EB4303C1
:1002580094EA050F00F0A780A4F10104D5F1200E5F
:100268000DDB02FA0EFC22FA05F2801841F10001BA
:1002780003FA0EF2801843FA05F359410EE0A5F18E
:1002880020050EF1200E012A03FA0EFC28BF4CF0BF
:10029800020C43FA05F3C01851EBE37101F0004575
:1002A80007D54FF0000EDCF1000C7EEB00006EEB82
:1002B8000101B1F5801F1BD3B1F5001F0CD349080C
:1002C8005FEA30004FEA3C0C04F101044FEA445263
:1002D80012F5800F80F09A80BCF1004F08BF5FEAEA
:1002E800500C50F1000041EB045141EA050130BDCA
:1002F8005FEA4C0C404141EB010111F4801FA4F16D
:100308000104E9D191F0000F04BF01460020B1FAC1
:1003180081F308BF2033A3F10B03B3F120020CDAF9
:100328000C3208DD02F1140CC2F10C0201FA0CF0D7
:1003380021FA02F10CE002F11402D8BFC2F1200C3C
:1003480001FA02F120FA0CFCDCBF41EA0C019040F2
:10035800E41AA2BF01EB0451294330BD6FEA04043B
:100368001F3C1CDA0C340EDC04F11404C4F1200226
:1003780020FA04F001FA02F340EA030021FA04F338
:1003880045EA030130BDC4F10C04C4F1200220FA8F
:1003980002F001FA04F340EA0300294630BD21FACD
:1003A80004F0294630BD94F0000F83F4801306BF93
:1003B80081F480110134013D4EE77FEA645C18BF87
:1003C8007FEA655C29D094EA050F08BF90EA020F1E
:1003D80005D054EA000C04BF1946104630BD91EA16
:1003E800030F1EBF0021002030BD5FEA545C05D119
:1003F8004000494128BF41F0004130BD14F5800458
:100408003CBF01F5801130BD01F0004545F0FE41CB
:1004180041F470014FF0000030BD7FEA645C1ABF00
:10042800194610467FEA655C1CBF0B46024650EA37
:10043800013406BF52EA033591EA030F41F4002163
:1004480030BD00BF90F0000F04BF0021704730B5E9
:100458004FF4806404F132044FF000054FF00001BE
:1004680050E700BF90F0000F04BF0021704730B57F
:100478004FF4806404F1320410F0004548BF404254
:100488004FF000013EE700BF42004FEAE2014FEAA9
:1004980031014FEA02701FBF12F07F4393F07F4F84
:1004A80081F06051704732F07F4208BF704793F087
:1004B8007F4F04BF41F40021704730B54FF460749A
:1004C80001F0004521F000411CE700BF50EA01029D
:1004D80008BF704730B54FF000050AE050EA010246
:1004E80008BF704730B511F0004502D5404261EBB6
:1004F80041014FF4806404F132045FEA915C3FF4F7
:10050800D8AE4FF003025FEADC0C18BF03325FEA93
:10051800DC0C18BF033202EBDC02C2F1200300FA44
:1005280003FC20FA02F001FA03FE40EA0E0021FA69
:1005380002F11444BDE600BF70B54FF0FF0C4CF457
:10054800E06C1CEA11541DBF1CEA135594EA0C0F09
:1005580095EA0C0F00F0DEF82C4481EA030621EA44
:100568004C5123EA4C5350EA013518BF52EA03357F
:1005780041F4801143F4801338D0A0FB02CE4FF031
:100588000005E1FB02E506F00042E0FB03E54FF061
:100598000006E1FB03569CF0000F18BF4EF0010E59
:1005A800A4F1FF04B6F5007F64F5407404D25FEA55
:1005B8004E0E6D4146EB060642EAC62141EA555108
:1005C8004FEAC52040EA5E504FEACE2EB4F1FD0C4A
:1005D80088BFBCF5E06F1ED8BEF1004F08BF5FEAC8
:1005E800500E50F1000041EB045170BD06F000467A
:1005F80046EA010140EA020081EA0301B4EB5C0427
:10060800C2BFD4EB0C0541EA045170BD41F480111E
:100618004FF0000E013C00F3AB8014F1360FDEBF43
:10062800002001F0004170BDC4F10004203C35DA1F
:100638000C341BDC04F11404C4F1200500FA05F3A2
:1006480020FA04F001FA05F240EA020001F0004243
:1006580021F0004110EBD37021FA04F642EB0601B9
:100668005EEA430E08BF20EAD37070BDC4F10C04E3
:10067800C4F1200500FA04F320FA05F001FA04F2A7
:1006880040EA020001F0004110EBD37041F1000193
:100698005EEA430E08BF20EAD37070BDC4F120059E
:1006A80000FA05F24EEA020E20FA04F301FA05F206
:1006B80043EA020321FA04F001F0004121FA04F2AE
:1006C80020EA020000EBD3705EEA430E08BF20EA7E
:1006D800D37070BD94F0000F0FD101F000464000B8
:1006E80041EB010111F4801F08BF013CF7D041EA3A
:1006F800060195F0000F18BF704703F0004652003E
:1007080043EB030313F4801F08BF013DF7D043EA0E
:100718000603704794EA0C0F0CEA135518BF95EAC4
:100728000C0F0CD050EA410618BF52EA4306D1D14B
:1007380081EA030101F000414FF0000070BD50EA6A
:10074800410606BF1046194652EA430619D094EAF4
:100758000C0F02D150EA013613D195EA0C0F05D1DE
:1007680052EA03361CBF104619460AD181EA030132
:1007780001F0004141F0FE4141F470014FF00000EA
:1007880070BD41F0FE4141F4780170BD70B54FF085
:10079800FF0C4CF4E06C1CEA11541DBF1CEA135505
:1007A80094EA0C0F95EA0C0F00F0A7F8A4EB0504E7
:1007B80081EA030E52EA03354FEA013100F08880DE
:1007C8004FEA03334FF0805545EA131343EA1263A7
:1007D8004FEA022245EA111545EA10654FEA00265C
:1007E8000EF000419D4208BF964244F1FD0404F515
:1007F800407402D25B084FEA3202B61A65EB030571
:100808005B084FEA32024FF480104FF4002CB6EB2D
:10081800020E75EB030E22BFB61A754640EA0C00AD
:100828005B084FEA3202B6EB020E75EB030E22BFED
:10083800B61A754640EA5C005B084FEA3202B6EB2E
:10084800020E75EB030E22BFB61A754640EA9C00ED
:100858005B084FEA3202B6EB020E75EB030E22BFBD
:10086800B61A754640EADC0055EA060E18D04FEA7B
:10087800051545EA16754FEA06164FEAC30343EA1B
:1008880052734FEAC2025FEA1C1CC0D111F4801FE8
:100898000BD141EA00014FF000004FF0004CB6E7E1
:1008A80011F4801F04BF01430020B4F1FD0C88BF80
:1008B800BCF5E06F3FF6AFAEB5EB030C04BFB6EB8B
:1008C800020C5FEA500C50F1000041EB045170BD7E
:1008D8000EF0004E4EEA113114EB5C04C2BFD4EBAB
:1008E8000C0541EA045170BD41F480114FF0000E2F
:1008F800013C90E645EA060E8DE60CEA135594EAAB
:100908000C0F08BF95EA0C0F3FF43BAF94EA0C0FAD
:100918000AD150EA01347FF434AF95EA0C0F7FF422
:1009280025AF104619462CE795EA0C0F06D152EA76
:1009380003353FF4FDAE1046194622E750EA41065A
:1009480018BF52EA43067FF4C5AE50EA41047FF46B
:100958000DAF52EA43057FF4EBAE12E74FF0FF3CD0
:1009680006E000BF4FF0010C02E000BF4FF0010CA1
:100978004DF804CD4FEA410C7FEA6C5C4FEA430C1A
:1009880018BF7FEA6C5C1BD001B050EA410C0CBF69
:1009980052EA430C91EA030F02BF90EA020F0020CB
:1009A800704710F1000F91EA030F58BF994208BF32
:1009B80090422CBFD8176FEAE37040F001007047EF
:1009C8004FEA410C7FEA6C5C02D150EA013C07D146
:1009D8004FEA430C7FEA6C5CD6D152EA033CD3D091
:1009E8005DF8040B704700BF8446104662468C468B
:1009F8001946634600E000BF01B5FFF7B7FF0028BE
:100A080048BF10F1000F01BD4DF808EDFFF7F4FFE6
:100A18000CBF012000205DF808FB00BF4DF808ED71
:100A2800FFF7EAFF34BF012000205DF808FB00BF94
:100A38004DF808EDFFF7E0FF94BF012000205DF8B6
:100A480008FB00BF4DF808EDFFF7CEFF94BF01206B
:100A580000205DF808FB00BF4DF808EDFFF7C4FF64
:100A680034BF012000205DF808FB00BF4A0011D206
:100A780012F5001211D20DD56FF47873B3EB6252F0
:100A88000ED44FEAC12343F0004343EA505323FAFC
:100A980002F070474FF00000704750EA013002D171
:100AA8004FF0FF3070474FF00000704753B94AB914
:100AB800002908BF00281CBF4FF0FF314FF0FF305E
:100AC80000F072B9ADF1080C6DE904CE00F006F83B
:100AD800DDF804E0DDE9022304B070472DE9F047B2
:100AE800089E04468846002B4BD18A42154667D992
:100AF800B2FA82F24AB1C2F1200701FA02F320FAEF
:100B080007F7954047EA030894404FEA154E230C2F
:100B1800B8FBFEF71FFA85FC0EFB178843EA08436B
:100B280007FB0CF1994209D9EB1807F1FF3080F067
:100B38001B81994240F21881023F2B445B1AA4B2F0
:100B4800B3FBFEF00EFB103344EA034400FB0CFC3D
:100B5800A44509D92C1900F1FF3380F00781A44579
:100B680040F2048102382C4440EA0740A4EB0C040C
:100B780000271EB1D4400023C6E900433946BDE82A
:100B8800F0878B4209D9002E00F0EB800027C6E9D8
:100B9800000138463946BDE8F087B3FA83F7002FDD
:100BA80047D18B4202D3824200F2FA80841A61EB69
:100BB800030301209846002EE0D0C6E90048DDE78F
:100BC80002B9FFDEB2FA82F2002A40F08F80491B98
:100BD8004FEA154E1FFA85F80127B1FBFEFC230CDE
:100BE8000EFB1C1143EA014308FB0CF1994207D99B
:100BF800EB180CF1FF3002D2994200F2CD80844606
:100C0800591AA3B2B1FBFEF00EFB101443EA0444D8
:100C180008FB00F8A04507D92C1900F1FF3302D2D0
:100C2800A04500F2B6801846A4EB080440EA0C4040
:100C38009FE7C7F1200CBB4022FA0CFE4EEA030ED8
:100C480001FA07F420FA0CF521FA0CF34FEA1E48D2
:100C58002543B3FBF8F92C0C08FB19331FFA8EFA5D
:100C680044EA034309FB0AF49C4202FA07F200FA39
:100C780007F10BD91EEB030309F1FF3080F08780E1
:100C88009C4240F28480A9F1020973441B1BADB257
:100C9800B3FBF8F008FB103345EA034400FB0AFAFB
:100CA800A24508D91EEB040400F1FF336BD2A2451C
:100CB80069D90238744440EA0940A0FB0289A4EBD0
:100CC8000A044C45C2464B4654D351D0002E69D035
:100CD800B1EB0A0564EB030404FA0CFCFD40FC408C
:100CE8004CEA0505C6E90054002747E7C2F120038E
:100CF80020FA03F7954001FA02F021FA03F34FEACC
:100D0800154E3843010CB3FBFEF71FFA85F80EFBAE
:100D1800173341EA034107FB08F38B4204FA02F454
:100D280007D9691807F1FF3C2FD28B422DD9023F12
:100D38002944CB1A81B2B3FBFEF00EFB103341EA13
:100D4800034100FB08F38B4207D9691800F1FF3C07
:100D580017D28B4215D902382944C91A40EA0747E5
:100D68003BE73746304609E70746E7E61846FBE61D
:100D78004145ABD2B8EB020A69EB0E0201381346C3
:100D8800A4E76046E9E7184695E76746D1E7814654
:100D98007CE702382C4447E7ACF1020C2B442FE7E0
:100DA800384608E73746E9E6704700BF7047000055
:100DB80010B5094B4FF0FF329A6300249C631A6404
:100DC8001C649A629C62DA62DC621A631C63FFF735
:100DD800EDFF204610BD00BF00100240104B1B68FD
:100DE8000BB90120704710B504464FF47A70B0FB78
:100DF800F3F30C4A1068B0FBF3F000F091F868B90F
:100E08000F2C01D901200AE0002221464FF0FF30C3
:100E180000F052F8024B5C60002000E0012010BD99
:100E2800000000206400002010B5032000F032F814
:100E38000020FFF7D3FF10B10124204610BD04465F
:100E480003F0AEF8F9E70000034A1368034909689C
:100E58000B441360704700BFB8000020000000205A
:100E6800014B1868704700BFB800002038B5044629
:100E7800FFF7F6FF0546B4F1FF3F02D0044B1B68AD
:100E88001C44FFF7EDFF401BA042FAD338BD00BF5A
:100E980000000020074AD36823F4E0631B041B0CFE
:100EA800000200F4E060184340F0BF6040F40030F6
:100EB800D060704700ED00E030B4174BDB68C3F337
:100EC8000223C3F10704042C28BF04241D1D062D8A
:100ED80018D9033B4FF0FF3505FA04F421EA040161
:100EE800994005FA03F322EA0303194300280BDBB0
:100EF8000901C9B200F1604000F5614080F80013B3
:100F080030BC70470023E5E700F00F000901C9B2C3
:100F1800024B1954F4E700BF00ED00E014ED00E0C7
:100F28000138B0F1807F0AD2064B5860064AF0219A
:100F380082F823100020986007221A607047012069
:100F4800704700BF10E000E000ED00E070B400243E
:100F58000FE011F8246001EB84056B781B0443EA69
:100F68000663AE7843EA0623EE78056833432B60C0
:100F78000134B4EB920FECD312F0030205D0012A2E
:100F880007D0022A0AD0032A12D00368186870BC56
:100F98007047036811F824501D70F2E711F82450C7
:100FA80001EB84035B7843EA052305682B80EAE7B5
:100FB80011F8242001EB84014B7843EA02230268EC
:100FC800138003688A781A70DFE70023B3EB520FA7
:100FD80018D270B431F8236001EB83046488056883
:100FE80044EA06442C600133B3EB520FF2D312F0FB
:100FF800010F03D0026831F82330138003681868A2
:1010080070BC704712F0010F03D0026831F823302A
:101018001380036818687047002838D010B5044654
:10102800437F1BB30223637723791BBB2368194AC9
:101038005A612268936823F018039360637913BB9D
:1010480023684FF0FF321A612268936823F0600327
:1010580061690B4393602268936823F08003A16958
:101068000B43936001236377002010BD037702F0E0
:10107800AFFFD7E7E268A168204600F035F80028FE
:10108800DCD00120F1E7236822691A61DCE701203E
:10109800704700BFB71DC10438B504460223437723
:1010A8000068836843F001038360236A022B17D02A
:1010B800032B0FD0012B0FD0002008E0206851F837
:1010C8002350056001339342F8D32368186801233D
:1010D800637738BD0023F6E72046FFF737FFF6E7CA
:1010E8002046FFF772FFF2E730B41F24651E3CB1BB
:1010F80005F01F0321FA03F32C4613F0010FF5D076
:10110800182A23D8DFE802F00F22222222222222E4
:101118001E222222222222221A22222222222222B3
:101128000D00062D14D80368596101688B6823F0F7
:1011380018031A438A60002030BC7047072DF2D983
:101148000120F9E70F2DEED90120F5E70120F3E79B
:101158000120F1E710B4064C616941F001016161B9
:101168000260BFF36F8F43605DF8044B704700BFA8
:101178000020024010B40B4A536943F480235361A2
:10118800EFF3108472B6402351F8042B40F8042B77
:10119800013B13F0FF03F7D184F310885DF8044B8B
:1011A800704700BF00200240094B5B69002B01DB40
:1011B80000207047064B074A9A6002F188329A600D
:1011C8005B69002B01DB002070470120704700BFDE
:1011D8000020024023016745034A536943F0004356
:1011E80053610020704700BF0020024038B5044614
:1011F800FFF736FE05461E4B1B6913F4803F09D0E6
:10120800B4F1FF3FF7D0FFF72BFE401BA042F2D30B
:10121800032027E0164A136923F4705323F00503CB
:101228001B041B0C926902F00042134311D01149B0
:101238004A681A434A6013F0404203D00C4988694F
:1012480002438A6133F040430DD0094A13610120FB
:1012580008E0074B1B6913F0010F06D0044B01226D
:101268001A61002038BD0120FCE70020FAE700BF22
:1012780000200240080000202DE9F041284C247885
:10128800012C4AD0984617460D460446244B0122A5
:101298001A704CF25030FFF7A9FF064608BB204BE6
:1012A80000225A601F4B1B6813F4806F1FD01D4A21
:1012B800136823F480631360194B02221A77D4B1A0
:1012C800631E012B1ED900244CF25030FFF78EFF0D
:1012D800064624B1134A536923EA0404546100F012
:1012E8005DF80F4B00221A703046BDE8F0810C4BB8
:1012F80000221A77E3E73A4643462846FFF72AFFD3
:101308000124E1E739462846FFF734FF022C01D0D3
:101318000024D9E74FF48024D6E70226E4E700BF8B
:10132800080000200020024010F0010F04D0094AF4
:10133800536943F00403536110F0020F04D0054AC7
:10134800536943F400435361024A536943F48033B9
:10135800536170470020024011F0010F16D10E4A68
:10136800536943F4006353610B4B5A6922F4FF62DB
:10137800C00000F4FF60104358615A6942F002024D
:101388005A615A6942F480325A617047024A536975
:1013980023F400635361E7E700200240144B1B7FEE
:1013A800DBB2012B01D0032B0CD1124A116841F496
:1013B80000611160116821F400611160116841F445
:1013C80000711160023BDBB2012B03D9084B0022EC
:1013D8001A777047074B1A6842F480521A601A68E5
:1013E80022F480521A601A6842F480621A60EDE7AB
:1013F8000800002000200240F8B53C4B1B78012B68
:1014080071D00E460446394B01221A704CF2503006
:10141800FFF7ECFE0746002860D1344B00225A60E3
:10142800334B1B6813F4007F33D0314B1A6822F416
:1014380000721A601B6813F4806F26D02C4A136858
:1014480023F480631360294B03221A772368012B46
:1014580031D04FF0FF333360A568A368E2681344C6
:10146800AB4239D961682846FFF776FF4CF2503015
:10147800FFF7BCFE1E4A536923F4FF6323F00203FF
:101488005361074638BB0135E7E7184B01221A7745
:10149800DCE7174B1B6813F4806F08D0144A1368F5
:1014A80023F480631360114B02221A77CEE70F4BA7
:1014B80000221A77CAE76068FFF736FF4CF250300F
:1014C800FFF794FE07460A4A536923F4004323F0C2
:1014D8000403536100E03560FFF760FF034B00220F
:1014E8001A703846F8BD0227FBE700BF0800002045
:1014F80000200240F0B482B0002341E0D0F82CC0B4
:101508002CEA040CC6F3C0049C4044EA0C04C462F0
:1015180086E0062400E00024B4403C430235664ED1
:1015280046F82540654C2568D44304EA05064F680B
:1015380017F4803F01D042EA0506604D2E606D68C1
:1015480004EA05064F6817F4003F01D042EA050691
:101558005A4D6E60AD6804EA05064F6817F4801F9F
:1015680001D042EA0506554DAE60ED682C404E6844
:1015780016F4001F01D042EA0504504AD460013332
:101588000A6832FA03F400F0938001249C40224058
:10159800F5D04D68022D01D0122D10D1DE08083685
:1015A80050F826C003F00705AF000F25BD402CEA10
:1015B800050C0D69BD4045EA0C0540F82650066843
:1015C8005F000325BD40ED4305EA060C4E6806F0B2
:1015D8000306BE4046EA0C0606604E6806F1FF3C6C
:1015E800BCF1010F03D9112E01D0122E11D186683A
:1015F80005EA060CCE68BE4046EA0C0686604668D8
:1016080026EA040C4E68C6F300169E4046EA0C060D
:1016180046604E6806F0030CBCF1030F3FF46EAF52
:10162800C46825408C68BC402C43C4604C6814F0E6
:10163800805FA4D0224C256E45F001052566246EF6
:1016480004F001040194019C9D08AE1C1A4C54F846
:10165800267003F00304A6000F24B44027EA040709
:10166800B0F1904F3FF457AF164CA04216D004F596
:101678008064A04214D004F58064A04212D004F51E
:101688008064A04210D004F58064A0420ED004F516
:101698008064A0423FF43DAF07243DE701243BE7C7
:1016A800022439E7032437E7042435E7052433E720
:1016B80002B0F0BC704700BF0000014000040140C8
:1016C8000010024000040048002231FA02F300F042
:1016D8008380F0B52FE0062600E0002606FA04F421
:1016E800AC4260D005685400032606FA04F425438A
:1016F800056022FA06F5083550F8256002F007075C
:101708004FEA870C0F2707FA0CF726EA070640F876
:1017180025608568E443254085604568DB431D40B6
:101728004560C5682C40C460C46A2340C362013266
:1017380031FA02F34FD00123934013EA010EF6D099
:101748009708BD1C254C54F8255002F00304A4004A
:101758000F2606FA04FC0CEA0505B0F1904FBCD040
:101768001F4EB04215D006F58066B04213D006F57C
:101778008066B04211D006F58066B0420FD006F5FB
:101788008066B0420DD006F58066B042A3D0072629
:10179800A4E70126A2E70226A0E703269EE704267F
:1017A8009CE705269AE70F4C26686FEA0E052E403F
:1017B800266066682E406660A6682E40A660E668C9
:1017C8003540E560054DBC1C55F8246026EA0C063A
:1017D80045F8246086E7F0BD704700BF000001406F
:1017E80000040048000401400369194201D10020A7
:1017F8007047012070470000024B186800F4C06071
:10180800704700BF00700040B0F5007F0FD01F4B3D
:101818001B6803F4C063B3F5806F34D01B4A1368A8
:1018280023F4C06343F48063136000207047174BB0
:101838001B6803F4C063B3F5007F22D0134A136812
:1018480023F4C06343F400731360114B1A68322306
:1018580003FB02F30F4AA2FB03239B0C013300E0B6
:10186800013B0A4A526912F4806F01D0002BF7D16C
:10187800064B5B6913F4806F01D100207047032089
:101888007047002070470020704700BF007000407C
:101898006400002083DE1B4330B583B00546204B2F
:1018A8009B6D13F0805F0BD0FFF7A6FFB0F5007FAC
:1018B80017D0802D1FD82DD0702D2DD000211BE0E2
:1018C800174CA36D43F08053A365A36D03F08053B9
:1018D8000193019BFFF790FFA36D23F08053A3654D
:1018E800E4E7802D03D9A02D03D9022104E00021CB
:1018F80002E0012100E003210A4A136823F00703EC
:101908000B431360136803F007038B4206D00120D2
:1019180003B030BD0221EFE70121EDE70020F7E732
:101928000010024000200240284A9368D26802F062
:10193800030213F00C030AD00C2B06D0042B1FD083
:10194800082B20D00020024610E0012AF6D11F4AB9
:10195800126812F0080F0CD11C4AD2F89420C2F376
:1019680003221B4951F8222043B100200C2B0DD033
:101978007047164A1268C2F30312F2E71046F5E7F9
:1019880014480022F2E714480022EFE70F4BDB6807
:1019980003F00303022B15D0032B15D00B4BD8688B
:1019A800C0F302100130D968C1F3062102FB01F22D
:1019B800B2FBF0F2D868C0F3416001304000B2FBDE
:1019C800F0F0D5E7034AE9E7034AE7E700100240E9
:1019D800B44A00080024F400006CDC02002800F07F
:1019E800D182F0B583B00446AD4B9D6805F00C0577
:1019F800DE6806F00306036813F0100F5ED0E5B149
:101A08000C2D18D0A369002B00F0B880A44A1368E5
:101A180043F001031360FFF723FA0746A04B1B6846
:101A280013F0020F40F09780FFF71AFAC01B022844
:101A3800F4D90323B9E2012EE4D1994B1B6813F0C2
:101A4800020F03D0A369002B00F09F82206A944BF9
:101A58001B6813F0080F5ED0914B1B6803F0F0036E
:101A680098425FD9FFF718FF002840F097828C4B07
:101A78001A6842F008021A601A6822F0F002216A15
:101A88000A431A605A6822F47F42E16942EA012255
:101A98005A60FFF749FF824B9B68C3F30313814ADF
:101AA800D35C03F01F03D8407F4B18607F4B186846
:101AB800FFF794F90346002840F07782236813F073
:101AC800010F7AD0082D6FD00C2D6BD06368B3F559
:101AD800803F00F09180B3F5A02F00F09380704B09
:101AE8001A6822F480321A601A6822F480221A6076
:101AF8006368002B00F09380FFF7B2F90746684B44
:101B08001B6813F4003F58D1FFF7AAF9C01B6428DB
:101B1800F5D9032349E2624BD3F894301B0903F04B
:101B2800F0039DE75E4B1A6842F008021A601A68D3
:101B380022F0F002216A0A431A605A6822F47F42AE
:101B4800E16942EA01225A60206AFFF7A5FE0028EF
:101B58009FD0012329E2524B1A6842F008021A600A
:101B68001A6822F0F002216A0A431A605A6822F4BD
:101B78007F42E16942EA01225A609FE7484A1368B6
:101B880023F001031360FFF76BF90746444B1B680A
:101B980013F0020F92D0FFF763F9C01B0228F5D9A2
:101BA800032302E2032E91D13D4B1B6813F4003F3F
:101BB80003D06368002B00F0F381236813F0020F51
:101BC8004FD0042D3CD00C2D38D0E368002B78D0B2
:101BD800334A136843F480731360FFF741F90646EC
:101BE8002F4B1B6813F4806F62D1FFF739F9801B04
:101BF8000228F5D90323D8E1294A136843F480332E
:101C0800136075E703F18043A3F53C331A6842F487
:101C180080221A601A6842F480321A6068E7FFF777
:101C28001FF907461E4B1B6813F4003FC5D0FFF78A
:101C380017F9C01B6428F5D90323B6E1022EC4D1D5
:101C4800174B1B6813F4806F03D0E368002B00F078
:101C5800A981134A536823F0F853216943EA0163C1
:101C68005360236813F0080F56D06369002B3CD0EB
:101C78000B4AD2F8943043F00103C2F89430FFF7CE
:101C8800EFF80646064BD3F8943013F0020F43D111
:101C9800FFF7E6F8801B0228F4D9032385E100BF8B
:101CA80000100240E44A00086400002004000020FC
:101CB800B74A536823F0F853216943EA0163536034
:101CC800CFE7B34A136823F480731360FFF7C8F8AB
:101CD8000646AF4B1B6813F4806FC2D0FFF7C0F8FD
:101CE800801B0228F5D903235FE1A94AD2F8943072
:101CF80023F00103C2F89430FFF7B2F80646A44B6C
:101D0800D3F8943013F0020F06D0FFF7A9F8801B20
:101D18000228F4D9032348E1236813F0040F7AD08A
:101D28009B4B9B6D13F0805F0BD1994B9A6D42F0E2
:101D380080529A659B6D03F080530193019B0126A5
:101D480000E00026934B1B6813F4807F26D0A3681D
:101D5800012B37D0052B3DD08D4BD3F8902022F0A6
:101D68000102C3F89020D3F8902022F00402C3F8AF
:101D78009020A368002B3BD0FFF772F80746844BEE
:101D8800D3F8903013F0020F44D1FFF769F8C01B65
:101D980041F288339842F2D9032306E17D4A136859
:101DA80043F480731360FFF75BF80746794B1B68B1
:101DB80013F4807FCBD1FFF753F8C01B0228F5D965
:101DC8000323F2E0724AD2F8903043F00103C2F8DC
:101DD8009030CEE76E4BD3F8902042F00402C3F85F
:101DE8009020D3F8902042F00102C3F89020C0E779
:101DF800FFF736F80746664BD3F8903013F0020F1A
:101E080008D0FFF72DF8C01B41F288339842F2D969
:101E18000323CAE05EBBA36A002B00F0C5800C2D2B
:101E280076D0022B29D05A4B1A6822F080721A6099
:101E38001B6813F0205F04D1554AD36823F00303CD
:101E4800D360534AD36823F0887323F48033D36074
:101E5800FFF706F804464E4B1B6813F0007F55D079
:101E6800FEF7FEFF001B0228F5D903239DE0484A30
:101E7800936D23F080539365CDE7454A136823F0AB
:101E880080731360FEF7ECFF0546414B1B6813F0A7
:101E9800007F06D0FEF7E4FF401B0228F5D9032394
:101EA80083E03B4AD3683C491940E36A206B013818
:101EB80043EA0013606B43EA0023E06B40080138F3
:101EC80043EA4053206C4008013843EA4063A06B62
:101ED800000943EA40430B43D360136843F080731F
:101EE8001360D36843F08073D360FEF7B9FF0446EC
:101EF800274B1B6813F0007F06D1FEF7B1FF001BCC
:101F08000228F5D9032350E000234EE000234CE0DB
:101F1800012B4DD01E4BDB6803F00301E26A9142AE
:101F280001D0012341E003F07002216B0139B2EBCB
:101F3800011F01D0012338E003F4FE42616BB2EBCC
:101F4800012F01D0012330E003F40031A26B073ADE
:101F580018BF0122914201D0012326E003F4C001F9
:101F6800E26B5208013AB1EB425F01D001231CE059
:101F780003F0C063226C5208013AB3EB426F19D0E8
:101F8800012312E001231846704701230DE000BF2A
:101F980000100240007000408C809DF9012304E08D
:101FA800012302E0012300E00023184603B0F0BD3E
:101FB8000123FAE70023F8E7002800F09B8070B5BA
:101FC80004464E4B1B6803F007038B420CD24B4A66
:101FD800136823F007030B431360136803F0070328
:101FE8008B4201D0012070BD0D46236813F0010F0C
:101FF80039D06368032B09D0022B26D063BB404A33
:10200800126812F0020F06D10120ECE73C4A126870
:1020180012F0007F70D03A498A6822F00302134315
:102028008B60FEF71DFF0646354B9B6803F00C03DB
:102038006268B3EB820F16D0FEF712FF801B41F2E5
:1020480088339842F0D90320CDE72D4A126812F45C
:10205800003FE0D10120C6E7294A126812F4806FD8
:10206800D9D10120BFE7236813F0020F06D0244A14
:10207800936823F0F003A1680B4393601F4B1B6820
:1020880003F00703AB420CD91C4A136823F007037B
:102098002B431360136803F00703AB4201D0012000
:1020A800A1E7236813F0040F06D0154A936823F4B8
:1020B800E063E1680B439360236813F0080F07D0CF
:1020C8000F4A936823F46053216943EAC10393607C
:1020D800FFF72AFC0A4B9B68C3F30313094AD35C36
:1020E80003F01F03D840084B1860084B1868FEF728
:1020F80075FE78E701207047012074E70020024050
:1021080000100240E44A0008640000200400002097
:10211800014B1868704700BF6400002008B5FFF73E
:10212800F7FF054B9B68C3F30223044AD35C03F013
:102138001F03D84008BD00BF00100240F44A000841
:1021480008B5FFF7E5FF054B9B68C3F3C223044AB4
:10215800D35C03F01F03D84008BD00BF0010024045
:10216800F44A0008F8B55A4BDB6813F0030F18D08F
:10217800574BDB6803F003030268934202D0012542
:102188002846F8BD002A00F0A080514BDB68C3F355
:10219800021301334268934201D00125F0E700257C
:1021A8001AE00368022B59D0032B5ED0012B01D013
:1021B80001250FE0464A126812F0020F61D0444D23
:1021C800EA6822F073024468013C43EA04131343AB
:1021D800EB600025002DD3D10F4604463C4A136816
:1021E80023F080631360FEF73BFE0646384B1B68FE
:1021F80013F0006F05D0FEF733FE801B0228F5D9D7
:102208000325002DBCD1002F3DD131490B6923F4A2
:102218001F3323F44073A068E2681209520442EAAB
:10222800002213430B612A4A136843F0806313604A
:10223800FEF716FE0646264B1B6813F0006F05D105
:10224800FEF70EFE801B0228F5D90325002D97D135
:102258001F4A1369A1690B43136191E71C4A12686D
:1022680012F4806FABD10125B4E7194A126812F451
:10227800003FA4D1164A126812F4802F9FD101257D
:10228800A8E70125A6E7012F0FD01148026922F01F
:10229800C06222F4FE42A16863695B08013B5B06E9
:1022A80043EA012313430361BDE70948026922F4A5
:1022B800C00222F4FE42A16823695B08013B5B056A
:1022C80043EA012313430361ADE7012558E700BF43
:1022D80000100240F8B5514BDB6813F0030F18D01B
:1022E8004E4BDB6803F003030268934202D00125DA
:1022F8002846F8BD002A00F08E80484BDB68C3F3FF
:10230800021301334268934201D00125F0E700250A
:102318001AE00368022B59D0032B5ED0012B01D0A1
:1023280001250FE03D4A126812F0020F61D03B4DC3
:10233800EA6822F073024468013C43EA0413134339
:10234800EB600025002DD3D10F460446334A1368AD
:1023580023F080531360FEF783FD06462F4B1B685E
:1023680013F0005F05D0FEF77BFD801B0228F5D92E
:102378000325002DBCD1002F3DD128494B6923F4FA
:102388001F3323F44073A068E2681209520442EA3A
:10239800002213434B61214A136843F080531360B2
:1023A800FEF75EFD06461D4B1B6813F0005F05D166
:1023B800FEF756FD801B0228F5D90325002D97D17D
:1023C800164A536961690B43536191E7134A1268CE
:1023D80012F4806FABD10125B4E7104A126812F4E9
:1023E800003FA4D10D4A126812F4802F9FD1012515
:1023F800A8E70125A6E70948426922F0C06222F44D
:10240800FE42A16823695B08013B5B0643EA01239E
:1024180013434361BFE701256AE700BF001002408C
:102428002DE9F04182B00446036813F4006F2FD001
:10243800436EB3F5800F25D008D9B3F5000F10D03F
:10244800B3F5400F40F09980002610E0002B40F0D3
:10245800948000210430FFF785FE06463EB13746DA
:1024680018E05E4AD36843F48033D36000265B4AA1
:10247800D2F8883023F44003616E0B43C2F88830E9
:10248800002707E000212030FFF724FF0646E5E794
:1024980000273E46236813F4805F15D0A36EB3F17E
:1024A800807F7AD06CD9B3F1007F70D0B3F1407FD0
:1024B8007AD1002E7BD1494AD2F8883023F0407374
:1024C800A16E0B43C2F88830236813F4003F00F074
:1024D8008E80424B9B6D13F0805F6AD13F4B9A6DA3
:1024E80042F080529A659B6D03F080530193019BE3
:1024F8004FF001083A4A136843F480731360FEF7FB
:10250800AFFC0546364B1B6813F4807F05D1FEF7F8
:10251800A7FC401B0228F5D90326002E62D12F4BB9
:10252800D3F8903013F4407316D0D4F884209A422C
:1025380012D02A4AD2F8903023F44073D2F890107F
:1025480041F48031C2F89010D2F8901021F4803113
:10255800C2F89010C2F8903013F0010F2CD1002E61
:1025680040F043811D4AD2F8903023F44073D4F8E8
:1025780084100B43C2F8903035E001273E4689E7C6
:1025880093B90021201DFFF7EDFD064691E7134A98
:10259800D36843F48033D3608BE7002104F1200033
:1025A800FFF798FE064684E701273E468CE7374644
:1025B8008AE74FF000089DE7FEF752FC0546074BF7
:1025C800D3F8903013F0020FC9D1FEF749FC401B35
:1025D80041F288339842F2D90326C0E7001002403E
:1025E800007000403746B8F1000F40F000812368C2
:1025F80013F0010F08D09D4AD2F8883023F0030366
:10260800A16B0B43C2F88830236813F0020F08D07F
:10261800964AD2F8883023F00C03E16B0B43C2F8DA
:102628008830236813F0040F08D0904AD2F8883015
:1026380023F03003216C0B43C2F88830236813F071
:10264800080F08D0894AD2F8883023F0C003616C9B
:102658000B43C2F88830236813F0100F08D0834A60
:10266800D2F8883023F44073A16C0B43C2F8883049
:10267800236813F0200F08D07C4AD2F8883023F45E
:102688004063E16C0B43C2F88830236813F4007F81
:1026980008D0764AD2F8883023F44023E16D0B4302
:1026A800C2F88830236813F4806F08D06F4AD2F8D4
:1026B800883023F44013216E0B43C2F88830236816
:1026C80013F0400F08D0694AD2F8883023F44053F9
:1026D800216D0B43C2F88830236813F0800F08D0AF
:1026E800624AD2F8883023F44043616D0B43C2F844
:1026F8008830236813F4807F08D05C4AD2F8883089
:1027080023F44033A16D0B43C2F88830236813F4D7
:10271800005F0FD0554AD2F8883023F04063E16E4D
:102728000B43C2F88830E36EB3F1006F65D0B3F1A4
:10273800806F67D0236813F4002F0FD04B4AD2F86C
:10274800883023F04063216F0B43C2F88830236F31
:10275800B3F1006F5ED0B3F1806F60D0236813F4DB
:10276800802F0FD0414AD2F8883023F04063616F40
:102778000B43C2F88830636FB3F1006F57D0B3F1E1
:10278800806F59D0236813F4804F0FD0374AD2F89E
:10279800883023F04053A16F0B43C2F88830A36FF1
:1027A800B3F1805F50D0B3F1005F55D0236813F4C4
:1027B800004F08D02D4AD2F8883023F08043E16FCB
:1027C8000B43C2F88830236813F4803F09D0274AA6
:1027D800D2F8883023F00043D4F880100B43C2F8B5
:1027E8008830384602B0BDE8F0813746FBE61F4A1C
:1027F800936D23F080539365F9E6D36843F480130F
:10280800D36097E70121201DFFF7ACFC002891D089
:1028180007468FE7D36843F48013D3609EE701210E
:10282800201DFFF79FFC002898D0074696E7D3683D
:1028380043F48013D360A5E70121201DFFF792FC24
:1028480000289FD007469DE70221201DFFF78AFC3C
:102858000028ABD00746A9E7022104F12000FFF7C2
:1028680039FD0028A2D00746A0E700BF00100240AB
:10287800704798B110B5044643795BB10223637180
:102888002268136843F00403136001236371002076
:10289800A06010BD0371FFF7EBFFEFE70120704761
:1028A800C0B138B50446242343670268136823F08F
:1028B80001031360036800251D6003685D600368F9
:1028C8009D6001F0CFFBE5676567A56784F87050E8
:1028D800284638BD012070472DE9F04804460168B4
:1028E80083680269134342691343C2691343086842
:1028F800A24A024013430B602268536823F44053F2
:10290800E1680B435360A16922689D4B9A4201D04C
:10291800236A1943936823F430630B439360236855
:10292800984A934227D0984A934238D0974A93427C
:102938004ED0974A934261D0964A934274D0904AB7
:10294800934200F08A8010258D4A934200F0AA80B5
:10295800E369B3F5004F00F03581082D00F2BF811F
:10296800DFE815F07F0195019F01BD01AA01BD01B6
:10297800BD01BD01B40102F55842D2F8882002F029
:102988000302032A09D8DFE802F0020481060125C0
:10299800DAE70425D8E70825D6E71025D4E702F5B5
:1029A800E632D2F8882002F00C020C2A0ED8DFE8B2
:1029B80002F0070D0D0D090D0D0D6F0D0D0D0B001E
:1029C8000025C1E70425BFE70825BDE71025BBE7BB
:1029D80002F5E432D2F8882002F03002102A09D039
:1029E80005D9202A56D0302A06D10825ACE71AB9CD
:1029F8000025A9E70425A7E71025A5E702F5E23297
:102A0800D2F8882002F0C002402A09D005D9802ACD
:102A180042D0C02A06D1082596E71AB9002593E7BF
:102A2800042591E710258FE702F5E032D2F88820D7
:102A380002F44072B2F5807F0BD007D9B2F5007F5F
:102A48002CD0B2F5407F06D108257DE71AB90025BC
:102A58007AE7042578E7102576E702F5C832D2F838
:102A6800882002F44062B2F5806F0BD007D9B2F526
:102A7800006F15D0B2F5406F06D1082564E71AB982
:102A8800002561E704255FE710255DE702255BE780
:102A9800022559E7022557E7022555E7022553E79E
:102AA800022551E7082D00F21D81DFE815F00C0022
:102AB8001B0114001B0111001B011B011B01090054
:102AC8004FF4004008E0FFF729FB28B90020D9E0BF
:102AD800FEF72AFFF9E73048626802EB42038342B7
:102AE80000F20281B0EB023F00F20081082D66D8A7
:102AF800DFE805F005652065306565655800FFF776
:102B08000DFB0025070E0602626850082B4616EBDF
:102B1800000B47F1000C58466146FDF7C7FF034616
:102B28002846A3F540711D4A914200F2E1802268CF
:102B3800D360A7E0560800252B46DFF864B04FF0B5
:102B4800000C1BEB06004CF10001FDF7AFFF03463C
:102B58002846E6E7FEF7E8FE0025070E060262684B
:102B680050082B4616EB000B47F1000C58466146FF
:102B7800FDF79CFF03462846D3E700BFF369FFEF44
:102B880000800040003801400044004000480040F8
:102B9800004C0040005000400024F400FFFC0F00EF
:102BA800000024F45008002700252B4610F50000EB
:102BB80047F10001FDF77AFF03462846B1E70120F7
:102BC8000023AEE7082D49D8DFE805F0051E29489F
:102BD800344848483F00FFF7A1FA6268530803EBFE
:102BE8004003B3FBF2F39BB20020A3F110014FF6B0
:102BF800EF7291427ED89AB222F00F02C3F34203D9
:102C080013432268D3603DE0FFF79AFA62685308DD
:102C180003EB4003B3FBF2F39BB20020E5E76268E5
:102C2800530803F1F47303F59043B3FBF2F39BB23B
:102C38000020DAE7FEF778FE6268530803EB4003EA
:102C4800B3FBF2F39BB20020CFE76268530803F5A9
:102C58008033B3FBF2F39BB20020C6E701200023C8
:102C6800C3E7FFF75BFA636800EB5302B2FBF3F2CA
:102C780092B20020A2F110014FF6EF7399423BD8AF
:102C88002368DA60002222666266BDE8F088FFF7F2
:102C980057FA636800EB5302B2FBF3F292B20020DA
:102CA800E8E763685A0802F5740202F51052B2FBAD
:102CB800F3F292B20020DDE7FEF736FE636800EB20
:102CC8005302B2FBF3F292B20020D3E763685A08CA
:102CD80002F50042B2FBF3F292B20020CAE70120EB
:102CE8000022C7E70120CDE70120CBE70120C9E793
:102CF8000120C7E70120C5E70120C3E7436A13F0B5
:102D0800010F06D00268536823F40033816A0B432D
:102D18005360436A13F0020F06D00268536823F425
:102D28008033C16A0B435360436A13F0040F06D023
:102D38000268536823F48023016B0B435360436A92
:102D480013F0080F06D00268536823F40043416B60
:102D58000B435360436A13F0100F06D00268936860
:102D680023F48053816B0B439360436A13F0200F65
:102D780006D00268936823F40053C16B0B43936039
:102D8800436A13F0400F0AD00268536823F4801393
:102D9800016C0B435360036CB3F5801F0BD0436A7F
:102DA80013F0800F06D00268536823F40023816C67
:102DB8000B43536070470268536823F4C003416CA7
:102DC8000B435360EBE72DE9F04105460F461646E5
:102DD8009846069C2B68DB6937EA03030CBF01237E
:102DE8000023B3421CD1B4F1FF3FF3D0FEF738F80B
:102DF800A0EB0800A04201D8002CEBD12A68136888
:102E080023F4D07313602A68936823F00103936056
:102E180020236B67AB67002385F87030032000E040
:102E28000020BDE8F0812DE9F04182B01E46436FD5
:102E3800202B55D104460D469046002955D0002A2E
:102E480055D090F87030012B53D0012380F87030A2
:102E58000023C36721234367FEF702F80746A4F857
:102E68005080A4F85280A368B3F5805F02D04FF079
:102E7800000813E0236913B14FF000080EE0A846DC
:102E880000250BE038F8023B2268C3F308031385DA
:102E9800B4F85230013B9BB2A4F85230B4F8523027
:102EA8009BB273B100963B46002280212046FFF773
:102EB8008AFF00BB002DE5D0236815F8012B1A8581
:102EC800E6E700963B46002240212046FFF77BFFBD
:102ED800034690B920226267002284F8702000E03F
:102EE8000223184602B0BDE8F0810123F9E7012367
:102EF800F7E70223F5E70323F3E70323F1E72DE9D7
:102F0800F04383B01E46836F202B7AD104460D46CA
:102F18009046002979D0002A79D090F87030012B9A
:102F280077D0012380F870300023C367222383679A
:102F3800FDF796FF0746A4F85880A4F85A80A368BE
:102F4800B3F5805F06D0A3B9226972B9FF22A4F84D
:102F58005C2014E0226922B940F2FF12A4F85C2038
:102F68000DE0FF22A4F85C2009E07F22A4F85C2091
:102F780005E0B3F1805F0AD00022A4F85C20B4F821
:102F88005C80B3F5805F0CD04FF000091DE022692A
:102F98001AB97F22A4F85C20F1E73F22A4F85C204C
:102FA800EDE7236913B14FF000090EE0A9460025AB
:102FB8000BE023689B8C08EA030329F8023BB4F86A
:102FC8005A30013B9BB2A4F85A30B4F85A309BB23D
:102FD8008BB100963B46002220212046FFF7F3FEE6
:102FE800C8B9002DE5D023689A8C5FFA88F313409E
:102FF80005F8013BE3E72023A367002084F870006D
:1030080000E0022003B0BDE8F0830120FAE70120C8
:10301800F8E70220F6E70320F4E730B583B004466A
:103028000023C367FDF71CFF054623681B6813F0E0
:10303800080F0CD123681B6813F0040F15D1202347
:103048006367A367002084F8700003B030BD6FF099
:103058007E430093034600224FF400112046FFF7F9
:10306800B2FE0028E6D00320EFE76FF07E4300931E
:103078002B4600224FF480012046FFF7A4FE0028CB
:10308800DDD00320E1E768B310B50446436F03B30E
:10309800242363672268136823F001031360204622
:1030A800FFF71AFC012813D0636ABBB9226853687A
:1030B80023F4904353602268936823F02A039360B3
:1030C8002268136843F0010313602046FFF7A5FF49
:1030D80010BD80F8703000F091FFD9E72046FFF767
:1030E8000DFEE3E7012070471E4B00221A601D4BBE
:1030F8001B68092B33D870B409E01B4A02241470EA
:103108000133184A1360174B1B68092B23D803EBAC
:1031180083029400154A22445278802AEDD003EBAA
:103128008304A200114CA25C824203D00E4A0124FF
:103138001470E5E70D689C001C44A6000B4A324455
:1031480055604C6894608C68D460CC681461064AF9
:1031580000241470D4E7044B187870BC7047024BF5
:10316800187870478400002098010020BC000020D7
:10317800F0B484460F46254B00221A600FE0B300D6
:103188009A199400224D254404F1006404F50024A2
:103198000FCC0FC523682B6001361C4B1E601B4BE0
:1031A8001E68092EEBD901221A601CE0184A03EBAD
:1031B8008303990011444B683B60144B18688300E3
:1031C8001C18A10011448C687C60C968B96003446C
:1031D80099000A441369FB600E4B00221A700B4ACF
:1031E800136801331360094B1B68092B0AD803EBDA
:1031F80083018A0006498A5C6245D7D0054B0122C3
:103208001A70ECE7034B1878F0BC70478400002074
:10321800BC0000209801002008B5FDF7C5FF07484D
:1032280000F0EAFA3222064B1A60064B1968586811
:1032380000F028FBFDF7D0FF08BD00BF000008081C
:103248008400002028000020094B00221A600AE0B0
:1032580008489A001A44910042184354002191707A
:103268000133034A1360024B1B68092BF0D97047DE
:1032780084000020BC00002070B483B000220EE05F
:10328800930011F8224000F822405C1C0D5D0555A2
:103298009C1C0D5D05550333CC5CC4540132032AD4
:1032A800EED904221FE0910002F18043043B10F89C
:1032B80023409DF804506C4000F8224000EB830343
:1032C8005C789DF805604D1C744044559C789DF8C9
:1032D80006608D1C74404455DB789DF80740033127
:1032E8006340435401322B2A27D802F18043013B23
:1032F80010F823108DF8041000EB83035E788DF826
:1033080005609D788DF80650DC788DF8074012F03E
:10331800030FC8D10A4B9E5D5D5D8DF805501C5D9D
:103328008DF80640595C8DF8071003EB920393F86B
:10333800003173408DF80430B5E703B070BC7047B6
:10334800A8480008F0B400250FE005EB800403EB63
:103358008404145D01EB8506F75C7C40F45401336A
:10336800DBB2032BF1D90135EDB2032D01D80023CF
:10337800F7E7F0BC704700000022032A18D80023A2
:10338800032B12D830B400EB83018C5C094D2C5D03
:103398008C540133DBB2032BF5D90132D2B2032AA4
:1033A80001D80023F7E730BC70470132D2B2E4E716
:1033B800704700BFA8480008437842794270427AB3
:1033C8004271427B427243738378827A827083723D
:1033D8008379827B82718373C378C27BC270C27A1D
:1033E800C273C279C272C3717047C3095A001344C9
:1033F80003EBC30383EA4000C0B270472DE9F047EE
:10340800814600262EE019F826A009EB860460788C
:1034180080EA0A00A378E57843405D40FFF7E5FFBE
:1034280068408AEA000009F82600677894F8028064
:1034380087EA0800FFF7D9FF684047406770E778D8
:1034480088EA0700FFF7D1FF684088EA000884F897
:10345800028087EA0A00FFF7C8FF68407840E070FA
:103468000136F6B2032ECED9BDE8F08770B5054611
:103478000E460A4601460020FFF764FF01240FE0CC
:103488002846FFF779FF2846FFF796FF2846FFF7FB
:10349800B5FF324629462046FFF754FF0134E4B20F
:1034A800092CEDD92846FFF767FF2846FFF784FF68
:1034B800324629460A20FFF745FF70BD08B5FFF7D9
:1034C800DBFE08BD70B50E684D688C68CB68166069
:1034D80055609460D3600E694D698C69CB6916613B
:1034E80055619461D36101461046FFF7BFFF70BD77
:1034F80000230F2B12DC30B406E0934209D00025DC
:10350800CD5401330F2B07DC9342F6D2C45CCC5464
:10351800F7E78025CD54F4E730BC704770470023A7
:103528000F2B09DC30B4C45CCD5C6C40D45401333F
:103538000F2BF8DD30BC7047704710B400240F2201
:1035480007E0835C5B00DBB223438B54835CDC09BC
:10355800013A002AF5DA5DF8044B704730B5B9B086
:103568000C461546014608A8FFF7A8FF6A46154904
:1035780008A8FFF7A7FF9DF90030002B0DDB2146B7
:103588006846FFF7DAFF94F90030002B0FDB21467D
:103598002846FFF7D2FF39B030BD04A96846FFF7C7
:1035A800CCFF2246084904A8FFF7B9FFEBE704A9B6
:1035B8002046FFF7C2FF2A46034904A8FFF7AFFFDA
:1035C800E9E700BF88000020300000202DE9F04125
:1035D800C8B005460E4690461F46304C0FCC3860A2
:1035E8007960BA60FB6010AA14A92846FFF7B6FFF5
:1035F800294618A8FFF762FF4046FCF723FF002280
:10360800274BFCF799FF41EC100B01F06DF851ECDA
:10361800100BFDF72BFA18B3054618F00F0F15D04D
:1036280005F18050013808F00F020CA906EB0010D4
:10363800FFF75EFF6A4610A90CA8FFF770FF08ACF9
:10364800164B0FCB84E80F00002417E000F18050E0
:1036580001386A4614A906EB0010FFF760FFEEE791
:103668000125DDE704AA06EB041108A8FFF757FFB8
:1036780008AA04A918A8FFF725FF01346B1EA34266
:10368800F0D804AA08A96846FFF749FF3A4604A9F2
:1036980018A8FFF717FF48B0BDE8F08188000020A0
:1036A8000000B03F38B51D46064C2346FFF78EFF95
:1036B80010222946204601F0C3F808B1002038BD81
:1036C8000120FCE79800002003090B7000F00F00B0
:1036D80048707047F0B583B007460E4600252C4663
:1036E80012E05732325501340133012B08DC02AAAB
:1036F8001A4412F8042C092AF3D830323255F2E76A
:103708000023ADF8043001350F2D05DC01A9785DE3
:10371800FFF7DAFF0023E8E703B0F0BD00220B4B08
:10372800092A12DC30B4B0FBF3F404F130058D54EF
:1037380003FB1400064C84FB0354DB17C3EBA40300
:103748000132092AEFDD30BC7047704700CA9A3B46
:1037580067666666F0B400273D460F4B3C4601E0BD
:1037680000250134092C14D8B1FBF3F605F1010C3E
:1037780006F13002D2B2425503FB1611074DA5FBE4
:103788000353DB08302A08BF002FE9D0013765460C
:10379800E7E7F0BC704700BF00CA9A3BCDCCCCCC61
:1037A80008B50146002201E0013292B28B5C002B81
:1037B800FAD164230148FFF736FB08BDD001002089
:1037C80000B583B002A901F8010D64230122034862
:1037D800FFF729FB03B05DF804FB00BFD001002010
:1037E80008B5FDF7E1FC034B48F291021A61FDF7B9
:1037F800F3FC08BD0020024010B586B00446002343
:103808000593FDF7D1FC1D4B1B6899B24FF6FF726B
:1038180091422DD01A4800EA832000F10060001B75
:10382800C00AB0F5807F10D901230293C0B204907A
:10383800C0F5807003900023019305A901A8FDF746
:10384800DBFD044670B94FF48070022302930490A4
:10385800C0F5807003900023019305A901A8FDF726
:10386800CBFD0446FDF7B8FC2CB9012006B010BD0D
:103878004FF00160D3E70220F8E700BFE075FF1FB3
:1038880000FCFF032DE9F041044688461746FDF782
:103898008BFC0025B5EB570F1CD2114B9C4213D85B
:1038A80008EBC506D6E9002321460020FDF7E4FC15
:1038B80060B9D4E90023D6E900018B4208BF8242EF
:1038C80006D108340135E5E7012404E0042402E0C8
:1038D800032400E00124FDF77FFC2046BDE8F081C9
:1038E800F8FF0F0800B589B0164BDA6C42F0800279
:1038F800DA64DA6C02F080020092009ADA6C42F024
:103908000802DA64DA6C02F008020192019A0022D5
:103918000492059206920792DA6C42F00102DA6488
:10392800DB6C03F001030293029B2E230393022313
:10393800059303A94FF09040FDF7DCFD09B05DF851
:1039480004FB00BF0010024008B50948094B03609A
:103958000123037141F2210282600822C26043718F
:1039680000220261426182610362FDF755FB08BDD6
:103978009C0100200030024008B50348034B036057
:10398800FEF777FF08BD00BFC00100200008065001
:1039980008B50948094B03604FF4E133436000233D
:1039A8008360C36003610C2242618361C361036267
:1039B8004362FFF768FB08BDD001002000440040C7
:1039C80030B5B9B02422002128A800F053FF002404
:1039D8002294239424942594269488222146684688
:1039E80000F048FF022327934FF480722A92102296
:1039F8002B92319332930123339314233493072367
:103A08003593082336930425379527A8FDF7E6FF55
:103A18000F23229303232393249425942694294641
:103A280022A8FEF7C9FA074B00930F944FF00063E2
:103A38001D936846FEF7F4FC4FF40070FDF7E4FEB2
:103A480039B030BD0200040010B52B4B2B4A9B1A2D
:103A58009B102B4A1360FDF7E7F9FFF7B1FFFFF75B
:103A680041FFFFF771FFFFF787FFFFF791FFFFF7B0
:103A7800B7FE00F009F92348FFF792FE002300E0A3
:103A88000133214A9342FBDD02214FF09040FDF7BC
:103A9800ABFE012826D01D4C21460320FFF768FB0A
:103AA8001B4B4FF4C3521B492046FFF7FBFDF0B1F7
:103AB8001948FFF775FE1948FFF772FE184B154AAB
:103AC8009A60184B1B68184A1360184A1360104A0A
:103AD8001268203282F30888984700F05FF800F0F7
:103AE800FBF8FEE700F05AF800F0F6F8F9E710489E
:103AF800FFF756FEF1E700BFA84800088801000854
:103B0800A8000020FC4A00083F420F005002002095
:103B18000080000820800008184B0008344B00087B
:103B280000ED00E0248000089002002028260020F4
:103B3800584B000810B582B002AC002304F8013DD0
:103B48001048FFF72DFE4FF0FF33012221460E48A3
:103B5800FFF7D5F99DF80730432B01D002B010BD0F
:103B68004FF4405209490A4800F046FC8DF8070016
:103B780018B90848FFF714FEF0E70748FFF710FEEA
:103B8800ECE700BF744B0008D0010020904B000800
:103B980000800008D44B0008A84B000870B52D48D9
:103BA800FFF7FEFD2C4C002121606160A160E160FF
:103BB8002A4E2022304600F05DFE2948FFF7F0FD2E
:103BC8002848294B1860294D2946FFF7A7FD2846A4
:103BD800FFF7E6FD23460A2229462548FFF7F6FCAB
:103BE80031462046FFF776FD1CE01F490A7901326D
:103BF800D2B20A711F2A0CD001331F2B0DDC1D4ACB
:103C0800D15C164AD25C9142EFD0194A0121117455
:103C1800F2E7174A00211174EEE720220021154827
:103C280000F028FE124B1B7C012B0ED11248FFF727
:103C3800B7FD42F2107320220E491048FFF75FF9D2
:103C48000F48FFF7ADFD0023D7E70E48FFF7A8FDA3
:103C580070BD00BFF44B0008600200207002002015
:103C6800244C00082E7B2058AC0000201C26002085
:103C78004000002094020020384C0008D0010020A9
:103C8800484C0008544C000838B50D4C2046FFF746
:103C980087FD0C48FFF784FD0B4D2846FFF780FD94
:103CA8000A48FFF77DFD2846FFF77AFD0848FFF729
:103CB80077FD2046FFF774FD0648FFF771FD38BD14
:103CC800644C0008B04C0008FC4C0008484D000843
:103CD800944D0008E04D000808B51FE0342B7AD059
:103CE8006D2B40F08780454C21460320FFF740FAB2
:103CF800434D2B464FF4C35242492046FFF766FC1A
:103D0800414C21462846FFF7E5FC2046FFF748FDD1
:103D18003E48FFF745FD01E000F0A4F83C48FFF7F6
:103D28003FFD3C48FFF73CFD3B48FFF739FD3B486A
:103D3800FFF736FD3A48FFF733FD3A48FFF730FD05
:103D4800394803681A8B42F008021A831A8B42F02A
:103D580010021A83354C4FF0FF330122611DFFF723
:103D6800CEF86379332B07D0B8D8312BD4D0322B87
:103D780040D1FFF7DFFED1E72D48FFF711FD1F4CBB
:103D880021460320FFF7F4F92A4B4FF4C3521D498B
:103D98002046FFF787FCD0B12748FFF701FD2748E9
:103DA800FFF7FEFCFDF704F81F48FEF779FD244BEA
:103DB800144A9A60234B1B68234A1360234A1360F2
:103DC8001C4A1268203282F308889847A6E72048E0
:103DD800FFF7E6FCA2E71F48FFF7E2FCFFF734FA1B
:103DE8001D490320FFF780F9FFF716FA1B48FFF774
:103DF800D7FC93E71A48FFF7D3FC8FE70C2600207F
:103E0800B402002020800008EC250020304B000878
:103E1800E84D0008284E0008684E0008A84E000823
:103E2800E84E0008284F0008D0010020AC00002010
:103E3800684F000800800008184B0008344B000841
:103E480000ED00E0248000089002002028260020D1
:103E5800584B0008844F0008400000209C4F000881
:103E6800A84F000830B585B000240394009401944D
:103E7800CDF80740344D42F228322146284600F05A
:103E8800F9FC3248FFF78CFC294603A800F000FA39
:103E9800234600E001332E4A9342FBDD48B1052852
:103EA8003AD004283CD002283ED02A48FFF778FCB4
:103EB80015E02948FFF774FC2848FFF771FC0399BF
:103EC8006846FFF747FC2648FFF76AFC6846FFF795
:103ED80067FC2448FFF764FC2348FFF761FC039C58
:103EE800203C224800F1140322462149FFF7DAFB5F
:103EF800F0B12048FFF754FC1F48FFF751FC1F485A
:103F0800FFF74EFC224610491D48FFF7BBFC1D4831
:103F1800FFF746FC05B030BD1B48FFF741FCDEE764
:103F28001A48FFF73DFCDAE71948FFF739FCD6E7EE
:103F38001848FFF735FC1848FFF732FC1748FFF719
:103F48002FFCFFF7C9FE00BFC4020020E84F00089D
:103F58003F420F001C510008245000082C26002066
:103F68007850000884500008905000084000002055
:103F7800E40200203C510008585100088451000810
:103F880000800008A8510008A8500008E850000860
:103F980004510008B8510008D05100080852000820
:103FA80082B00A4B1A6E42F001021A661A6E02F0CB
:103FB80001020092009A9A6D42F080529A659B6DB8
:103FC80003F080530193019B02B070470010024038
:103FD8000268094B9A4200D0704782B0A3F500539B
:103FE8009A6C42F480529A649B6C03F48053019358
:103FF800019B02B0704700BF0030024000B589B095
:104008000023039304930593069307930268134BC5
:104018009A4202D009B05DF804FB03F5E6339A6DC5
:1040280042F400329A659A6D02F400320192019AC4
:10403800DA6C42F00802DA64DB6C03F008030293DE
:10404800029B60230393022304930323069307230D
:10405800079303A90248FDF74DFADBE70044004047
:10406800000C004808B50268064B9A4200D008BD0B
:10407800054A936D23F40033936560210348FDF7E7
:1040880023FBF4E70044004000100240000C004805
:104098007047FEE7FEE7FEE7FEE7704770477047A8
:1040A80008B5FCF7D1FE08BD0F49D1F8883043F4B4
:1040B8007003C1F888300D4B1A6842F001021A608B
:1040C800002098601A6822F0A85222F410221A6080
:1040D8004FF48052DA601A6822F480221A609861DC
:1040E8004FF000638B60704700ED00E00010024065
:1040F80030B4B3F5806F0DD3B3F5806F28BF4FF49C
:10410800806302244C704FF480658A70D243CA7071
:1041180004240AE0802B28BF802301244C708025CA
:10412800F3E702780A55013401301A1DA242F8D883
:104138009D4203D205E01A238B5401322B1D934272
:10414800F9D830BC704700002DE9F04182B08046B4
:104158000C46174600230B60134601220DF1070198
:104168003348FEF7CCFE0646002859D19DF80730A3
:10417800042B1CD006D8012B3AD0022B35D14FF492
:10418800806515E0412B2DD0612B2BD0182B2CD11D
:104198003B4601220DF107012548FEF7B0FE48BB5A
:1041A8009DF80730182B28D00126002500E00025AF
:1041B8009DF8073088F800307F2D32D93B462A1DFC
:1041C80008F102011A48FEF79AFE064670BB98F8F5
:1041D800022098F80330DB43DBB29A420FD0012665
:1041E80000251EE002260025E2E701260025DFE77C
:1041F8008025DDE701260025DAE70225D8E708EB68
:1042080005031A795F7907EB02272A4608F10401AA
:104218000848FCF741FFB84203D00126002500E01A
:1042280000252560304602B0BDE8F0810025F8E79A
:10423800D00100209C01002070B584B00546012300
:10424800437000248470FF23C37002E0201D2B54A8
:1042580001340B5D0BB13F2CF8D9231D0026EE5419
:10426800114601A8FFF776FA0534334604AA1A4422
:1042780012F80C2C1AB101332A550134F6E7832CB5
:1042880003D800232B550134F9E704B070BD0000B2
:104298002DE9F04F83B082468B460024A14626467E
:1042A800A046B8F1000F40F09880002C40F09580AF
:1042B8004546002771E0019A3AB1022A0BD106203F
:1042C800FFF77EFA2E46022467E00620FFF778FA09
:1042D8002E46012561E0434B9B78BB4208D1002F55
:1042E80044D1404B1B79002B39D02B463E4908E07E
:1042F8001520FFF765FA2E464FE001313B48C254BE
:1043080001330A780AB13F2BF7D9DAF8002043F2D3
:1043180001039A420ED83648FFF76EFA0620FFF7D7
:104328004FFA4320FFF74CFA0137FFB22E464FF001
:10433800010932E002AC182304F8053D2D4E4FF474
:104348008013012221463046FEF76DFD4FF480139D
:10435800012221463046FEF766FD0524DBE70620EC
:10436800FFF72EFA2E460125A84616E0DAF80000D7
:104378001D49584400F073FADAF80030019A1344E2
:10438800CAF800300620FFF71BFACDE71820FFF720
:1043980017FA1820FFF714FA0224002D81D1002CF7
:1043A8007FF47FAF42F2107201A90E48FFF7CCFEEE
:1043B800002880D00228E9D0B9F1000F00D00136DA
:1043C800052E06D91820FFF7FBF91820FFF7F8F992
:1043D800E3E74320FFF7F4F9DFE7204603B0BDE841
:1043E800F08F00BF6C260020702600202C260020AD
:1043F80000800008D00100202DE9F04F85B0019021
:1044080091469F48FFF718FF4FF000084646474679
:1044180004E00136042E01D94FF00108002F40F0C6
:104428009980B8F1000F42D1964D974C4FF4801304
:10443800832229462046FEF7F6FC8022E91C934891
:10444800FCF72AFE0546C0F30720FFF7B9F9E8B2E2
:10445800FFF7B6F94FF48013012203A92046FEF7AF
:104468004EFD0028D5D19DF80C30062B1DD0182BF9
:10447800D0D14FF48013012203A92046FEF73FFD57
:104488000028C7D19DF80C30182BC3D10220FCF7A7
:10449800EDFC23681A8B42F008021A831A8B42F04B
:1044A80010021A834FF00208B4E70127B2E74FF071
:1044B800010B50E0802516E0019B2B440193D14667
:1044C8004FF0010A00E00134042C01D94FF0010833
:1044D800BAF1000F3FD1B8F1000F3CD1B9F5806FA8
:1044E800E8D34FF48065674F674E4FF48013EA1C9A
:1044F80039463046FEF797FC2A46F91C6348FCF714
:10450800CBFD0746C0F30720FFF75AF9F8B2FFF7CB
:1045180057F94FF48013012203A93046FEF7EFFC48
:104528000028D0D19DF80C30062BCCD1A945C3D991
:10453800019B2B440193A9EB0509BBF10C0F04D097
:104548000BF1010B4FF0010ABEE74FF005084FF0E1
:10455800010AB9E7BB46B9F1000F0ED0B8F1000F58
:104568000BD14B465FFA8BF245490198FFF7C0FD26
:1045780000248DF80C40A246AAE700248DF80C40D0
:104588002546464603E00134042C00D9012685BBA4
:104598007EBB0420FFF714F94FF48013012203A90E
:1045A8003948FEF7ACFC0028EDD19DF80C30062BFD
:1045B8001DD0182BE8D14FF48013012203A93248EB
:1045C800FEF79DFC0028DFD19DF80C30182BDBD1BD
:1045D8000220FCF74BFC2C4B1B681A8B42F008029C
:1045E8001A831A8B42F010021A830226CCE701259F
:1045F800CAE7B0468EBB224B01225A7000229A703D
:10460800FF22DA70042304E01D4A0021D15401334B
:10461800DBB2832BF8D91B4D1B4C4FF4801383223C
:1046280029462046FEF7FFFB8022E91C1748FCF7C5
:1046380033FD0546C0F30720FFF7C2F8E8B2FFF7DD
:10464800BFF84FF48013012203A92046FEF757FC58
:1046580018B99DF80C30182B03D0404605B0BDE8BA
:10466800F08F0220FCF702FC23681A8B42F0080244
:104678001A831A8B42F010021A834FF00208ECE7F3
:104688006C2600206D260020D00100209C0100200F
:10469800DFF834D0002103E00C4B5B584350043161
:1046A8000B480C4B42189A42F6D30B4A02E00023FF
:1046B80042F8043B094B9A42F9D3FFF7F5FC00F0A6
:1046C8009BF8FFF7C1F9FEE700800120405200087F
:1046D800000000206800002068000020742A0020E4
:1046E800FEE700000000000051EC100BC1F30A5374
:1046F8002DE9F041A3F2FF35132D0C460F4610EEBD
:10470800106A22DC002D4DDB394B43FA05F801EA2B
:10471800080303431ED034A3D3E90023FBF756FD57
:1047280000220023FCF798F948B1002C04DD4FF46F
:10473800801343FA05F52F4427EA08040026234688
:10474800324643EC102BBDE8F081332D06DDB5F57C
:10475800806F39D041EC100BBDE8F081A3F2134310
:104768004FF0FF3828FA03F818EA000FF2D01EA31A
:10477800D3E90023FBF72AFD00220023FCF76CF99C
:104788000028DCD0002C09DD142D27D00123C5F129
:10479800340503FA05F5AE1928BFFF1826EA0806FE
:1047A8003C46CCE710A3D3E90023FBF70FFD00221A
:1047B8000023FCF751F90028C1D0002C10DB264358
:1047C8000AD000260B4CBAE710EE102A0B46FBF76E
:1047D800FDFC41EC100BBFE73446B0E70137DDE7DD
:1047E80000264FF00044AAE79C7500883CE4377E19
:1047F800FFFF0F000000F03F70B50D4E0D4CA41BDD
:10480800A4100025A54209D10B4E0C4C00F03AF833
:10481800A41BA4100025A54205D170BD56F825306B
:1048280098470135EEE756F8253098470135F2E705
:104838003052000830520008305200083452000844
:1048480030B50024A24201D1002007E0035D013405
:104858000D1915F8015CAB42F4D0581B30BD10B5EA
:10486800431E0A44914200D110BD11F8014B03F8D0
:10487800014FF7E702440346934200D1704703F81B
:10488800011BF9E7F8B500BFF8BC08BC9E467047A5
:10489800F8B500BFF8BC08BC9E4670470000000091
:1048A800637C777BF26B6FC53001672BFED7AB76E5
:1048B800CA82C97DFA5947F0ADD4A2AF9CA472C090
:1048C800B7FD9326363FF7CC34A5E5F171D83115FD
:1048D80004C723C31896059A071280E2EB27B2751E
:1048E80009832C1A1B6E5AA0523BD6B329E32F8496
:1048F80053D100ED20FCB15B6ACBBE394A4C58CF8E
:10490800D0EFAAFB434D338545F9027F503C9FA861
:1049180051A3408F929D38F5BCB6DA2110FFF3D22F
:10492800CD0C13EC5F974417C4A77E3D645D1973E3
:1049380060814FDC222A908846EEB814DE5E0BDBDD
:10494800E0323A0A4906245CC2D3AC629195E47914
:10495800E7C8376D8DD54EA96C56F4EA657AAE086E
:10496800BA78252E1CA6B4C6E8DD741F4BBD8B8A09
:10497800703EB5664803F60E613557B986C11D9E6F
:10498800E1F8981169D98E949B1E87E9CE5528DFE6
:104998008CA1890DBFE6426841992D0FB054BB1612
:1049A8008D01020408102040801B360052096AD588
:1049B8003036A538BF40A39E81F3D7FB7CE339820C
:1049C8009B2FFF87348E4344C4DEE9CB547B94325B
:1049D800A6C2233DEE4C950B42FAC34E082EA166A3
:1049E80028D924B2765BA2496D8BD12572F8F6647A
:1049F80086689816D4A45CCC5D65B6926C704850F5
:104A0800FDEDB9DA5E154657A78D9D8490D8AB00A9
:104A18008CBCD30AF7E45805B8B34506D02C1E8FD2
:104A2800CA3F0F02C1AFBD0301138A6B3A9111410E
:104A38004F67DCEA97F2CFCEF0B4E67396AC7422F7
:104A4800E7AD3585E2F937E81C75DF6E47F11A7175
:104A58001D29C5896FB7620EAA18BE1BFC563E4BAE
:104A6800C6D279209ADBC0FE78CD5AF41FDDA83370
:104A78008807C731B11210592780EC5F60517FA9B0
:104A880019B54A0D2DE57A9F93C99CEFA0E03B4DDF
:104A9800AE2AF5B0C8EBBB3C83539961172B047E53
:104AA800BA77D626E169146355210C7DA0860100EA
:104AB800400D0300801A060000350C0040420F002C
:104AC80080841E0000093D0000127A000024F400D2
:104AD80000366E010048E801006CDC0200000000AE
:104AE8000000000001020304060708090000000096
:104AF800010203040A0D426F6F74696E67205072D9
:104B08006F6772616D202E2E2E2E2E2E0D0A0A0032
:104B180050726F6772616D205665726966792053AD
:104B280055434345535320210D0A0A0053746172BB
:104B3800742070726F6772616D2065786563757433
:104B4800696F6E2E2E2E2E2E2E0D0A0A00000000E2
:104B580050726F6772616D2056657269667920467A
:104B680041494C20210D0A0A000000000A0A0D5391
:104B7800656C65637420526563656976652046696E
:104B88006C650A0D0000000055706C6F6164656407
:104B9800466C617368496D6167652E62696E0000D5
:104BA8000A0D4572726F72204F6363757272656485
:104BB800207768696C65205472616E736D697474CE
:104BC800696E672046696C650A0D00000A0D466922
:104BD8006C652075706C6F616465642073756363C0
:104BE80065737366756C6C79200A0D000D0A2D2D9E
:104BF8002D2D2D2D2D2D2D2D2D2D2D5365637572BC
:104C0800697479204163636573732D2D2D2D2D2DC6
:104C18002D2D2D2D2D2D2D2D2D0D0A000D0A536511
:104C280063757269747920436F64653A20000000E7
:104C38000D0A456E74657220434D41433A200000C9
:104C48000D0A202E2E2E0A0D000000000D0A2053FA
:104C58005543434553530A0D000000000D0A3D3DDE
:104C68003D3D3D3D3D3D3D3D3D3D3D3D3D3D3D3D6C
:104C78003D3D3D3D3D3D3D3D3D3D3D3D3D3D3D3D5C
:104C88003D3D3D3D3D3D3D3D3D3D3D3D3D3D3D3D4C
:104C98003D3D3D3D3D3D3D3D3D3D3D3D3D3D3D3D3C
:104CA8003D3D3D3D000000000D0A3D202020202014
:104CB80020202020202020202028432920434F5036
:104CC80059524947485420323031352053544D69A0
:104CD80063726F656C656374726F6E6963732020AD
:104CE8002020202020202020202020202020203D9F
:104CF800000000000D0A3D20202020202020202038
:104D0800202020202020202020202020202020209B
:104D1800202020202020202020202020202020208B
:104D2800202020202020202020202020202020207B
:104D380020202020202020202020203D00000000CE
:104D48000D0A3D202053544D33324C347878204995
:104D58006E2D4170706C69636174696F6E2050725A
:104D68006F6772616D6D696E67204170706C696301
:104D78006174696F6E20202856657273696F6E20A2
:104D8800392E392E3929203D000000000D0A3D201A
:104D9800202020202020202020202020202020200B
:104DA80020202020202020202020202020202020FB
:104DB800202042792053656375726974792054659F
:104DC800616D20202020202020202020202020204D
:104DD8002020203D000000000D0A0D0A0000000000
:104DE8000D0A3D3D3D3D3D3D3D3D3D3D3D3D3D3D4E
:104DF8003D3D3D3D3D204D61696E204D656E752000
:104E08003D3D3D3D3D3D3D3D3D3D3D3D3D3D3D3DCA
:104E18003D3D3D3D3D3D3D3D3D3D3D3D0D0A0A008D
:104E28002020446F776E6C6F616420696D616765DF
:104E380020746F2074686520696E7465726E616C89
:104E480020466C617368202D2D2D2D2D2D2D2D2D97
:104E58002D2D2D2D2D2D2D2D20310D0A0A00000070
:104E6800202055706C6F616420696D6167652066EC
:104E7800726F6D2074686520696E7465726E616CFE
:104E880020466C617368202D2D2D2D2D2D2D2D2D57
:104E98002D2D2D2D2D2D2D2D20320D0A0A0000002F
:104EA800202056657269667920616E6420457865B0
:104EB8006375746520746865206C6F61646564202F
:104EC8006170706C69636174696F6E202D2D2D2D72
:104ED8002D2D2D2D2D2D2D2D20330D0A0A000000EE
:104EE80020204C6F6164204B657920746F20466CDC
:104EF800617368202D2D2D2D2D2D2D2D2D2D2D2D32
:104F08002D2D2D2D2D2D2D2D2D2D2D2D2D2D2D2DC9
:104F18002D2D2D2D2D2D2D2D20340D0A0A000000AC
:104F28003D3D3D3D3D3D3D3D3D3D3D3D3D3D3D3DA9
:104F38003D3D3D3D3D3D3D3D3D3D3D3D3D3D3D3D99
:104F48003D3D3D3D3D3D3D3D3D3D3D3D3D3D3D3D89
:104F58003D3D3D3D3D3D3D3D3D0D0A0A0000000003
:104F6800566572696679204170706C69636174690D
:104F78006F6E2E2E2E2E2E2E0D0A0A004B657920CE
:104F88005570646174696E672E2E2E2E2E2E0D0AB2
:104F98000A000000444F4E452021210D0A0A000056
:104FA800496E76616C6964204E756D626572202168
:104FB800203D3D3E20546865206E756D6265722007
:104FC80073686F756C6420626520656974686572C2
:104FD80020312C20322C2033206F7220340D000019
:104FE80057616974696E6720666F722074686520FE
:104FF80066696C6520746F2062652073656E742025
:105008002E2E2E2028707265737320276127207436
:105018006F2061626F7274290A0D00000A0A0D2060
:10502800526563656976696E6720436F6D706C655C
:10503800746564205375636365737366756C6C7906
:10504800210A0D2D2D2D2D2D2D2D2D2D2D2D2D2DD7
:105058002D2D2D2D2D2D2D2D2D2D2D2D2D2D2D2D78
:105068002D2D2D0D0A204E616D653A20000000009F
:105078000A0D2053697A653A2000000020427974AD
:1050880065730D0A000000002D2D2D2D2D2D2D2DC1
:105098002D2D2D2D2D2D2D2D2D2D2D0A000000000F
:1050A8000A0A0D54686520696D6167652073697A1D
:1050B8006520697320686967686572207468616E25
:1050C8002074686520616C6C6F776564207370610B
:1050D8006365206D656D6F7279210A0D000000000F
:1050E8000A0A0D566572696669636174696F6E2094
:1050F8006661696C6564210A0D0000000D0A0A41A9
:10510800626F7274656420627920757365722E0A05
:105118000D0000000A0D4661696C656420746F20FB
:1051280072656365697665207468652066696C6573
:10513800210A0D000D0A526570726F6772616D6DFC
:10514800696E67205355434345535320210000009F
:105158000D0A596F75722066696C6520417574680F
:10516800656E7469636174696F6E20616E6420494D
:105178006E746567726174696F6E21000D0A464C22
:10518800415348494E4720746F20464C41534820AC
:105198002E2E2E2E2E2E2E2E2E2E2E2E00000000DF
:1051A8000D0A444F4E452121210D0A0A0000000036
:1051B8000D0A526570726F6772616D6D696E672056
:1051C8004641494C202100000D0A596F757220662E
:1051D800696C6520646F6573206E6F742041757407
:1051E80068656E7469636174696F6E20616E6420AE
:1051F800496E746567726174696F6E210000000002
:105208000D0A5265656E746572204E657720466991
:105218006C65202121210D0A0A0000000000000011
:08522800BCB8FF7F010000008B
:08523000AD01000800000000C0
:085238008901000800000000DC
:10524000010000001000000000000000000000004D
:10525000000000000000000001000000000000004D
:105260000000000000000000BC0000200000080852
:1052700000000000000000000000000000000087A7
:105280002B7E151628AED2A6ABF7158809CF4F3C5A
:1052900001000000AF7AE2899FB720FFD5C30CBAA6
:0852A00008718D8B00093D002F
:040000050800469910
:00000001FF
