:020000040800F2
:10000000008001200D3B00086134000863340008C3
:1000100065340008673400086934000800000000F7
:100020000000000000000000000000006B34000829
:100030006D340008000000006F34000871340008BF
:100040005D3B00085D3B00085D3B00085D3B000830
:100050005D3B00085D3B00085D3B00085D3B000820
:100060005D3B00085D3B00085D3B00085D3B000810
:100070005D3B00085D3B00085D3B00085D3B000800
:100080005D3B00085D3B00085D3B00085D3B0008F0
:100090005D3B00085D3B00085D3B00085D3B0008E0
:1000A0005D3B00085D3B00085D3B00085D3B0008D0
:1000B0005D3B00085D3B00085D3B00085D3B0008C0
:1000C0005D3B00085D3B00085D3B00085D3B0008B0
:1000D0005D3B00085D3B00085D3B00085D3B0008A0
:1000E0005D3B00085D3B00085D3B00085D3B000890
:1000F0005D3B00085D3B00085D3B00085D3B000880
:100100005D3B00085D3B00085D3B00085D3B00086F
:100110005D3B00085D3B00085D3B00085D3B00085F
:100120005D3B00085D3B00085D3B00085D3B00084F
:100130005D3B00085D3B00085D3B00085D3B00083F
:100140005D3B00085D3B00085D3B00085D3B00082F
:100150005D3B00085D3B00085D3B00085D3B00081F
:100160005D3B00085D3B00085D3B00085D3B00080F
:100170005D3B00085D3B00085D3B0008000000009F
:080180005D3B00085D3B000837
:1001880010B5054C237833B9044B13B10448AFF3C9
:1001980000800123237010BD300000200000000003
:1001A800B83B000808B5034B1BB103490348AFF33C
:1001B800008008BD0000000034000020B83B0008A3
:1001C80053B94AB9002908BF00281CBF4FF0FF31B6
:1001D8004FF0FF3000F072B9ADF1080C6DE904CEB4
:1001E80000F006F8DDF804E0DDE9022304B070470A
:1001F8002DE9F047089E04468846002B4BD18A42D9
:10020800154667D9B2FA82F24AB1C2F1200701FA5B
:1002180002F320FA07F7954047EA030894404FEAAB
:10022800154E230CB8FBFEF71FFA85FC0EFB17884A
:1002380043EA084307FB0CF1994209D9EB1807F187
:10024800FF3080F01B81994240F21881023F2B4415
:100258005B1AA4B2B3FBFEF00EFB103344EA03446E
:1002680000FB0CFCA44509D92C1900F1FF3380F0E0
:100278000781A44540F2048102382C4440EA074033
:10028800A4EB0C0400271EB1D4400023C6E90043A8
:100298003946BDE8F0878B4209D9002E00F0EB8083
:1002A8000027C6E9000138463946BDE8F087B3FAA9
:1002B80083F7002F47D18B4202D3824200F2FA80A3
:1002C800841A61EB030301209846002EE0D0C6E9AA
:1002D8000048DDE702B9FFDEB2FA82F2002A40F0F8
:1002E8008F80491B4FEA154E1FFA85F80127B1FB8D
:1002F800FEFC230C0EFB1C1143EA014308FB0CF126
:10030800994207D9EB180CF1FF3002D2994200F25A
:10031800CD808446591AA3B2B1FBFEF00EFB10142F
:1003280043EA044408FB00F8A04507D92C1900F15A
:10033800FF3302D2A04500F2B6801846A4EB0804A9
:1003480040EA0C409FE7C7F1200CBB4022FA0CFEA4
:100358004EEA030E01FA07F420FA0CF521FA0CF321
:100368004FEA1E482543B3FBF8F92C0C08FB193358
:100378001FFA8EFA44EA034309FB0AF49C4202FA84
:1003880007F200FA07F10BD91EEB030309F1FF305E
:1003980080F087809C4240F28480A9F1020973446E
:1003A8001B1BADB2B3FBF8F008FB103345EA03445E
:1003B80000FB0AFAA24508D91EEB040400F1FF333A
:1003C8006BD2A24569D90238744440EA0940A0FBBF
:1003D8000289A4EB0A044C45C2464B4654D351D07B
:1003E800002E69D0B1EB0A0564EB030404FA0CFC97
:1003F800FD40FC404CEA0505C6E90054002747E7E4
:10040800C2F1200320FA03F7954001FA02F021FA1D
:1004180003F34FEA154E3843010CB3FBFEF71FFAFE
:1004280085F80EFB173341EA034107FB08F38B42BB
:1004380004FA02F407D9691807F1FF3C2FD28B425E
:100448002DD9023F2944CB1A81B2B3FBFEF00EFB33
:10045800103341EA034100FB08F38B4207D96918BE
:1004680000F1FF3C17D28B4215D902382944C91A2A
:1004780040EA07473BE73746304609E70746E7E6DD
:100488001846FBE64145ABD2B8EB020A69EB0E020F
:1004980001381346A4E76046E9E7184695E767463A
:1004A800D1E781467CE702382C4447E7ACF1020CDF
:1004B8002B442FE7384608E73746E9E6704700BF80
:1004C800104B1B680BB90120704710B504464FF458
:1004D8007A70B0FBF3F30C4A1068B0FBF3F000F04D
:1004E80091F868B90F2C01D901200AE000222146B1
:1004F8004FF0FF3000F052F8024B5C60002000E043
:10050800012010BD000000202800002010B50320A5
:1005180000F032F80020FFF7D3FF10B10124204685
:1005280010BD044602F036FFF9E70000034A1368DD
:10053800034909680B441360704700BF500000204E
:1005480000000020014B1868704700BF50000020D1
:1005580038B50446FFF7F6FF0546B4F1FF3F02D071
:10056800044B1B681C44FFF7EDFF401BA042FAD365
:1005780038BD00BF00000020074AD36823F4E063B9
:100588001B041B0C000200F4E060184340F0BF603D
:1005980040F40030D060704700ED00E030B4174BF5
:1005A800DB68C3F30223C3F10704042C28BF042427
:1005B8001D1D062D18D9033B4FF0FF3505FA04F42D
:1005C80021EA0401994005FA03F322EA03031943D7
:1005D80000280BDB0901C9B200F1604000F5614059
:1005E80080F8001330BC70470023E5E700F00F00E7
:1005F8000901C9B2024B1954F4E700BF00ED00E04D
:1006080014ED00E00138B0F1807F0AD2064B586043
:10061800064AF02182F823100020986007221A6009
:1006280070470120704700BF10E000E000ED00E0D7
:1006380070B400240FE011F8246001EB84056B7896
:100648001B0443EA0663AE7843EA0623EE7805689E
:1006580033432B600134B4EB920FECD312F0030256
:1006680005D0012A07D0022A0AD0032A12D003682B
:10067800186870BC7047036811F824501D70F2E7C1
:1006880011F8245001EB84035B7843EA05230568DD
:100698002B80EAE711F8242001EB84014B7843EA28
:1006A80002230268138003688A781A70DFE7002340
:1006B800B3EB520F18D270B431F8236001EB830406
:1006C8006488056844EA06442C600133B3EB520F92
:1006D800F2D312F0010F03D0026831F823301380EF
:1006E8000368186870BC704712F0010F03D00268E5
:1006F80031F823301380036818687047002838D011
:1007080010B50446437F1BB30223637723791BBBD1
:100718002368194A5A612268936823F01803936082
:10072800637913BB23684FF0FF321A61226893681C
:1007380023F0600361690B4393602268936823F098
:100748008003A1690B43936001236377002010BDE8
:10075800037702F037FED7E7E268A168204600F089
:1007680035F80028DCD00120F1E7236822691A61F6
:10077800DCE70120704700BFB71DC10438B5044647
:10078800022343770068836843F001038360236A88
:10079800022B17D0032B0FD0012B0FD0002008E01D
:1007A800206851F82350056001339342F8D3236839
:1007B80018680123637738BD0023F6E72046FFF762
:1007C80037FFF6E72046FFF772FFF2E730B41F2441
:1007D800651E3CB105F01F0321FA03F32C4613F004
:1007E800010FF5D0182A23D8DFE802F00F222222C1
:1007F800222222221E222222222222221A222222DD
:10080800222222220D00062D14D80368596101689E
:100818008B6823F018031A438A60002030BC7047A5
:10082800072DF2D90120F9E70F2DEED90120F5E7C0
:100838000120F3E70120F1E710B4064C616941F0AB
:10084800010161610260BFF36F8F43605DF8044B83
:10085800704700BF0020024010B40B4A536943F4AC
:1008680080235361EFF3108472B6402351F8042BB0
:1008780040F8042B013B13F0FF03F7D184F31088F1
:100888005DF8044B704700BF00200240094B5B69CC
:10089800002B01DB00207047064B074A9A6002F1E3
:1008A80088329A605B69002B01DB002070470120C9
:1008B800704700BF0020024023016745034A53697F
:1008C80043F0004353610020704700BF00200240FE
:1008D800074B5B6913F0804F07D0054B054ADA6078
:1008E80002F14432DA60002070470120704700BFEF
:1008F800002002403B2A190838B50446FFF722FEBB
:1009080005461E4B1B6913F4803F09D0B4F1FF3F25
:10091800F7D0FFF717FE401BA042F2D3032027E0D1
:10092800164A136923F4705323F005031B041B0CA8
:10093800926902F00042134311D011494A681A43E0
:100948004A6013F0404203D00C49886902438A6127
:1009580033F040430DD0094A1361012008E0074BEA
:100968001B6913F0010F06D0044B01221A61002005
:1009780038BD0120FCE70020FAE700BF0020024054
:10098800080000202DE9F041284C2478012C4AD099
:10099800984617460D460446244B01221A704CF21D
:1009A8005030FFF7A9FF064608BB204B00225A60CB
:1009B8001F4B1B6813F4806F1FD01D4A136823F464
:1009C80080631360194B02221A77D4B1631E012B7E
:1009D8001ED900244CF25030FFF78EFF064624B192
:1009E800134A536923EA0404546100F0F7FA0F4BE1
:1009F80000221A703046BDE8F0810C4B00221A77AD
:100A0800E3E73A4643462846FFF716FF0124E1E7A5
:100A180039462846FFF720FF022C01D00024D9E7E9
:100A28004FF48024D6E70226E4E700BF0800002040
:100A38000020024008B5054A536943F0006353613A
:100A48004CF25030FFF758FF08BD00BF00200240AD
:100A580010F0010F04D0094A536943F004035361AD
:100A680010F0020F04D0054A536943F40043536160
:100A7800024A536943F480335361704700200240AF
:100A880030B101280DD0022814D004281BD070479B
:100A98001148C36ADBB20B60C36AC3F30743136030
:100AA80070470D48036BDBB20B60036BC3F307435E
:100AB800136070470848C36CDBB20B60C36CC3F3A8
:100AC8000743136070470448036DDBB20B60036D86
:100AD800C3F307431360DAE700200240064B1B6AA2
:100AE800DBB2AA2B01D0CC2B03D1034B186AC0B2BE
:100AF8007047BB20704700BF00200240024B186AB5
:100B080020F0FF00704700BF0020024070B42B4B5C
:100B18001B6813F4807F1DD1294B1B689DB24FF6CB
:100B2800FF74A54225D0274D05EA432505F1006548
:100B38004FF00064036803F00303012B21D0022B5C
:100B48002DD0214B9A6A02F00042036813430360D8
:100B580070BC70471A4B1B689DB24FF6FF74A542D4
:100B68000BD0184C04EA432404F100644FF00065EC
:100B7800E0E7164D4FF00064DCE74FF00065134CDA
:100B8800D8E7114E756A124B03EAC50525440D6076
:100B9800B16A03EAC1031C4407341460D1E70A4E62
:100BA800746C0B4B03EAC4042C440C60B16C03EA6C
:100BB800C1031D4407351560C3E700BF00000140AD
:100BC800E075FF1F00FEFF0100200240000008083A
:100BD800F8FF070070B505460C4616464CF2503033
:100BE800FFF78AFE0346B0B9BDB91C4AD36A03F0C1
:100BF800FF2344EA06441C43D462184C636943F457
:100C0800003363614CF25030FFF776FE03466269A9
:100C180022F400326261184670BD012D0CD0022DFD
:100C280013D0042DE9D10D4A136D03F0FF2344EAD4
:100C380006441C431465E0E7084A136B03F0FF23DE
:100C480044EA06441C431463D7E7044AD36C03F010
:100C5800FF2344EA06441C43D464CEE70020024044
:100C680038B505464CF25030FFF746FE034608B14A
:100C7800184638BD094C206A20F0FF00284320623E
:100C8800636943F4003363614CF25030FFF734FE7C
:100C98000346626922F400326261E9E700200240FB
:100CA80038B504460D464CF25030FFF725FE034692
:100CB800002879D114F0010F78D005F4E0624FF4E0
:100CC800E06314F0020F04D005F480510A4343F4A2
:100CD800805314F0040F04D005F400510A4343F480
:100CE800005314F4805F04D005F480410A4343F4B0
:100CF800804314F0080F04D005F480310A4343F40C
:100D0800803314F0100F04D005F400310A4343F483
:100D1800003314F0200F04D005F480210A4343F473
:100D2800802314F0400F04D005F400210A4343F453
:100D3800002314F0800F04D005F480110A4343F413
:100D4800801314F4807F04D005F400110A4343F49F
:100D5800001314F4007F04D005F400010A4343F49F
:100D6800000314F4806F04D005F080710A4343F047
:100D7800807314F4006F04D005F000752A4343F023
:100D880000730C4C216A21EA03031A432262636947
:100D980043F4003363614CF25030FFF7ADFD034676
:100DA800626922F400326261184638BD00231A468F
:100DB80087E700BF0020024070B505460C4616467E
:100DC8004CF25030FFF798FD034668BB334B1B6865
:100DD80013F4807F2AD1324B1B6899B24FF6FF7209
:100DE800914232D02F4A02EA432202F100634FF0C7
:100DF800006205F0030101292FD002293DD02A4CB9
:100E0800A06A20F0004005F000452843A06263690D
:100E180043F4003363614CF25030FFF76DFD034635
:100E2800626922F400326261184670BD1C4B1B686F
:100E380099B24FF6FF7291420BD01A4A02EA432246
:100E480002F100624FF00063D3E7184B4FF00062E5
:100E5800CFE74FF00063154ACBE7A41A12494B6A53
:100E68001B0C1B0443EAD4034B62B21A8B6A1B0C9B
:100E78001B0443EAD2028A62C1E7E41A0A494A6CAF
:100E8800120C120442EAD4044C64F21A8B6C1B0C48
:100E98001B0443EAD2028A64B1E700BF00000140A4
:100EA800E075FF1F00FEFF01002002400000080857
:100EB80038B5234B1B78012B3FD00446204B012229
:100EC8001A7000225A60036813F0010F15D100252B
:100ED800236813F0020F1AD1236813F0040F1DD1F1
:100EE800236813F0080F03D0216A626A91421DD16A
:100EF800134B00221A70284638BDC26881684068C2
:100F0800FFF768FE05460028E2D00125E0E72069E2
:100F1800FFF7A6FE0028DFD00125DDE7A16960699B
:100F2800FFF7BEFE0028DBD00125D9E7E069FFF70F
:100F380043FF0028DCD00125DAE70225DBE700BF04
:100F48000800002010B50446062303604068022804
:100F580001D9042807D12246072342F80C3B04F1A3
:100F68000801FFF78DFDFFF7B9FD2061FFF7C6FD0A
:100F7800A061E369013B012B00D910BD236843F050
:100F88000803224642F8243B04F1200104F11C0026
:100F9800FFF7BCFDF1E7000011F0010F16D10E4A72
:100FA800536943F4006353610B4B5A6922F4FF629F
:100FB800C00000F4FF60104358615A6942F0020211
:100FC8005A615A6942F480325A617047024A536939
:100FD80023F400635361E7E700200240144B1B7FB2
:100FE800DBB2012B01D0032B0CD1124A116841F45A
:100FF80000611160116821F400611160116841F409
:1010080000711160023BDBB2012B03D9084B0022AF
:101018001A777047074B1A6842F480521A601A68A8
:1010280022F480521A601A6842F480621A60EDE76E
:101038000800002000200240F8B53C4B1B78012B2B
:1010480071D00E460446394B01221A704CF25030CA
:10105800FFF752FC0746002860D1344B00225A6043
:10106800334B1B6813F4007F33D0314B1A6822F4DA
:1010780000721A601B6813F4806F26D02C4A13681C
:1010880023F480631360294B03221A772368012B0A
:1010980031D04FF0FF333360A568A368E26813448A
:1010A800AB4239D961682846FFF776FF4CF25030D9
:1010B800FFF722FC1E4A536923F4FF6323F002035F
:1010C8005361074638BB0135E7E7184B01221A7709
:1010D800DCE7174B1B6813F4806F08D0144A1368B9
:1010E80023F480631360114B02221A77CEE70F4B6B
:1010F80000221A77CAE76068FFF7AAFC4CF2503062
:10110800FFF7FAFB07460A4A536923F4004323F022
:101118000403536100E03560FFF760FF034B0022D2
:101128001A703846F8BD0227FBE700BF0800002008
:1011380000200240F0B482B0002341E0D0F82CC077
:101148002CEA040CC6F3C0049C4044EA0C04C462B4
:1011580086E0062400E00024B4403C430235664E95
:1011680046F82540654C2568D44304EA05064F68CF
:1011780017F4803F01D042EA0506604D2E606D6885
:1011880004EA05064F6817F4003F01D042EA050655
:101198005A4D6E60AD6804EA05064F6817F4801F63
:1011A80001D042EA0506554DAE60ED682C404E6808
:1011B80016F4001F01D042EA0504504AD4600133F6
:1011C8000A6832FA03F400F0938001249C4022401C
:1011D800F5D04D68022D01D0122D10D1DE08083649
:1011E80050F826C003F00705AF000F25BD402CEAD4
:1011F800050C0D69BD4045EA0C0540F82650066807
:101208005F000325BD40ED4305EA060C4E6806F075
:101218000306BE4046EA0C0606604E6806F1FF3C2F
:10122800BCF1010F03D9112E01D0122E11D18668FD
:1012380005EA060CCE68BE4046EA0C06866046689B
:1012480026EA040C4E68C6F300169E4046EA0C06D1
:1012580046604E6806F0030CBCF1030F3FF46EAF16
:10126800C46825408C68BC402C43C4604C6814F0AA
:10127800805FA4D0224C256E45F001052566246EBA
:1012880004F001040194019C9D08AE1C1A4C54F80A
:10129800267003F00304A6000F24B44027EA0407CD
:1012A800B0F1904F3FF457AF164CA04216D004F55A
:1012B8008064A04214D004F58064A04212D004F5E2
:1012C8008064A04210D004F58064A0420ED004F5DA
:1012D8008064A0423FF43DAF07243DE701243BE78B
:1012E800022439E7032437E7042435E7052433E7E4
:1012F80002B0F0BC704700BF00000140000401408C
:101308000010024000040048024B186800F4C06056
:10131800704700BF00700040B0F5007F0FD01F4B32
:101328001B6803F4C063B3F5806F34D01B4A13689D
:1013380023F4C06343F48063136000207047174BA5
:101348001B6803F4C063B3F5007F22D0134A136807
:1013580023F4C06343F400731360114B1A683223FB
:1013680003FB02F30F4AA2FB03239B0C013300E0AB
:10137800013B0A4A526912F4806F01D0002BF7D161
:10138800064B5B6913F4806F01D10020704703207E
:101398007047002070470020704700BF0070004071
:1013A8002800002083DE1B4330B583B00546204B60
:1013B8009B6D13F0805F0BD0FFF7A6FFB0F5007FA1
:1013C80017D0802D1FD82DD0702D2DD000211BE0D7
:1013D800174CA36D43F08053A365A36D03F08053AE
:1013E8000193019BFFF790FFA36D23F08053A36542
:1013F800E4E7802D03D9A02D03D9022104E00021C0
:1014080002E0012100E003210A4A136823F00703E0
:101418000B431360136803F007038B4206D00120C7
:1014280003B030BD0221EFE70121EDE70020F7E727
:101438000010024000200240284A9368D26802F057
:10144800030213F00C030AD00C2B06D0042B1FD078
:10145800082B20D00020024610E0012AF6D11F4AAE
:10146800126812F0080F0CD11C4AD2F89420C2F36B
:1014780003221B4951F8222043B100200C2B0DD028
:101488007047164A1268C2F30312F2E71046F5E7EE
:1014980014480022F2E714480022EFE70F4BDB68FC
:1014A80003F00303022B15D0032B15D00B4BD86880
:1014B800C0F302100130D968C1F3062102FB01F222
:1014C800B2FBF0F2D868C0F3416001304000B2FBD3
:1014D800F0F0D5E7034AE9E7034AE7E700100240DE
:1014E800D03B00080024F400006CDC02002800F067
:1014F800D182F0B583B00446AD4B9D6805F00C056C
:10150800DE6806F00306036813F0100F5ED0E5B13D
:101518000C2D18D0A369002B00F0B880A44A1368DA
:1015280043F001031360FFF70DF80746A04B1B6853
:1015380013F0020F40F09780FFF704F8C01B022851
:10154800F4D90323B9E2012EE4D1994B1B6813F0B7
:10155800020F03D0A369002B00F09F82206A944BEE
:101568001B6813F0080F5ED0914B1B6803F0F00363
:1015780098425FD9FFF718FF002840F097828C4BFC
:101588001A6842F008021A601A6822F0F002216A0A
:101598000A431A605A6822F47F42E16942EA01224A
:1015A8005A60FFF749FF824B9B68C3F30313814AD4
:1015B800D35C03F01F03D8407F4B18607F4B18683B
:1015C800FEF77EFF0346002840F07782236813F079
:1015D800010F7AD0082D6FD00C2D6BD06368B3F54E
:1015E800803F00F09180B3F5A02F00F09380704BFE
:1015F8001A6822F480321A601A6822F480221A606B
:101608006368002B00F09380FEF79CFF0746684B49
:101618001B6813F4003F58D1FEF794FFC01B6428E1
:10162800F5D9032349E2624BD3F894301B0903F040
:10163800F0039DE75E4B1A6842F008021A601A68C8
:1016480022F0F002216A0A431A605A6822F47F42A3
:10165800E16942EA01225A60206AFFF7A5FE0028E4
:101668009FD0012329E2524B1A6842F008021A60FF
:101678001A6822F0F002216A0A431A605A6822F4B2
:101688007F42E16942EA01225A609FE7484A1368AB
:1016980023F001031360FEF755FF0746444B1B6810
:1016A80013F0020F92D0FEF74DFFC01B0228F5D9A8
:1016B800032302E2032E91D13D4B1B6813F4003F34
:1016C80003D06368002B00F0F381236813F0020F46
:1016D8004FD0042D3CD00C2D38D0E368002B78D0A7
:1016E800334A136843F480731360FEF72BFF0646F2
:1016F8002F4B1B6813F4806F62D1FEF723FF801B0A
:101708000228F5D90323D8E1294A136843F4803322
:10171800136075E703F18043A3F53C331A6842F47C
:1017280080221A601A6842F480321A6068E7FEF76D
:1017380009FF07461E4B1B6813F4003FC5D0FEF790
:1017480001FFC01B6428F5D90323B6E1022EC4D1DA
:10175800174B1B6813F4806F03D0E368002B00F06D
:10176800A981134A536823F0F853216943EA0163B6
:101778005360236813F0080F56D06369002B3CD0E0
:101788000B4AD2F8943043F00103C2F89430FEF7C4
:10179800D9FE0646064BD3F8943013F0020F43D116
:1017A800FEF7D0FE801B0228F4D9032385E100BF91
:1017B80000100240003C000828000020040000201F
:1017C800B74A536823F0F853216943EA0163536029
:1017D800CFE7B34A136823F480731360FEF7B2FEB1
:1017E8000646AF4B1B6813F4806FC2D0FEF7AAFE03
:1017F800801B0228F5D903235FE1A94AD2F8943067
:1018080023F00103C2F89430FEF79CFE0646A44B71
:10181800D3F8943013F0020F06D0FEF793FE801B26
:101828000228F4D9032348E1236813F0040F7AD07F
:101838009B4B9B6D13F0805F0BD1994B9A6D42F0D7
:1018480080529A659B6D03F080530193019B01269A
:1018580000E00026934B1B6813F4807F26D0A36812
:10186800012B37D0052B3DD08D4BD3F8902022F09B
:101878000102C3F89020D3F8902022F00402C3F8A4
:101888009020A368002B3BD0FEF75CFE0746844BF4
:10189800D3F8903013F0020F44D1FEF753FEC01B6B
:1018A80041F288339842F2D9032306E17D4A13684E
:1018B80043F480731360FEF745FE0746794B1B68B7
:1018C80013F4807FCBD1FEF73DFEC01B0228F5D96B
:1018D8000323F2E0724AD2F8903043F00103C2F8D1
:1018E8009030CEE76E4BD3F8902042F00402C3F854
:1018F8009020D3F8902042F00102C3F89020C0E76E
:10190800FEF720FE0746664BD3F8903013F0020F1F
:1019180008D0FEF717FEC01B41F288339842F2D96F
:101928000323CAE05EBBA36A002B00F0C5800C2D20
:1019380076D0022B29D05A4B1A6822F080721A608E
:101948001B6813F0205F04D1554AD36823F00303C2
:10195800D360534AD36823F0887323F48033D36069
:10196800FEF7F0FD04464E4B1B6813F0007F55D080
:10197800FEF7E8FD001B0228F5D903239DE0484A3D
:10198800936D23F080539365CDE7454A136823F0A0
:1019980080731360FEF7D6FD0546414B1B6813F0B4
:1019A800007F06D0FEF7CEFD401B0228F5D90323A1
:1019B80083E03B4AD3683C491940E36A206B01380D
:1019C80043EA0013606B43EA0023E06B40080138E8
:1019D80043EA4053206C4008013843EA4063A06B57
:1019E800000943EA40430B43D360136843F0807314
:1019F8001360D36843F08073D360FEF7A3FD0446F9
:101A0800274B1B6813F0007F06D1FEF79BFD001BD8
:101A18000228F5D9032350E000234EE000234CE0D0
:101A2800012B4DD01E4BDB6803F00301E26A9142A3
:101A380001D0012341E003F07002216B0139B2EBC0
:101A4800011F01D0012338E003F4FE42616BB2EBC1
:101A5800012F01D0012330E003F40031A26B073AD3
:101A680018BF0122914201D0012326E003F4C001EE
:101A7800E26B5208013AB1EB425F01D001231CE04E
:101A880003F0C063226C5208013AB3EB426F19D0DD
:101A9800012312E001231846704701230DE000BF1F
:101AA80000100240007000408C809DF9012304E082
:101AB800012302E0012300E00023184603B0F0BD33
:101AC8000123FAE70023F8E7002800F09B8070B5AF
:101AD80004464E4B1B6803F007038B420CD24B4A5B
:101AE800136823F007030B431360136803F007031D
:101AF8008B4201D0012070BD0D46236813F0010F01
:101B080039D06368032B09D0022B26D063BB404A27
:101B1800126812F0020F06D10120ECE73C4A126865
:101B280012F0007F70D03A498A6822F0030213430A
:101B38008B60FEF707FD0646354B9B6803F00C03E8
:101B48006268B3EB820F16D0FEF7FCFC801B41F2F3
:101B580088339842F0D90320CDE72D4A126812F451
:101B6800003FE0D10120C6E7294A126812F4806FCD
:101B7800D9D10120BFE7236813F0020F06D0244A09
:101B8800936823F0F003A1680B4393601F4B1B6815
:101B980003F00703AB420CD91C4A136823F0070370
:101BA8002B431360136803F00703AB4201D00120F5
:101BB800A1E7236813F0040F06D0154A936823F4AD
:101BC800E063E1680B439360236813F0080F07D0C4
:101BD8000F4A936823F46053216943EAC103936071
:101BE800FFF72AFC0A4B9B68C3F30313094AD35C2B
:101BF80003F01F03D840084B1860084B1868FEF71D
:101C08005FFC78E701207047012074E7002002405C
:101C180000100240003C00082800002004000020BA
:101C2800014B1868704700BF2800002008B5FFF76F
:101C3800F7FF054B9B68C3F30223044AD35C03F008
:101C48001F03D84008BD00BF00100240103C000828
:101C580008B5FFF7E5FF054B9B68C3F3C223044AA9
:101C6800D35C03F01F03D84008BD00BF001002403A
:101C7800103C0008F8B55A4BDB6813F0030F18D076
:101C8800574BDB6803F003030268934202D0012537
:101C98002846F8BD002A00F0A080514BDB68C3F34A
:101CA800021301334268934201D00125F0E7002571
:101CB8001AE00368022B59D0032B5ED0012B01D008
:101CC80001250FE0464A126812F0020F61D0444D18
:101CD800EA6822F073024468013C43EA04131343A0
:101CE800EB600025002DD3D10F4604463C4A13680B
:101CF80023F080631360FEF725FC0646384B1B680B
:101D080013F0006F05D0FEF71DFC801B0228F5D9E3
:101D18000325002DBCD1002F3DD131490B6923F497
:101D28001F3323F44073A068E2681209520442EAA0
:101D3800002213430B612A4A136843F0806313603F
:101D4800FEF700FC0646264B1B6813F0006F05D112
:101D5800FEF7F8FB801B0228F5D90325002D97D143
:101D68001F4A1369A1690B43136191E71C4A126862
:101D780012F4806FABD10125B4E7194A126812F446
:101D8800003FA4D1164A126812F4802F9FD1012572
:101D9800A8E70125A6E7012F0FD01148026922F014
:101DA800C06222F4FE42A16863695B08013B5B06DE
:101DB80043EA012313430361BDE70948026922F49A
:101DC800C00222F4FE42A16823695B08013B5B055F
:101DD80043EA012313430361ADE7012558E700BF38
:101DE80000100240F8B5514BDB6813F0030F18D010
:101DF8004E4BDB6803F003030268934202D00125CF
:101E08002846F8BD002A00F08E80484BDB68C3F3F3
:101E1800021301334268934201D00125F0E70025FF
:101E28001AE00368022B59D0032B5ED0012B01D096
:101E380001250FE03D4A126812F0020F61D03B4DB8
:101E4800EA6822F073024468013C43EA041313432E
:101E5800EB600025002DD3D10F460446334A1368A2
:101E680023F080531360FEF76DFB06462F4B1B686B
:101E780013F0005F05D0FEF765FB801B0228F5D93B
:101E88000325002DBCD1002F3DD128494B6923F4EF
:101E98001F3323F44073A068E2681209520442EA2F
:101EA800002213434B61214A136843F080531360A7
:101EB800FEF748FB06461D4B1B6813F0005F05D173
:101EC800FEF740FB801B0228F5D90325002D97D18A
:101ED800164A536961690B43536191E7134A1268C3
:101EE80012F4806FABD10125B4E7104A126812F4DE
:101EF800003FA4D10D4A126812F4802F9FD101250A
:101F0800A8E70125A6E70948426922F0C06222F441
:101F1800FE42A16823695B08013B5B0643EA012393
:101F280013434361BFE701256AE700BF0010024081
:101F38002DE9F04182B00446036813F4006F2FD0F6
:101F4800436EB3F5800F25D008D9B3F5000F10D034
:101F5800B3F5400F40F09980002610E0002B40F0C8
:101F6800948000210430FFF785FE06463EB13746CF
:101F780018E05E4AD36843F48033D36000265B4A96
:101F8800D2F8883023F44003616E0B43C2F88830DE
:101F9800002707E000212030FFF724FF0646E5E789
:101FA80000273E46236813F4805F15D0A36EB3F173
:101FB800807F7AD06CD9B3F1007F70D0B3F1407FC5
:101FC8007AD1002E7BD1494AD2F8883023F0407369
:101FD800A16E0B43C2F88830236813F4003F00F069
:101FE8008E80424B9B6D13F0805F6AD13F4B9A6D98
:101FF80042F080529A659B6D03F080530193019BD8
:102008004FF001083A4A136843F480731360FEF7EF
:1020180099FA0546364B1B6813F4807F05D1FEF705
:1020280091FA401B0228F5D90326002E62D12F4BC6
:10203800D3F8903013F4407316D0D4F884209A4221
:1020480012D02A4AD2F8903023F44073D2F8901074
:1020580041F48031C2F89010D2F8901021F4803108
:10206800C2F89010C2F8903013F0010F2CD1002E56
:1020780040F043811D4AD2F8903023F44073D4F8DD
:1020880084100B43C2F8903035E001273E4689E7BB
:1020980093B90021201DFFF7EDFD064691E7134A8D
:1020A800D36843F48033D3608BE7002104F1200028
:1020B800FFF798FE064684E701273E468CE7374639
:1020C8008AE74FF000089DE7FEF73CFA0546074B04
:1020D800D3F8903013F0020FC9D1FEF733FA401B42
:1020E80041F288339842F2D90326C0E70010024033
:1020F800007000403746B8F1000F40F000812368B7
:1021080013F0010F08D09D4AD2F8883023F003035A
:10211800A16B0B43C2F88830236813F0020F08D074
:10212800964AD2F8883023F00C03E16B0B43C2F8CF
:102138008830236813F0040F08D0904AD2F888300A
:1021480023F03003216C0B43C2F88830236813F066
:10215800080F08D0894AD2F8883023F0C003616C90
:102168000B43C2F88830236813F0100F08D0834A55
:10217800D2F8883023F44073A16C0B43C2F888303E
:10218800236813F0200F08D07C4AD2F8883023F453
:102198004063E16C0B43C2F88830236813F4007F76
:1021A80008D0764AD2F8883023F44023E16D0B43F7
:1021B800C2F88830236813F4806F08D06F4AD2F8C9
:1021C800883023F44013216E0B43C2F8883023680B
:1021D80013F0400F08D0694AD2F8883023F44053EE
:1021E800216D0B43C2F88830236813F0800F08D0A4
:1021F800624AD2F8883023F44043616D0B43C2F839
:102208008830236813F4807F08D05C4AD2F888307D
:1022180023F44033A16D0B43C2F88830236813F4CC
:10222800005F0FD0554AD2F8883023F04063E16E42
:102238000B43C2F88830E36EB3F1006F65D0B3F199
:10224800806F67D0236813F4002F0FD04B4AD2F861
:10225800883023F04063216F0B43C2F88830236F26
:10226800B3F1006F5ED0B3F1806F60D0236813F4D0
:10227800802F0FD0414AD2F8883023F04063616F35
:102288000B43C2F88830636FB3F1006F57D0B3F1D6
:10229800806F59D0236813F4804F0FD0374AD2F893
:1022A800883023F04053A16F0B43C2F88830A36FE6
:1022B800B3F1805F50D0B3F1005F55D0236813F4B9
:1022C800004F08D02D4AD2F8883023F08043E16FC0
:1022D8000B43C2F88830236813F4803F09D0274A9B
:1022E800D2F8883023F00043D4F880100B43C2F8AA
:1022F8008830384602B0BDE8F0813746FBE61F4A11
:10230800936D23F080539365F9E6D36843F4801303
:10231800D36097E70121201DFFF7ACFC002891D07E
:1023280007468FE7D36843F48013D3609EE7012103
:10233800201DFFF79FFC002898D0074696E7D36832
:1023480043F48013D360A5E70121201DFFF792FC19
:1023580000289FD007469DE70221201DFFF78AFC31
:102368000028ABD00746A9E7022104F12000FFF7B7
:1023780039FD0028A2D00746A0E700BF00100240A0
:102388002DE9F048044601688368026913434269ED
:102398001343C26913430868A24A024013430B60FF
:1023A8002268536823F44053E1680B435360A169E2
:1023B80022689D4B9A4201D0236A1943936823F4FB
:1023C80030630B4393602368984A934227D0984A16
:1023D800934238D0974A93424ED0974A934261D05D
:1023E800964A934274D0904A934200F08A8010250E
:1023F8008D4A934200F0AA80E369B3F5004F00F0DC
:102408003581082D00F2BF81DFE815F07F019501C5
:102418009F01BD01AA01BD01BD01BD01B40102F5C5
:102428005842D2F8882002F00302032A09D8DFE8CC
:1024380002F0020481060125DAE70425D8E7082519
:10244800D6E71025D4E702F5E632D2F8882002F064
:102458000C020C2A0ED8DFE802F0070D0D0D090D4D
:102468000D0D6F0D0D0D0B000025C1E70425BFE70D
:102478000825BDE71025BBE702F5E432D2F888202D
:1024880002F03002102A09D005D9202A56D0302A65
:1024980006D10825ACE71AB90025A9E70425A7E75E
:1024A8001025A5E702F5E232D2F8882002F0C00232
:1024B800402A09D005D9802A42D0C02A06D1082549
:1024C80096E71AB9002593E7042591E710258FE7C9
:1024D80002F5E032D2F8882002F44072B2F5807F2B
:1024E8000BD007D9B2F5007F2CD0B2F5407F06D1CA
:1024F80008257DE71AB900257AE7042578E710252D
:1025080076E702F5C832D2F8882002F44062B2F5C4
:10251800806F0BD007D9B2F5006F15D0B2F5406FB8
:1025280006D1082564E71AB9002561E704255FE7A5
:1025380010255DE702255BE7022559E7022557E7E5
:10254800022555E7022553E7022551E7082D00F239
:102558001D81DFE815F00C001B0114001B011100A0
:102568001B011B011B0109004FF4004008E0FFF7A5
:102578005DFB28B90020D9E0FEF75EFFF9E7304897
:10258800626802EB4203834200F20281B0EB023F31
:1025980000F20081082D66D8DFE805F005652065A2
:1025A800306565655800FFF741FB0025070E0602F8
:1025B800626850082B4616EB000B47F1000C584692
:1025C8006146FDF7FDFD03462846A3F540711D4A07
:1025D800914200F2E1802268D360A7E05608002506
:1025E8002B46DFF864B04FF0000C1BEB06004CF1F3
:1025F8000001FDF7E5FD03462846E6E7FEF71CFF68
:102608000025070E0602626850082B4616EB000BE1
:1026180047F1000C58466146FDF7D2FD03462846AF
:10262800D3E700BFF369FFEF0080004000380140A6
:102638000044004000480040004C0040005000406A
:102648000024F400FFFC0F00000024F450080027C9
:1026580000252B4610F5000047F10001FDF7B0FDFD
:1026680003462846B1E701200023AEE7082D49D8E4
:10267800DFE805F0051E2948344848483F00FFF7C1
:10268800D5FA6268530803EB4003B3FBF2F39BB23D
:102698000020A3F110014FF6EF7291427ED89AB252
:1026A80022F00F02C3F3420313432268D3603DE0D4
:1026B800FFF7CEFA6268530803EB4003B3FBF2F36B
:1026C8009BB20020E5E76268530803F1F47303F551
:1026D8009043B3FBF2F39BB20020DAE7FEF7ACFEBF
:1026E8006268530803EB4003B3FBF2F39BB200208C
:1026F800CFE76268530803F58033B3FBF2F39BB26C
:102708000020C6E701200023C3E7FFF78FFA6368BC
:1027180000EB5302B2FBF3F292B20020A2F11001D7
:102728004FF6EF7399423BD82368DA60002222669D
:102738006266BDE8F088FFF78BFA636800EB530226
:10274800B2FBF3F292B20020E8E763685A0802F598
:10275800740202F51052B2FBF3F292B20020DDE7E8
:10276800FEF76AFE636800EB5302B2FBF3F292B223
:102778000020D3E763685A0802F50042B2FBF3F27F
:1027880092B20020CAE701200022C7E70120CDE766
:102798000120CBE70120C9E70120C7E70120C5E7F1
:1027A8000120C3E7436A13F0010F06D0026853689B
:1027B80023F40033816A0B435360436A13F0020F1A
:1027C80006D00268536823F48033C16A0B43536010
:1027D800436A13F0040F06D00268536823F4802379
:1027E800016B0B435360436A13F0080F06D002686D
:1027F800536823F40043416B0B435360436A13F05F
:10280800100F06D00268936823F48053816B0B4342
:102818009360436A13F0200F06D00268936823F48C
:102828000053C16B0B439360436A13F0400F0AD007
:102838000268536823F48013016C0B435360036CE4
:10284800B3F5801F0BD0436A13F0800F06D00268DF
:10285800536823F40023816C0B435360704702686C
:10286800536823F4C003416C0B435360EBE72DE935
:10287800F04105460F4616469846069C2B68DB69CC
:1028880037EA03030CBF01230023B3421CD1B4F180
:10289800FF3FF3D0FDF756FEA0EB0800A04201D899
:1028A800002CEBD12A68136823F4D07313602A68CC
:1028B800936823F00103936020236B67AB670023C1
:1028C80085F87030032000E00020BDE8F0812DE994
:1028D800F04182B01E46436F202B55D104460D4669
:1028E8009046002955D0002A55D090F87030012B19
:1028F80053D0012380F870300023C3672123436736
:10290800FDF720FE0746A4F85080A4F85280A3687B
:10291800B3F5805F02D04FF0000813E0236913B1CC
:102928004FF000080EE0A84600250BE038F8023BFF
:102938002268C3F308031385B4F85230013B9BB2F5
:10294800A4F85230B4F852309BB273B100963B46AB
:10295800002280212046FFF78AFF00BB002DE5D02A
:10296800236815F8012B1A85E6E700963B460022F6
:1029780040212046FFF77BFF034690B9202262677B
:10298800002284F8702000E00223184602B0BDE857
:10299800F0810123F9E70123F7E70223F5E7032391
:1029A800F3E70323F1E72DE9F04383B01E46836F75
:1029B800202B7AD104460D469046002979D0002A6A
:1029C80079D090F87030012B77D0012380F87030DF
:1029D8000023C36722238367FDF7B4FD0746A4F8E5
:1029E8005880A4F85A80A368B3F5805F06D0A3B9CD
:1029F800226972B9FF22A4F85C2014E0226922B986
:102A080040F2FF12A4F85C200DE0FF22A4F85C203D
:102A180009E07F22A4F85C2005E0B3F1805F0AD0CA
:102A28000022A4F85C20B4F85C80B3F5805F0CD079
:102A38004FF000091DE022691AB97F22A4F85C2032
:102A4800F1E73F22A4F85C20EDE7236913B14FF0CA
:102A580000090EE0A94600250BE023689B8C08EAD4
:102A6800030329F8023BB4F85A30013B9BB2A4F89F
:102A78005A30B4F85A309BB28BB100963B460022CC
:102A880020212046FFF7F3FEC8B9002DE5D02368C2
:102A98009A8C5FFA88F3134005F8013BE3E720239B
:102AA800A367002084F8700000E0022003B0BDE8AE
:102AB800F0830120FAE70120F8E70220F6E7032077
:102AC800F4E730B583B004460023C367FDF73AFD49
:102AD800054623681B6813F0080F0CD123681B6890
:102AE80013F0040F15D120236367A367002084F82F
:102AF800700003B030BD6FF07E43009303460022A0
:102B08004FF400112046FFF7B2FE0028E6D003205C
:102B1800EFE76FF07E4300932B4600224FF48001CD
:102B28002046FFF7A4FE0028DDD00320E1E768B3C4
:102B380010B50446436F03B3242363672268136800
:102B480023F0010313602046FFF71AFC012813D075
:102B5800636ABBB92268536823F4904353602268C0
:102B6800936823F02A0393602268136843F00103F3
:102B780013602046FFF7A5FF10BD80F8703000F005
:102B880037FCD9E72046FFF70DFEE3E70120704741
:102B9800F0B400273D460F4B3C4601E000250134C8
:102BA800092C14D8B1FBF3F605F1010C06F130023B
:102BB800D2B2425503FB1611074DA5FB0353DB08A0
:102BC800302A08BF002FE9D001376546E7E7F0BC97
:102BD800704700BF00CA9A3BCDCCCCCC70B4054638
:102BE8000378302B03D000242046234650E0437856
:102BF800782B2DD0582B2ED000242046234647E092
:102C08002401A3F13006F6B2092E1BD8303B1C4430
:102C180001320A2A10D8AB5C73B1A3F14100C0B2EB
:102C28000528EDD9A3F16106F6B2052EE8D9A3F17E
:102C38003006F6B2092EE3D9AB5C002B37D10C6015
:102C4800012035E0052801D8373BE0E7573BDEE7B0
:102C580000240222DDE700240222DAE76B2A11D0E1
:102C68004B2A0FD06D2A1CD04D2A1AD0A2F130065B
:102C7800F6B2092E1CD804EB840466003244A2F193
:102C8800300404E0002BEDD0A4020C6001200133D5
:102C98000A2B0DD860B9EA5C002ADFD10C6001204C
:102CA800F5E7002BE2D024050C600120EFE70020B7
:102CB80070BC704708B50146002201E0013292B2AB
:102CC8008B5C002BFAD164230148FFF700FE08BD96
:102CD8007800002000B583B08DF80700084B9B6F83
:102CE800A02B09D0642301220DF107010448FFF746
:102CF800EEFD03B05DF804FB014B20229A67F1E773
:102D08007800002008B5FDF7C1FD034B48F2910299
:102D18001A61FDF7D3FD08BD0020024010B586B04A
:102D2800044600230593FDF7B1FD1D4B1B6899B2BE
:102D38004FF6FF7291422DD01A4800EA832000F125
:102D48000060001BC00AB0F5807F10D901230293F0
:102D5800C0B20490C0F5807003900023019305A9C8
:102D680001A8FEF769F9044670B94FF48070022390
:102D780002930490C0F5807003900023019305A985
:102D880001A8FEF759F90446FDF798FD2CB9002073
:102D980006B010BD4FF00160D3E70120F8E700BF8F
:102DA800E075FF1F00FCFF032DE9F041044688464B
:102DB8001746FDF76BFD0025B5EB570F1CD2114BDD
:102DC8009C4213D808EBC506D6E90023214600200B
:102DD800FDF7D8FD60B9D4E90023D6E900018B429C
:102DE80008BF824206D108340135E5E7002404E033
:102DF800032402E0022400E00024FDF75FFD2046E2
:102E0800BDE8F081F8FF0F0800B5A9B0FDF73EFD59
:102E180000231F930123259315931B9302230B93E0
:102E280011930422019207931EA8FEF78BF814A8A9
:102E3800FEF788F80AA8FEF785F86846FEF782F8D4
:102E4800FDF73CFD269B279A9A4204D9264A9342CD
:102E580045D8002000E000201D991C9A914204D911
:102E6800214A934201D940F00100209B219A9A42BD
:102E780007D903F580331D4AB2EBC32F01D240F0C6
:102E88000200169B179A9A4207D903F58033174A0E
:102E9800B2EBC32F01D240F002000C9B0D9A9A426C
:102EA80009D903F5803303F58073104AB2EBC32FB9
:102EB80001D240F00200029B039A9A4209D903F515
:102EC800803303F58073094AB2EBC32F01D240F077
:102ED8000200049B012B04D029B05DF804FB0120FB
:102EE800BAE740F00400F7E700800008FF7F000819
:102EF80070B58AB00546FDF7C9FC0446FDF7E8FC45
:102F08000443E4B20123009300230193002D35D13B
:102F1800FF230393002302936846FDF7C9FF044388
:102F2800E4B201260096019600230393FF2302933F
:102F38006846FDF7BDFF0443E4B2009602230193FF
:102F48000DBBFF230393002302936846FDF7B0FFF0
:102F58000443E4B2AA2304930123009304230193B6
:102F680000230393FF2302936846FDF7A1FF204344
:102F780010F0FF0F0CD100200AB070BD002303939E
:102F8800FF230293C8E700230393FF230293DCE7A0
:102F98000420F1E782B00A4BDA6C42F08002DA646E
:102FA800DA6C02F080020092009ADA6C42F00802B1
:102FB800DA64DB6C03F008030193019B02B07047ED
:102FC8000010024008B50948094B0360012303714A
:102FD80041F2210282600822C2604371002202612C
:102FE800426182610362FDF789FB08BD540000203D
:102FF8000030024008B50948094B03604FF4E1333B
:10300800436000238360C36003610C2242618361D3
:10301800C36103624362FFF78AFD08BD78000020A0
:103028000044004070B5B8B02422002128A800F060
:10303800B7FD00242294239424942594269488226E
:103048002146684600F0ACFD022527954FF48073B1
:103058002A9310232B93319532950123339314230C
:1030680034930723359336950426379627A8FEF719
:103078003DFA0F2322930323239324942594269423
:10308800314622A8FEF720FD00950F946846FEF70A
:103098004FFF4FF40070FEF73FF938B070BD08B528
:1030A800FDF734FAFFF7BEFFFFF774FFFFF78AFF5B
:1030B800FFF728FEFFF79EFF00F08AF8FEE7000002
:1030C80010B584B0002301930293CDF80B3004AC03
:1030D80044F8103D1A48FFF7EDFD204600F0BCFA11
:1030E80050B105281FD0042821D0022823D0154824
:1030F800FFF7E0FD04B010BD1348FFF7DBFD1348F0
:10310800FFF7D8FD009901A8FFF742FD1048FFF727
:10311800D1FD01A8FFF7CEFD0E48FFF7CBFD0E4805
:10312800FFF7C8FDE6E70D48FFF7C4FDE2E70C48E6
:10313800FFF7C0FDDEE70B48FFF7BCFDDAE700BF8D
:10314800183C00084C3D0008543C000800010020D1
:10315800A83C0008B43C0008C03C0008D83C000863
:10316800183D0008343D000810B582B002AC0023B9
:1031780004F8013D1048FFF79DFD4FF0FF33012291
:1031880021460E48FFF70FFC9DF80730432B01D06E
:1031980002B010BD4FF4405209490A4800F066FBDE
:1031A8008DF8070018B90848FFF784FDF0E70748CD
:1031B800FFF780FDECE700BF6C3D000878000020B9
:1031C800883D000800800008CC3D0008A03D0008AC
:1031D80000B583B000238DF80730524C2046FFF726
:1031E80069FD5148FFF766FD504D2846FFF762FD1F
:1031F8004F48FFF75FFD2846FFF75CFD4D48FFF796
:1032080059FD2046FFF756FD4B48FFF753FDFFF7E2
:10321800FBFD4A4B18600CE04948FFF74BFD494855
:10322800FFF748FDFEE74848FFF744FD19E0FFF7C0
:1032380047FF4648FFF73EFD4548FFF73BFD454839
:10324800FFF738FD4448FFF735FD3C4B1B68002B62
:10325800E9D04248FFF72EFD384B1B6813F0050FE5
:10326800DAD13F48FFF726FD3E4803681A8B42F043
:1032780008021A831A8B42F010021A834FF0FF33A8
:1032880001220DF10701FFF78EFB9DF80730313B56
:10329800032B42D801A252F823F000BF37320008AE
:1032A800B5320008BB320008D9320008FFF75CFFCE
:1032B800BFE72D48FFF7FEFC2C4B1B682C4A136018
:1032C8002C4A13602C4A126882F308889847B0E7A2
:1032D8001A4B1B6883B10120FFF70AFE40B9274843
:1032E800FFF7E8FC2648FFF7E5FCFDF7A3FBA0E79E
:1032F8002448FFF7DFFC9CE70020FFF7F9FD40B901
:103308002148FFF7D7FC1E48FFF7D4FCFDF792FBD6
:103318008FE71E48FFF7CEFC8BE71D48FFF7CAFC76
:1033280087E700BFEC3D0008383E0008843E0008EF
:10333800D03E00081C3F0008683F00084C000020F1
:10334800B0400008EC40000828410008703F000821
:10335800B03F0008F03F0008304000087040000807
:103368006841000878000020A8410008048000088F
:10337800F8000020FC00002000800008CC41000874
:10338800EC4100080C4200083C4200085C4200087E
:103398008842000882B00A4B1A6E42F001021A668F
:1033A8001A6E02F001020092009A9A6D42F0805261
:1033B8009A659B6D03F080530193019B02B070479F
:1033C800001002400268094B9A4200D0704782B050
:1033D800A3F500539A6C42F480529A649B6C03F4F0
:1033E80080530193019B02B0704700BF0030024038
:1033F80000B589B0002303930493059306930793BC
:103408000268134B9A4202D009B05DF804FB03F539
:10341800E6339A6D42F400329A659A6D02F40032EE
:103428000192019ADA6C42F00802DA64DB6C03F06C
:1034380008030293029B602303930223049303234C
:1034480006930723079303A90248FDF773FEDBE7FA
:1034580000440040000C00487047FEE7FEE7FEE726
:10346800FEE770477047704708B5FDF75FF808BD7D
:103478000F49D1F8883043F47003C1F888300D4BF8
:103488001A6842F001021A60002098601A6822F057
:10349800A85222F410221A604FF48052DA601A6897
:1034A80022F480221A6098614FF000638B607047A5
:1034B80000ED00E00010024030B4B3F5806F0DD38A
:1034C800B3F5806F28BF4FF4806302244C704FF42B
:1034D80080658A70D243CA7004240AE0802B28BF12
:1034E800802301244C708025F3E702780A550134C3
:1034F80001301A1DA242F8D89D4203D205E01A23D2
:103508008B5401322B1D9342F9D830BC7047000010
:103518002DE9F04182B080460C46174600230B6027
:10352800134601220DF107013348FFF73CFA06461E
:10353800002859D19DF80730042B1CD006D8012B40
:103548003AD0022B35D14FF4806515E0412B2DD0B0
:10355800612B2BD0182B2CD13B4601220DF10701F2
:103568002548FFF720FA48BB9DF80730182B28D0CC
:103578000126002500E000259DF8073088F8003076
:103588007F2D32D93B462A1D08F102011A48FFF760
:103598000AFA064670BB98F8022098F80330DB4315
:1035A800DBB29A420FD0012600251EE00226002534
:1035B800E2E701260025DFE78025DDE70126002573
:1035C800DAE70225D8E708EB05031A795F7907EBF4
:1035D80002272A4608F104010848FDF7CFF8B84247
:1035E80003D00126002500E000252560304602B002
:1035F800BDE8F0810025F8E778000020540000209D
:1036080070B584B005460123437000248470FF23FD
:10361800C37002E0201D2B5401340B5D0BB13F2C0D
:10362800F8D9231D0026EE54114601A8FFF7B0FA79
:103638000534334604AA1A4412F80C2C1AB1013383
:103648002A550134F6E7832C03D800232B5501347F
:10365800F9E704B070BD00002DE9F04F89B083464A
:103668000024DFF8F8A1A1462646A046B8F1000FCD
:1036780040F0DB80002C40F0D88045460027AFE0C2
:103688006F48FFF717FB4FF4FA70FCF761FF079BD1
:1036980073B1022B19D10620FFF71CFB6948FFF70D
:1036A80009FB4FF4FA70FCF753FF2E46022497E00B
:1036B8000620FFF70FFB6448FFF7FCFA4FF4FA7097
:1036C800FCF746FF2E4601258AE06048FFF7F2FA2C
:1036D8004FF4FA70FCF73CFF5D4B9B78BB4208D176
:1036E800002F61D15A4B1B79002B56D02A46594BD3
:1036F80008E01520FFF7EEFA2E4671E00133564830
:1037080081540132197809B13F2AF7D9524900206A
:10371800885401332A4605E0013308A8104400F80C
:10372800181C01321978202901D00F2AF4D908ABC6
:103738001A44002302F8183C06A902A8FFF74EFA1B
:10374800DBF8002043F201039A4211D84348FFF7FF
:10375800E5FA069BCBF800300620FFF7BBFA4320BA
:10376800FFF7B8FA0137FFB22E464FF0010937E0EC
:1037780008AC182304F8193D394E4FF48013012280
:1037880021463046FFF7A3F84FF480130122214663
:103798003046FFF79CF80524D8E70620FFF79AFA89
:1037A8002E460125A8461BE0079A9208294950464B
:1037B800FFF7FAFA28B9079B9A440620FFF78AFA16
:1037C800D0E71820FFF786FA1820FFF783FA0424B9
:1037D800C8E71820FFF77EFA1820FFF77BFA0224C3
:1037E800002D7FF443AF002C7FF440AF1D48FFF756
:1037F80061FA4FF47A7207A91548FFF789FE002885
:103808003FF43EAF0228E4D0B9F1000F00D00136F2
:10381800052E06D91820FFF75DFA1820FFF75AFA87
:10382800DEE74320FFF756FADAE70F48FFF742FAD8
:103838004FF4FA70FCF78CFE204609B0BDE8F08F13
:10384800D8420008E8420008F84200080843000887
:1038580040010020440100200001002000800008F1
:1038680078000020C8420008184300082DE9F04FEE
:1038780085B0019091469F48FFF7C2FE4FF00008BF
:103888004646474604E00136042E01D94FF00108A8
:10389800002F40F09980B8F1000F42D1964D974C17
:1038A8004FF48013832229462046FFF710F8802220
:1038B800E91C9348FCF762FF0546C0F30720FFF7B1
:1038C80009FAE8B2FFF706FA4FF48013012203A9B8
:1038D8002046FFF768F80028D5D19DF80C30062B54
:1038E8001DD0182BD0D14FF48013012203A92046F4
:1038F800FFF759F80028C7D19DF80C30182BC3D111
:103908000220FCF725FE23681A8B42F008021A836E
:103918001A8B42F010021A834FF00208B4E701270D
:10392800B2E74FF0010B50E0802516E0019B2B44D5
:103938000193D1464FF0010A00E00134042C01D96B
:103948004FF00108BAF1000F3FD1B8F1000F3CD198
:10395800B9F5806FE8D34FF48065674F674E4FF431
:103968008013EA1C39463046FEF7B1FF2A46F91C97
:103978006348FCF703FF0746C0F30720FFF7AAF9DF
:10398800F8B2FFF7A7F94FF48013012203A93046D4
:10399800FFF709F80028D0D19DF80C30062BCCD1C0
:1039A800A945C3D9019B2B440193A9EB0509BBF198
:1039B8000C0F04D00BF1010B4FF0010ABEE74FF0DA
:1039C80005084FF0010AB9E7BB46B9F1000F0ED060
:1039D800B8F1000F0BD14B465FFA8BF245490198BD
:1039E800FFF76AFD00248DF80C40A246AAE70024E0
:1039F8008DF80C402546464603E00134042C00D9D6
:103A0800012685BB7EBB0420FFF764F94FF48013C1
:103A1800012203A93948FEF7C6FF0028EDD19DF819
:103A28000C30062B1DD0182BE8D14FF4801301223F
:103A380003A93248FEF7B7FF0028DFD19DF80C3004
:103A4800182BDBD10220FCF783FD2C4B1B681A8B4B
:103A580042F008021A831A8B42F010021A830226D7
:103A6800CCE70125CAE7B0468EBB224B01225A702B
:103A780000229A70FF22DA70042304E01D4A002114
:103A8800D1540133DBB2832BF8D91B4D1B4C4FF4B7
:103A98008013832229462046FEF719FF8022E91C5D
:103AA8001748FCF76BFE0546C0F30720FFF712F92D
:103AB800E8B2FFF70FF94FF48013012203A920465B
:103AC800FEF771FF18B99DF80C30182B03D040464B
:103AD80005B0BDE8F08F0220FCF73AFD23681A8B89
:103AE80042F008021A831A8B42F010021A834FF030
:103AF8000208ECE740010020410100207800002086
:103B080054000020DFF834D0002103E00C4B5B5850
:103B1800435004310B480C4B42189A42F6D30B4AD7
:103B280002E0002342F8043B094B9A42F9D3FFF71D
:103B38009FFC00F011F8FFF7B2FAFEE700800120C1
:103B4800484300080000002030000020300000201A
:103B580048050020FEE7000070B50D4E0D4CA41B73
:103B6800A4100025A54209D10B4E0C4C00F020F8FA
:103B7800A41BA4100025A54205D170BD56F8253018
:103B880098470135EEE756F8253098470135F2E7B2
:103B98003843000838430008384300083C4300080D
:103BA80002440346934200D1704703F8011BF9E72A
:103BB800F8B500BFF8BC08BC9E467047F8B500BF12
:083BC800F8BC08BC9E467047E2
:103BD000A0860100400D0300801A060000350C008D
:103BE00040420F0080841E0000093D0000127A0050
:103BF0000024F40000366E010048E801006CDC028D
:103C0000000000000000000001020304060708098C
:103C1000000000000102030457616974696E6720A7
:103C2000666F72207468652066696C6520746F2009
:103C300062652073656E74202E2E2E2028707265AA
:103C400073732027612720746F2061626F7274295B
:103C50000A0D00000A0A0D2050726F6772616D6DC7
:103C6000696E6720436F6D706C6574656420537571
:103C7000636365737366756C6C79210A0D2D2D2D48
:103C80002D2D2D2D2D2D2D2D2D2D2D2D2D2D2D2D64
:103C90002D2D2D2D2D2D2D2D2D2D2D2D2D0D0A20A4
:103CA0004E616D653A2000000A0D2053697A653A2D
:103CB000200000002042797465730D0A00000000A6
:103CC0002D2D2D2D2D2D2D2D2D2D2D2D2D2D2D2D24
:103CD0002D2D2D0A000000000A0A0D546865206988
:103CE0006D6167652073697A65206973206869670B
:103CF000686572207468616E2074686520616C6C00
:103D00006F776564207370616365206D656D6F7298
:103D100079210A0D000000000A0A0D5665726966D5
:103D200069636174696F6E206661696C6564210AFC
:103D30000D0000000D0A0A41626F72746564206212
:103D40007920757365722E0A0D0000000A0D466118
:103D5000696C656420746F2072656365697665209F
:103D60007468652066696C65210A0D000A0A0D53A6
:103D7000656C656374205265636569766520466984
:103D80006C650A0D0000000055706C6F616465641D
:103D9000466C617368496D6167652E62696E0000EB
:103DA0000A0D4572726F72204F636375727265649B
:103DB000207768696C65205472616E736D697474E4
:103DC000696E672046696C650A0D00000A0D466938
:103DD0006C652075706C6F616465642073756363D6
:103DE00065737366756C6C79200A0D000D0A3D3D94
:103DF0003D3D3D3D3D3D3D3D3D3D3D3D3D3D3D3DF3
:103E00003D3D3D3D3D3D3D3D3D3D3D3D3D3D3D3DE2
:103E10003D3D3D3D3D3D3D3D3D3D3D3D3D3D3D3DD2
:103E20003D3D3D3D3D3D3D3D3D3D3D3D3D3D3D3DC2
:103E30003D3D3D3D000000000D0A3D20202020209A
:103E400020202020202020202028432920434F50BC
:103E500059524947485420323031352053544D6926
:103E600063726F656C656374726F6E696373202033
:103E70002020202020202020202020202020203D25
:103E8000000000000D0A3D202020202020202020BE
:103E90002020202020202020202020202020202022
:103EA0002020202020202020202020202020202012
:103EB0002020202020202020202020202020202002
:103EC00020202020202020202020203D0000000055
:103ED0000D0A3D202053544D33324C34787820491C
:103EE0006E2D4170706C69636174696F6E205072E1
:103EF0006F6772616D6D696E67204170706C696388
:103F00006174696F6E20202856657273696F6E2028
:103F1000312E302E3029203D000000000D0A3D20BA
:103F20002020202020202020202020202020202091
:103F30002020202020202020202020202020202081
:103F400020204279204D4344204170706C696361A8
:103F500074696F6E205465616D2020202020202020
:103F60002020203D000000000D0A0D0A0000000086
:103F70000D0A3D3D3D3D3D3D3D3D3D3D3D3D3D3DD4
:103F80003D3D3D3D3D204D61696E204D656E752086
:103F90003D3D3D3D3D3D3D3D3D3D3D3D3D3D3D3D51
:103FA0003D3D3D3D3D3D3D3D3D3D3D3D0D0A0A0014
:103FB0002020446F776E6C6F616420696D61676566
:103FC00020746F2074686520696E7465726E616C10
:103FD00020466C617368202D2D2D2D2D2D2D2D2D1E
:103FE0002D2D2D2D2D2D2D2D20310D0A0A000000F7
:103FF000202055706C6F616420696D616765206673
:10400000726F6D2074686520696E7465726E616C84
:1040100020466C617368202D2D2D2D2D2D2D2D2DDD
:104020002D2D2D2D2D2D2D2D20320D0A0A000000B5
:1040300020204578656375746520746865206C6F11
:1040400061646564206170706C69636174696F6E2E
:10405000202D2D2D2D2D2D2D2D2D2D2D2D2D2D2D9D
:104060002D2D2D2D2D2D2D2D20330D0A0A00000074
:10407000202044697361626C6520746865207772E2
:104080006974652070726F74656374696F6E202D3A
:104090002D2D2D2D2D2D2D2D2D2D2D2D2D2D2D2D50
:1040A0002D2D2D2D2D2D2D2D20340D0A0A00000033
:1040B00020205468652077726974652070726F746F
:1040C000656374696F6E2064697361626C652077E3
:1040D000696C6C20657261736520616C6C2074681A
:1040E0006520666C6173680D0A0000002020506C2A
:1040F00065617365207573652053546C696E6B2020
:104100007574696C69747920746F20646973616275
:104110006C65207468652070726F74656374696F74
:104120006E20200D0A0A00002020456E61626C6539
:10413000207468652077726974652070726F746589
:104140006374696F6E202D2D2D2D2D2D2D2D2D2D70
:104150002D2D2D2D2D2D2D2D2D2D2D2D2D2D2D2D8F
:1041600020340D0A0A0000003D3D3D3D3D3D3D3DF2
:104170003D3D3D3D3D3D3D3D3D3D3D3D3D3D3D3D6F
:104180003D3D3D3D3D3D3D3D3D3D3D3D3D3D3D3D5F
:104190003D3D3D3D3D3D3D3D3D3D3D3D3D3D3D3D4F
:1041A0003D3D0D0A0A000000537461727420707264
:1041B0006F6772616D20657865637574696F6E2EC7
:1041C0002E2E2E2E2E0D0A0A000000005772697442
:1041D000652050726F74656374696F6E20646973D3
:1041E00061626C65642E2E2E0D0A00005379737483
:1041F000656D2077696C6C206E6F772072657374C3
:104200006172742E2E2E0D0A000000004572726F2E
:10421000723A20466C617368207772697465207504
:104220006E2D70726F74656374696F6E206661695C
:104230006C65642E2E2E0D0A000000005772697402
:10424000652050726F74656374696F6E20656E616E
:10425000626C65642E2E2E0D0A0000004572726F8E
:10426000723A20466C6173682077726974652070B9
:10427000726F74656374696F6E206661696C6564E2
:104280002E2E2E0D0A000000496E76616C696420A6
:104290004E756D6265722021203D3D3E205468655B
:1042A000206E756D6265722073686F756C64206234
:1042B000652065697468657220312C20322C2033AA
:1042C000206F7220340D00000A0A0D206A756D708F
:1042D000696E6720300000000A0A0D206A756D7053
:1042E000696E6720310000000A0A0D206A756D7042
:1042F000696E6720320000000A0A0D206A756D7031
:10430000696E6720330000000A0A0D206A756D701F
:10431000696E6720340000000A0A0D206A756D700E
:10432000696E6720646F6E65000000000000000089
:08433000C8BEFF7F0100000080
:08433800AD01000800000000C7
:084340008901000800000000E3
:104348000100000010000000000000000000000054
:104358000000000000000000010000000000000054
:10436800000000000000000000093D0000000000FF
:0400000508003B0DA7
:00000001FF
