:020000040800F2
:10000000000002204D3D00089D3D00089D3D000878
:100010009D3D00089D3D00089D3D0008000000003A
:100020000000000000000000000000009D3D0008EE
:100030009D3D0008000000009D3D00089D3D00081A
:100040009D3D00089D3D00089D3D00089D3D000828
:10005000000000009D3D00089D3D00089D3D0008FA
:100060009D3D00089D3D00089D3D00089D3D000808
:100070009D3D00089D3D00089D3D00089D3D0008F8
:100080009D3D00089D3D00089D3D00089D3D0008E8
:100090009D3D00089D3D00089D3D00089D3D0008D8
:1000A0009D3D00089D3D00089D3D00089D3D0008C8
:1000B0009D3D00089D3D00089D3D00089D3D0008B8
:1000C0009D3D00089D3D00089D3D00089D3D0008A8
:1000D0009D3D00089D3D00089D3D00089D3D000898
:1000E0009D3D00089D3D00089D3D00089D3D000888
:1000F0009D3D00089D3D00089D3D00089D3D000878
:100100009D3D00089D3D00089D3D00089D3D000867
:100110009D3D00089D3D00089D3D00089D3D000857
:100120009D3D00089D3D00089D3D00089D3D000847
:100130009D3D00089D3D00089D3D00089D3D000837
:100140009D3D00089D3D00089D3D00089D3D000827
:100150009D3D00089D3D00089D3D00089D3D000817
:100160009D3D00089D3D00089D3D00089D3D000807
:100170009D3D00089D3D00089D3D00089D3D0008F7
:100180009D3D00089D3D00080000000000000000AB
:10019000000000000000000000000000000000005F
:0801A0009D3D00089D3D000893
:1001A80010B5054C237833B9044B13B10448AFF3A9
:1001B80000800123237010BD6404002000000000AB
:1001C8007840000808B5034B1BB103490348AFF357
:1001D800008008BD00000000680400207840000886
:1001E80081F0004102E000BF83F0004330B54FEAE0
:1001F80041044FEA430594EA050F08BF90EA020F4D
:100208001FBF54EA000C55EA020C7FEA645C7FEADF
:10021800655C00F0E2804FEA5454D4EB5555B8BF02
:100228006D420CDD2C4480EA020281EA030382EA73
:10023800000083EA010180EA020281EA0303362D05
:1002480088BF30BD11F0004F4FEA01314FF4801CD8
:100258004CEA113102D0404261EB410113F0004FEA
:100268004FEA03334CEA133302D0524263EB4303A1
:1002780094EA050F00F0A780A4F10104D5F1200E3F
:100288000DDB02FA0EFC22FA05F2801841F100019A
:1002980003FA0EF2801843FA05F359410EE0A5F16E
:1002A80020050EF1200E012A03FA0EFC28BF4CF09F
:1002B800020C43FA05F3C01851EBE37101F0004555
:1002C80007D54FF0000EDCF1000C7EEB00006EEB62
:1002D8000101B1F5801F1BD3B1F5001F0CD34908EC
:1002E8005FEA30004FEA3C0C04F101044FEA445243
:1002F80012F5800F80F09A80BCF1004F08BF5FEACA
:10030800500C50F1000041EB045141EA050130BDA9
:100318005FEA4C0C404141EB010111F4801FA4F14C
:100328000104E9D191F0000F04BF01460020B1FAA1
:1003380081F308BF2033A3F10B03B3F120020CDAD9
:100348000C3208DD02F1140CC2F10C0201FA0CF0B7
:1003580021FA02F10CE002F11402D8BFC2F1200C1C
:1003680001FA02F120FA0CFCDCBF41EA0C019040D2
:10037800E41AA2BF01EB0451294330BD6FEA04041B
:100388001F3C1CDA0C340EDC04F11404C4F1200206
:1003980020FA04F001FA02F340EA030021FA04F318
:1003A80045EA030130BDC4F10C04C4F1200220FA6F
:1003B80002F001FA04F340EA0300294630BD21FAAD
:1003C80004F0294630BD94F0000F83F4801306BF73
:1003D80081F480110134013D4EE77FEA645C18BF67
:1003E8007FEA655C29D094EA050F08BF90EA020FFE
:1003F80005D054EA000C04BF1946104630BD91EAF6
:10040800030F1EBF0021002030BD5FEA545C05D1F8
:100418004000494128BF41F0004130BD14F5800437
:100428003CBF01F5801130BD01F0004545F0FE41AB
:1004380041F470014FF0000030BD7FEA645C1ABFE0
:10044800194610467FEA655C1CBF0B46024650EA17
:10045800013406BF52EA033591EA030F41F4002143
:1004680030BD00BF90F0000F04BF0021704730B5C9
:100478004FF4806404F132044FF000054FF000019E
:1004880050E700BF90F0000F04BF0021704730B55F
:100498004FF4806404F1320410F0004548BF404234
:1004A8004FF000013EE700BF42004FEAE2014FEA89
:1004B80031014FEA02701FBF12F07F4393F07F4F64
:1004C80081F06051704732F07F4208BF704793F067
:1004D8007F4F04BF41F40021704730B54FF460747A
:1004E80001F0004521F000411CE700BF50EA01027D
:1004F80008BF704730B54FF000050AE050EA010226
:1005080008BF704730B511F0004502D5404261EB95
:1005180041014FF4806404F132045FEA915C3FF4D6
:10052800D8AE4FF003025FEADC0C18BF03325FEA73
:10053800DC0C18BF033202EBDC02C2F1200300FA24
:1005480003FC20FA02F001FA03FE40EA0E0021FA49
:1005580002F11444BDE600BF70B54FF0FF0C4CF437
:10056800E06C1CEA11541DBF1CEA135594EA0C0FE9
:1005780095EA0C0F00F0DEF82C4481EA030621EA24
:100588004C5123EA4C5350EA013518BF52EA03355F
:1005980041F4801143F4801338D0A0FB02CE4FF011
:1005A8000005E1FB02E506F00042E0FB03E54FF041
:1005B8000006E1FB03569CF0000F18BF4EF0010E39
:1005C800A4F1FF04B6F5007F64F5407404D25FEA35
:1005D8004E0E6D4146EB060642EAC62141EA5551E8
:1005E8004FEAC52040EA5E504FEACE2EB4F1FD0C2A
:1005F80088BFBCF5E06F1ED8BEF1004F08BF5FEAA8
:10060800500E50F1000041EB045170BD06F0004659
:1006180046EA010140EA020081EA0301B4EB5C0406
:10062800C2BFD4EB0C0541EA045170BD41F48011FE
:100638004FF0000E013C00F3AB8014F1360FDEBF23
:10064800002001F0004170BDC4F10004203C35DAFF
:100658000C341BDC04F11404C4F1200500FA05F382
:1006680020FA04F001FA05F240EA020001F0004223
:1006780021F0004110EBD37021FA04F642EB060199
:100688005EEA430E08BF20EAD37070BDC4F10C04C3
:10069800C4F1200500FA04F320FA05F001FA04F287
:1006A80040EA020001F0004110EBD37041F1000173
:1006B8005EEA430E08BF20EAD37070BDC4F120057E
:1006C80000FA05F24EEA020E20FA04F301FA05F2E6
:1006D80043EA020321FA04F001F0004121FA04F28E
:1006E80020EA020000EBD3705EEA430E08BF20EA5E
:1006F800D37070BD94F0000F0FD101F00046400098
:1007080041EB010111F4801F08BF013CF7D041EA19
:10071800060195F0000F18BF704703F0004652001D
:1007280043EB030313F4801F08BF013DF7D043EAEE
:100738000603704794EA0C0F0CEA135518BF95EAA4
:100748000C0F0CD050EA410618BF52EA4306D1D12B
:1007580081EA030101F000414FF0000070BD50EA4A
:10076800410606BF1046194652EA430619D094EAD4
:100778000C0F02D150EA013613D195EA0C0F05D1BE
:1007880052EA03361CBF104619460AD181EA030112
:1007980001F0004141F0FE4141F470014FF00000CA
:1007A80070BD41F0FE4141F4780170BD70B54FF065
:1007B800FF0C4CF4E06C1CEA11541DBF1CEA1355E5
:1007C80094EA0C0F95EA0C0F00F0A7F8A4EB0504C7
:1007D80081EA030E52EA03354FEA013100F08880BE
:1007E8004FEA03334FF0805545EA131343EA126387
:1007F8004FEA022245EA111545EA10654FEA00263C
:100808000EF000419D4208BF964244F1FD0404F5F4
:10081800407402D25B084FEA3202B61A65EB030550
:100828005B084FEA32024FF480104FF4002CB6EB0D
:10083800020E75EB030E22BFB61A754640EA0C008D
:100848005B084FEA3202B6EB020E75EB030E22BFCD
:10085800B61A754640EA5C005B084FEA3202B6EB0E
:10086800020E75EB030E22BFB61A754640EA9C00CD
:100878005B084FEA3202B6EB020E75EB030E22BF9D
:10088800B61A754640EADC0055EA060E18D04FEA5B
:10089800051545EA16754FEA06164FEAC30343EAFB
:1008A80052734FEAC2025FEA1C1CC0D111F4801FC8
:1008B8000BD141EA00014FF000004FF0004CB6E7C1
:1008C80011F4801F04BF01430020B4F1FD0C88BF60
:1008D800BCF5E06F3FF6AFAEB5EB030C04BFB6EB6B
:1008E800020C5FEA500C50F1000041EB045170BD5E
:1008F8000EF0004E4EEA113114EB5C04C2BFD4EB8B
:100908000C0541EA045170BD41F480114FF0000E0E
:10091800013C90E645EA060E8DE60CEA135594EA8A
:100928000C0F08BF95EA0C0F3FF43BAF94EA0C0F8D
:100938000AD150EA01347FF434AF95EA0C0F7FF402
:1009480025AF104619462CE795EA0C0F06D152EA56
:1009580003353FF4FDAE1046194622E750EA41063A
:1009680018BF52EA43067FF4C5AE50EA41047FF44B
:100978000DAF52EA43057FF4EBAE12E74FF0FF3CB0
:1009880006E000BF4FF0010C02E000BF4FF0010C81
:100998004DF804CD4FEA410C7FEA6C5C4FEA430CFA
:1009A80018BF7FEA6C5C1BD001B050EA410C0CBF49
:1009B80052EA430C91EA030F02BF90EA020F0020AB
:1009C800704710F1000F91EA030F58BF994208BF12
:1009D80090422CBFD8176FEAE37040F001007047CF
:1009E8004FEA410C7FEA6C5C02D150EA013C07D126
:1009F8004FEA430C7FEA6C5CD6D152EA033CD3D071
:100A08005DF8040B704700BF8446104662468C466A
:100A18001946634600E000BF01B5FFF7B7FF00289D
:100A280048BF10F1000F01BD4DF808EDFFF7F4FFC6
:100A38000CBF012000205DF808FB00BF4DF808ED51
:100A4800FFF7EAFF34BF012000205DF808FB00BF74
:100A58004DF808EDFFF7E0FF94BF012000205DF896
:100A680008FB00BF4DF808EDFFF7CEFF94BF01204B
:100A780000205DF808FB00BF4DF808EDFFF7C4FF44
:100A880034BF012000205DF808FB00BF4A0011D2E6
:100A980012F5001211D20DD56FF47873B3EB6252D0
:100AA8000ED44FEAC12343F0004343EA505323FADC
:100AB80002F070474FF00000704750EA013002D151
:100AC8004FF0FF3070474FF000007047844641EA0E
:100AD800000313F003036DD1403A41D351F8043BAE
:100AE80040F8043B51F8043B40F8043B51F8043B00
:100AF80040F8043B51F8043B40F8043B51F8043BF0
:100B080040F8043B51F8043B40F8043B51F8043BDF
:100B180040F8043B51F8043B40F8043B51F8043BCF
:100B280040F8043B51F8043B40F8043B51F8043BBF
:100B380040F8043B51F8043B40F8043B51F8043BAF
:100B480040F8043B51F8043B40F8043B51F8043B9F
:100B580040F8043B51F8043B40F8043B403ABDD20E
:100B6800303211D351F8043B40F8043B51F8043BB0
:100B780040F8043B51F8043B40F8043B51F8043B6F
:100B880040F8043B103AEDD20C3205D351F8043B3F
:100B980040F8043B043AF9D2043208D0D2071CBF0B
:100BA80011F8013B00F8013B01D30B880380604634
:100BB800704700BF082A13D38B078DD010F00303AA
:100BC8008AD0C3F10403D21ADB071CBF11F8013B1A
:100BD80000F8013B80D331F8023B20F8023B7BE769
:100BE800043AD9D3013A11F8013B00F8013BF9D294
:100BF8000B7803704B7843708B788370604670472E
:100C080080B485B000AF03463960FB71394B0022D0
:100C18001A6063E0374B1A68374913469B00134440
:100C28009B000B4401331B78802B02D10223FB73FA
:100C38004FE0304B1A68304913469B0013449B0021
:100C48000B4401331B78FF2B02D10123FB7340E0D7
:100C5800284B1A68284913469B0013449B000B44F1
:100C68001B78FA799A4232D1224B1A683B68196884
:100C7800214813469B0013449B0003440433196026
:100C88001C4B1A683B6859681B4813469B00134461
:100C98009B00034408331960164B1A683B6899682F
:100CA800154813469B0013449B0003440C331960FA
:100CB800104B1A683B68D9680F4813469B001344C9
:100CC8009B000344103319600023FB7301E00323E6
:100CD800FB73084B1B680133064A1360054B1B68FE
:100CE800092B97D9FB7B18461437BD465DF8047B62
:100CF800704700BF800400209C080020B0B485B075
:100D080000AF03463960FB71454B00221A601DE0B5
:100D1800434B1A6813469B0013449B0003F100637E
:100D280003F5802318463E4B1A683E4913469B003C
:100D380013449B000B441C4605460FCD0FC42B687B
:100D48002360374B1B680133354A1360344B1B68EB
:100D5800092BDDD9324B01221A6056E0304B1A6854
:100D6800304913469B0013449B000B441B78FA79C7
:100D78009A4202D00123FB7342E0294B1A682949A1
:100D880013469B0013449B000B441B78FA799A4244
:100D980036D1234B1A68234913469B0013449B0002
:100DA8000B4404331A683B681A601D4B1A683B6889
:100DB800191D1C4813469B0013449B000344083329
:100DC8001B680B60164B1A683B6803F1080115484D
:100DD80013469B0013449B0003440C331B680B60B1
:100DE8000F4B1A683B6803F10C010E4813469B0031
:100DF80013449B00034410331B680B600023FB73F0
:100E0800074B1B680133064A1360054B1B68092B07
:100E1800A4D9FB7B18461437BD46B0BC704700BF49
:100E2800800400209C08002080B582B000AF0D4BE4
:100E38007B6000F04DF84FF400510A4801F0B8FC0F
:100E4800094B32221A60094B1968074B1A683B1D77
:100E5800184601F0D9FC00F053F800BF0837BD462A
:100E680080BD00BF000004088004002000000020AE
:100E780080B400AF144B00221A601CE0124B1968B2
:100E8800114B1A68C8B2114913469B0013449B00C2
:100E98000B4402461A700C4B1A680C4913469B0007
:100EA80013449B000B44023300221A70064B1B6844
:100EB8000133054A1360044B1B68092BDED900BFB8
:100EC800BD465DF8047B7047800400209C08002024
:100ED80080B400AF074B1B69002B05DA054B064AA7
:100EE8005A60044B054A5A6000BFBD465DF8047B52
:100EF800704700BF003C024023016745AB89EFCD36
:100F080080B400AF054B1B69044A43F000431361EA
:100F180000BFBD465DF8047B704700BF003C02403F
:100F280080B584B000AF78600B46FB700023FB608F
:100F38000923FB72FB78002B02D10023FB6010E031
:100F4800FB78012B03D14FF48073FB6009E0FB7839
:100F5800022B03D14FF40073FB6002E04FF440739F
:100F6800FB6000F02BF90346FB72FB7A092B2FD1AB
:100F78001A4B1B69194A23F440731361174B1A69FA
:100F88001649FB6813430B61144B1B69134A23F082
:100F9800F8031361114B1A697B6813430F4A43F036
:100FA800020313610D4B1B690C4A43F48033136130
:100FB80000F004F90346FB72084B1B69074A23F04B
:100FC80002031361054B1B69044A23F0F8031361FC
:100FD800FB7A18461037BD4680BD00BF003C024072
:100FE80080B584B000AF786039600923FB7300F0E6
:100FF800E5F80346FB73FB7B092B1ED1114B1B69DC
:10100800104A23F4407313610E4B1B690D4A43F4D5
:10101800007313610B4B1B690A4A43F00103136108
:101028007B683A681A6000F0C9F80346FB73054B01
:101038001B69044A23F001031361FB7B1846103730
:10104800BD4680BD003C024080B400AF084B5B69E0
:1010580003F00103002B05D0054B064A9A60044BA8
:10106800054A9A6000BFBD465DF8047B704700BF23
:10107800003C02403B2A19087F6E5D4C80B584B065
:1010880000AF78600B46FB700923FB7300F096F8FD
:101098000346FB73FB7B092B17D1FB78002B0BD086
:1010A8000C4B1B889AB27B689BB2DB439BB2094905
:1010B80013409BB20B8008E0064B1B889AB27B68F2
:1010C8009BB2044913439BB20B8000BF1037BD4647
:1010D80080BD00BF163C024080B582B000AF092336
:1010E800FB71084B1B78DBB2064A43F00203DBB204
:1010F800137000F063F80346FB71FB791846083754
:10110800BD4680BD143C024080B400AF034B1B8831
:101118009BB21846BD465DF8047B7047163C0240FA
:1011280080B483B000AF7860044A7B68D36000BFA6
:101138000C37BD465DF8047B704700BF003C024099
:1011480080B483B000AF0923FB711B4BDB6803F449
:101158008033B3F5803F02D10123FB7125E0164BA4
:10116800DB6803F01003002B02D00623FB711CE0A0
:10117800114BDB6803F48073002B02D00223FB7150
:1011880013E00D4BDB6803F0E003002B02D00723CC
:10119800FB710AE0084BDB6803F00203002B02D066
:1011A8000823FB7101E00923FB71FB7918460C3712
:1011B800BD465DF8047B7047003C024080B582B0B4
:1011C80000AF0923FB71FFF7BBFF0346FB7103E088
:1011D800FFF7B6FF0346FB71FB79DBB2012BF7D0B3
:1011E800FB79DBB218460837BD4680BD80B582B0B2
:1011F80000AF78607B684B4A934208D101210120F7
:1012080000F080FA0021012000F07CFA86E07B687B
:10121800454A934208D10121022000F073FA0021C7
:10122800022000F06FFA79E07B68404A934208D1C7
:101238000121042000F066FA0021042000F062FA7F
:101248006CE07B683A4A934208D10121082000F0FB
:1012580059FA0021082000F055FA5FE07B68354A0A
:10126800934208D10121102000F04CFA00211020EF
:1012780000F048FA52E07B682F4A934208D10121D6
:10128800202000F03FFA0021202000F03BFA45E042
:101298007B682A4A934208D10121402000F032FAA3
:1012A8000021402000F02EFA38E07B68244A93425F
:1012B80008D10121802000F025FA0021802000F0CB
:1012C80021FA2BE07B681F4A93420AD101214FF48F
:1012D800807000F017FA00214FF4807000F012FAC5
:1012E8001CE07B68184A93420AD101214FF4007030
:1012F80000F008FA00214FF4007000F003FA0DE046
:101308007B68124A934209D101214FF4806000F0B2
:10131800F9F900214FF4806000F0F4F900BF0837B4
:10132800BD4680BD000002400004024000080240A3
:10133800000C024000100240001402400018024055
:10134800001C024000200240002402400028024005
:1013580080B487B000AF7860396000237B610023D8
:101368003B610023FB6000237B6176E001227B69FF
:1013780002FA03F33B613B681B683A691340FB6060
:10138800FA683B699A4265D17B681A687B695B0099
:10139800032101FA03F3DB431A407B681A607B6878
:1013A8001A683B681B7919467B695B0001FA03F3ED
:1013B8001A437B681A603B681B79012B03D03B6892
:1013C8001B79022B2ED17B689A687B695B0003210D
:1013D80001FA03F3DB431A407B689A607B689A68DA
:1013E8003B685B7919467B695B0001FA03F31A4392
:1013F8007B689A607B685A687B699BB219460123AF
:101408008B40DB431A407B685A607B685B683A68AC
:10141800927911467A6992B201FA02F292B21A43AB
:101428007B685A607B68DA687B699BB25B00032142
:1014380001FA03F3DB431A407B68DA607B68DA68F9
:101448003B68DB7919467B695B0001FA03F31A43B1
:101458007B68DA607B6901337B617B690F2B85D9F7
:1014680000BF1C37BD465DF8047B704780B485B06B
:1014780000AF78600B467B800023FB737B681A699A
:101488007B881340002B02D00123FB7301E000236B
:10149800FB73FB7B18461437BD465DF8047B704729
:1014A80080B485B000AF78600B467B8013467B70B4
:1014B8000023FB600023BB607A787B8803F0070376
:1014C8009B0002FA03F3FB607B88DB089BB21A4699
:1014D8007B68083253F822207B8803F007039B00BF
:1014E8000F2101FA03F3DB437988C90889B208465A
:1014F80002EA03017B6800F1080243F822107B88A6
:10150800DB089BB21A467B68083253F82230FA6827
:101518001343BB607B88DB089BB21A467B680832A2
:10152800B96843F8221000BF1437BD465DF8047B44
:101538007047000080B489B000AF78600023BB61B9
:1015480000237B610023FB6102233B610023FB60D6
:101558000223BB60474B9B6803F00C03BB61BB696C
:10156800042B07D0082B09D0002B3DD17B68424AB9
:101578001A603DE07B68414A1A6039E03D4B5B6880
:101588009B0D03F00103FB603A4B5B6803F03F03DC
:10159800BB60FB68002B0CD0384ABB68B2FBF3F386
:1015A800344A52689209C2F3080202FB03F3FB6152
:1015B8000BE0314ABB68B2FBF3F32E4A526892093A
:1015C800C2F3080202FB03F3FB612A4B5B681B0CA6
:1015D80003F0030301335B003B61FA693B69B2FB2B
:1015E800F3F27B681A6003E07B68234A1A6000BF45
:1015F800204B9B6803F0F003BB61BB691B09BB610F
:101608001F4ABB6913441B78DBB27B617B681A688D
:101618007B69DA407B685A60164B9B6803F4E05399
:10162800BB61BB699B0ABB61154ABB6913441B7844
:10163800DBB27B617B685A687B69DA407B689A60B9
:101648000C4B9B6803F46043BB61BB695B0BBB61DC
:101658000B4ABB6913441B78DBB27B617B685A6811
:101668007B69DA407B68DA6000BF2437BD465DF8E5
:10167800047B7047003802400024F40000127A000E
:101688000400002080B483B000AF78600B46FB7084
:10169800FB78002B06D00A4B1A6B09497B68134369
:1016A8000B6306E0064B1A6B7B68DB430449134067
:1016B8000B6300BF0C37BD465DF8047B704700BF65
:1016C8000038024080B483B000AF78600B46FB70EE
:1016D800FB78002B06D00A4B5A6C09497B681343E8
:1016E8004B6406E0064B5A6C7B68DB4304491340A5
:1016F8004B6400BF0C37BD465DF8047B704700BFE4
:101708000038024080B483B000AF78600B46FB70AD
:10171800FB78002B06D00A4B1A6909497B681343EA
:101728000B6106E0064B1A697B68DB4304491340EA
:101738000B6100BF0C37BD465DF8047B704700BFE6
:101748000038024080B483B000AF78600B46FB706D
:10175800FB78002B06D00A4B1A6A09497B681343A9
:101768000B6206E0064B1A6A7B68DB4304491340A8
:101778000B6200BF0C37BD465DF8047B704700BFA5
:101788000038024080B483B000AF78600B46FB702D
:10179800FB78002B06D00A4B5A6A09497B68134329
:1017A8004B6206E0064B5A6A7B68DB4304491340E8
:1017B8004B6200BF0C37BD465DF8047B704700BF25
:1017C8000038024080B582B000AF78607B683B4A41
:1017D800934208D101211020FFF7D4FF00211020E7
:1017E800FFF7D0FF65E07B68354A93420AD10121B3
:1017F8004FF40030FFF7A6FF00214FF40030FFF749
:10180800A1FF56E07B682F4A93420AD101214FF489
:101818008020FFF797FF00214FF48020FFF792FF09
:1018280047E07B68284A93420AD101214FF40020FF
:10183800FFF788FF00214FF40020FFF783FF38E00F
:101848007B68224A93420AD101214FF48010FFF7A6
:1018580079FF00214FF48010FFF774FF29E07B68BF
:101868001B4A934208D101212020FFF78BFF00215A
:101878002020FFF787FF1CE07B68164A93420AD1B5
:1018880001214FF08040FFF75DFF00214FF08040BD
:10189800FFF758FF0DE07B680F4A934209D10121F9
:1018A8004FF00040FFF74EFF00214FF00040FFF7D8
:1018B80049FF00BF0837BD4680BD00BF001001408A
:1018C8000044004000480040004C004000500040E8
:1018D8000014014000780040007C004080B58AB0C8
:1018E80000AF7860396000237B6200233B620023ED
:1018F800FB610023BB617B681B8A9BB27B627B6AAE
:1019080023F440537B623B68DB881A467B6A1343A7
:101918007B627B6A9AB27B681A827B689B899BB2DE
:101928007B627B6A23F4B05323F00C037B623B6831
:101938009A883B681B8913439AB23B685B891343B7
:101948009BB21A467B6A13437B627B6A9AB27B68B6
:101958009A817B689B8A9BB27B627B6A23F4407383
:101968007B623B689B891A467B6A13437B627B6A6E
:101978009AB27B689A8207F108031846FFF7DAFDE6
:101988007B68304A934203D07B682F4A934202D146
:101998007B693B6201E03B693B627B689B899BB248
:1019A8001BB2002B0CDA3A6A13469B0013449A00C8
:1019B8001A443B681B685B00B2FBF3F3FB610BE066
:1019C8003A6A13469B0013449A001A443B681B6802
:1019D8009B00B2FBF3F3FB61FB691C4AA2FB0323E8
:1019E8005B091B017B627B6A1B09642202FB03F310
:1019F800FA69D31ABB617B689B899BB21BB2002B27
:101A08000CDABB69DB003233104AA2FB03235B0903
:101A180003F007037A6A13437B620BE0BB691B017F
:101A280032330A4AA2FB03235B0903F00F037A6AE5
:101A380013437B627B6A9AB27B681A8100BF28379E
:101A4800BD4680BD00100140001401401F85EB51C8
:101A580080B483B000AF78600B46FB70FB78002B36
:101A680008D07B689B899BB243F400539AB27B6889
:101A78009A8107E07B689B899BB223F400539AB252
:101A88007B689A8100BF0C37BD465DF8047B7047C0
:101A980080B483B000AF78600B467B807B88C3F34B
:101AA80008039AB27B689A8000BF0C37BD465DF880
:101AB800047B704780B483B000AF78607B689B88F4
:101AC8009BB2C3F308039BB218460C37BD465DF8BA
:101AD800047B704780B485B000AF78600B467B808C
:101AE8000023FB737B681B889AB27B8813409BB2E8
:101AF800002B02D00123FB7301E00023FB73FB7B67
:101B080018461437BD465DF8047B704780B489B029
:101B180000AF786039600023FB6130E0FB699B000F
:101B28003A681A44FB699B0079680B4412781A706A
:101B3800FB699B0001333A681A44FB699B00013337
:101B480079680B4412781A70FB699B0002333A6873
:101B58001A44FB699B00023379680B4412781A70A7
:101B6800FB699B0003333A681A44FB699B00033303
:101B780079680B4412781A70FB690133FB61FB69C1
:101B8800032BCBD90423FB6185E0FB6903F1804378
:101B9800013B9B00BB617A68BB6913441B783B73AC
:101BA800BB6901337A6813441B787B73BB690233C2
:101BB8007A6813441B78BB73BB6903337A68134490
:101BC8001B78FB73FB6903F00303002B25D13B7BD8
:101BD800FB757B7B3B73BB7B7B73FB7BBB73FB7DA9
:101BE800FB733B7B1A46314B9B5C3B737B7B1A46F2
:101BF8002E4B9B5C7B73BB7B1A462C4B9B5CBB734D
:101C0800FB7B1A46294B9B5CFB733A7BFB699B0861
:101C18002749CB5C5340DBB23B73FB699B003B61BC
:101C2800FB6903F18043043B9B00BB617A68BB6995
:101C3800134419783A7B78683B6903444A40D2B226
:101C48001A70BB6901337A68134419787A7B3B6947
:101C58000133786803444A40D2B21A70BB69023330
:101C68007A6813441978BA7B3B690233786803446D
:101C78004A40D2B21A70BB6903337A6813441978A0
:101C8800FA7B3B690333786803444A40D2B21A703E
:101C9800FB690133FB61FB692B2B7FF676AF00BF35
:101CA8002437BD465DF8047B704700BF90400008AC
:101CB8009042000880B582B000AF786039607B68D8
:101CC80039681846FFF722FF00BF0837BD4680BDB8
:101CD80080B487B000AF0346B9607A60FB73002315
:101CE800FB7527E00023BB751EE0FA7DBB7DB96854
:101CF80092000A4413441878FB7B9A00FB7D134436
:101D08009A00BB7D13441A467B6813441978FA7D00
:101D1800BB7D4140C8B2B96892000A4413440246E8
:101D28001A70BB7D0133BB75BB7D032BDDD9FB7DF1
:101D38000133FB75FB7D032BD4D900BF1C37BD468F
:101D48005DF8047B7047000080B485B000AF786010
:101D58000023FB731DE00023BB7314E0BA7BFB7BFD
:101D6800796892000A4413441B781846BA7BFB7BB7
:101D78000C49085C796892000A44134402461A70B8
:101D8800BB7B0133BB73BB7B032BE7D9FB7B0133E5
:101D9800FB73FB7B032BDED900BF1437BD465DF810
:101DA800047B70479040000880B485B000AF78602D
:101DB8007B685B78FB737B685A797B685A707B68B1
:101DC8005A7A7B685A717B685A7B7B685A727B683F
:101DD800FA7B5A737B689B78FB737B689A7A7B687B
:101DE8009A707B68FA7B9A727B689B79FB737B6835
:101DF8009A7B7B689A717B68FA7B9A737B68DB783D
:101E0800FB737B68DA7B7B68DA707B68DA7A7B68DD
:101E1800DA737B68DA797B68DA727B68FA7BDA7165
:101E280000BF1437BD465DF8047B704780B483B0AB
:101E380000AF0346FB71FB795B005AB2FB79DB0903
:101E4800DBB2194649000B441946C8001946034637
:101E58000B44DBB25BB253405BB2DBB218460C37C3
:101E6800BD465DF8047B704780B584B000AF7860EC
:101E78000023FB73A4E0FA7B7B6813F82230BB7362
:101E8800FA7B7B6813F82220FB7B79689B000B4464
:101E98005B785340DAB2FB7B79689B000B449B78F4
:101EA8005340DAB2FB7B79689B000B44DB785340E4
:101EB8007B73FA7B7B6813F82220FB7B79689B0095
:101EC8000B445B7853403B733B7B1846FFF7AEFFF0
:101ED80003463B73FA7B7B6813F822103A7B7B7BC3
:101EE8005340DBB2FA7B4B40D9B27B6803F822102F
:101EF800FB7B7A689B0013445A78FB7B79689B00CC
:101F08000B449B7853403B733B7B1846FFF78EFF8F
:101F180003463B73FB7B7A689B00134459783A7BF2
:101F28007B7B5340DAB2FB7B4A40D1B27A689B0094
:101F380013440A465A70FB7B7A689B0013449A78CC
:101F4800FB7B79689B000B44DB7853403B733B7BFE
:101F58001846FFF76BFF03463B73FB7B7A689B00D1
:101F6800134499783A7B7B7B5340DAB2FB7B4A4037
:101F7800D1B27A689B0013440A469A70FB7B7A6850
:101F88009B001344DA78BB7B53403B733B7B18467A
:101F9800FFF74CFF03463B73FB7B7A689B001344B7
:101FA800D9783A7B7B7B5340DAB2FB7B4A40D1B28B
:101FB8007A689B0013440A46DA70FB7B0133FB7393
:101FC800FB7B032B7FF657AF00BF1037BD4680BDA4
:101FD80080B584B000AF786039600023FB733A683D
:101FE80079680020FFF774FE0123FB7311E078681D
:101FF800FFF7AAFE7868FFF7D7FE7868FFF734FF87
:10200800FB7B3A6879681846FFF762FEFB7B013371
:10201800FB73FB7B092BEAD97868FFF795FE786894
:10202800FFF7C2FE3A6879680A20FFF751FE00BF41
:102038001037BD4680BD80B584B000AFF860B96088
:102048007A602022B9687868FEF740FDFB68194677
:102058007868FFF7BDFF00BF1037BD4680BD0000A0
:1020680080B584B000AFF860B9607A603B600A4B15
:102078007A68B968F86800F011F8102239680648DB
:1020880001F036FF0346002B01D1012300E00023B5
:1020980018461037BD4680BD7809002090B5D1B0EC
:1020A80000AF07F10C04206007F108000160391D3A
:1020B8000A603A4613600023C7F83C310023C7F88A
:1020C800383107F1540207F1640107F10C0318686D
:1020D80000F0EAF807F10C0307F1740219681046DA
:1020E800FFF7E8FD3B1D1868FEF7BCF94FF000024A
:1020F800524BFEF75BFB03460C4644EC173BB0EE35
:10210800470AF0EE670A01F047FE54EC103B184608
:102118002146FEF7BBFC0346C7F83C31D7F83C31F3
:10212800002B06D10123C7F83C310023C7F838310A
:102138000CE03B1D1B6803F00F03002B03D10123A8
:10214800C7F8383102E00023C7F83831D7F83831FA
:10215800012B11D1D7F83C3103F18053013B1B010E
:1021680007F108021268134407F1140207F1640129
:10217800184600F0E7F81BE0D7F83C3103F180532C
:10218800013B1B0107F108021268D0183B1D1B68B0
:1021980003F00F0207F14403194600F053F807F162
:1021A800140207F1540107F14403184600F0CAF875
:1021B80007F13403224A1C4613460FCB84E80F006C
:1021C8000023C7F834311CE0D7F834311B011A4614
:1021D80007F108031B68991807F1240207F1340373
:1021E800184600F0AFF807F1340207F1240107F1AF
:1021F80074031846FFF71FFFD7F834310133C7F8C7
:102208003431D7F83C315A1ED7F834319A42DBD8EA
:1022180007F1240207F1340107F11403184600F00E
:1022280091F83B4607F1240107F174001A68FFF79B
:1022380002FF00BF07F5A277BD4690BD0000304001
:102248008404002080B487B000AFF860B9607A6079
:1022580000237B611EE07B697A689A4208D97B6912
:10226800FA681A447B69B9680B4412781A700EE050
:102278007B697A689A4205D17B69BA6813448022DF
:102288001A7004E07B69BA68134400221A707B69EB
:1022980001337B617B690F2BDDDD00BF1C37BD4639
:1022A8005DF8047B7047000080B5BCB000AFF860F3
:1022B800B9607A6007F13003F9681846FFF7FAFC4D
:1022C80007F1100207F130031C491846FFF7B3FE67
:1022D8003B7C5BB2002B06DB07F11003B96818469C
:1022E80000F053F80EE007F1200207F11003114641
:1022F800184600F04AF807F12003BA681049184652
:1023080000F020F8BB681B785BB2002B04DBB968CF
:10231800786800F03AF80CE007F120031946B8682D
:1023280000F033F807F120037A680549184600F0F1
:1023380009F800BFF037BD4680BD00BF8404002007
:102348001400002080B487B000AFF860B9607A60EC
:1023580000237B6110E07B69FA68134419787B6974
:10236800BA6813441A787B69786803444A40D2B241
:102378001A707B6901337B617B690F2BEBDD00BF32
:102388001C37BD465DF8047B704780B485B000AF4C
:10239800786039600023FB720F23FB601DE0FB6847
:1023A8007A6813441A78FB6839680B445200D2B231
:1023B8001A70FB683A6813441978FB683A68134442
:1023C800FA7A0A43D2B21A70FB687A6813441B7807
:1023D800DB09FB72FB68013BFB60FB68002BDEDA64
:1023E80000BF1437BD465DF8047B704780B487B0E2
:1023F80000AF78603960254B3B610023FB60002308
:10240800BB6000237B6138E03A683B69B2FBF3F3B9
:10241800DAB2FB68591CF96079680B443032D2B2E1
:102428001A703B683A69B3FBF2F2396901FB02F2B0
:102438009B1A3B603B69164AA2FB0323DB083B61FE
:10244800FB68013B7A6813441B78302B0CBF0123CF
:102458000023DAB2BB68002B0CBF01230023DBB2D8
:102468001340DBB2002B02D00023FB6002E0BB6804
:102478000133BB607B6901337B617B69092BC3D95D
:1024880000BF1C37BD465DF8047B704700CA9A3B05
:10249800CDCCCCCC80B487B000AF78603960002355
:1024A8007B6100233B610023FB607B681B78302B3A
:1024B80040F081807B6801331B78782B04D07B68DF
:1024C80001331B78582B76D17B6802331B78002B9D
:1024D80001D10023D7E002237B6163E07A687B693E
:1024E80013441B78002B05D1FA683B681A60012356
:1024F8003B615AE07A687B6913441B78402B05D905
:102508007A687B6913441B78462B17D97A687B69EC
:1025180013441B78602B05D97A687B6913441B78B0
:10252800662B0BD97A687B6913441B782F2B36D915
:102538007A687B6913441B78392B30D8FB681B01F8
:1025480079687A690A4412782F2A0BD979687A69E6
:102558000A441278392A05D879687A690A441278BF
:10256800303A16E079687A690A441278402A0BD919
:1025780079687A690A441278462A05D879687A69A6
:102588000A441278373A04E079687A690A4412787A
:10259800573A1344FB607B6901337B6102E00023F7
:1025A8003B6102E07B690A2B98D97B690A2B69D9C0
:1025B80000233B6166E000237B615BE07A687B690E
:1025C80013441B78002B05D1FA683B681A60012375
:1025D8003B6152E07A687B6913441B786B2B05D00A
:1025E8007A687B6913441B784B2B0BD17B69002BD2
:1025F80008D0FB689B02FB60FA683B681A600123FD
:102608003B613AE07A687B6913441B786D2B05D0EF
:102618007A687B6913441B784D2B0BD17B69002B9F
:1026280008D0FB681B05FB60FA683B681A60012349
:102638003B6122E07A687B6913441B782F2B16D9FB
:102648007A687B6913441B78392B10D8FA681346CB
:102658009B0013445B0019467A687B6913441B7816
:102668000B44303BFB607B6901337B6102E0002354
:102678003B6102E07B690A2BA0D97B690A2B01D94F
:1026880000233B613B6918461C37BD465DF8047B57
:102698007047000080B582B000AF786020210A48FA
:1026A800FFF718FA0346002B08D00748FFF702FA8D
:1026B8000346DAB27B681A70012300E0002318464B
:1026C8000837BD4680BD00BF0010014080B582B00C
:1026D80000AF0023FB71FB1D1846FFF7DBFF034625
:1026E800002B00D1F7E700BFFB7918460837BD4635
:1026F80080BD000080B582B000AF0346FB71FB7956
:102708009BB219460748FFF7C3F900BF8021054867
:10271800FFF7E0F90346002BF8D000BF0837BD46A5
:1027280080BD00BF0010014080B582B000AF786066
:1027380007E07B681B781846FFF7DCFF7B680133EE
:102748007B607B681B78002BF3D100BF0837BD4640
:1027580080BD80B500AFFEF7BBFBF320FEF7E0FCC1
:1027680000BF80BD80B584B000AF78600823BB602F
:102778000023FB600D4800F0D3F8B860BB68FB602D
:102788000BE00221F868FEF7CBFB0346092B01D0CA
:10279800012306E0FB680833FB60FB68282BF0D9AF
:1027A800002318461037BD4680BD00BF00800008D2
:1027B80080B586B000AF7860396000237B617868A7
:1027C80000F0AEF838617A683B681344013B18465C
:1027D80000F0A6F8F8603B697B610BE0022178699C
:1027E800FEF79EFB0346092B01D0012307E07B6916
:1027F80008337B617A69FB689A42EFD9002318464F
:102808001837BD4680BD000080B586B000AFF860BF
:10281800B9607A6000237B6100237B6123E0FB6859
:1028280018687B699B00BA6813441B681946FEF751
:10283800D7FB0346092B11D1FB681B681A687B6913
:102848009B00B9680B441B689A4201D0022314E02C
:10285800FB681B681A1DFB681A6001E001230CE085
:102868007B6901337B617A697B689A4204D2FB6891
:102878001B68044A9342D2D9002318461837BD462C
:1028880080BD00BFFBFF0F0880B582B000AF0823F2
:102898007B600D4800F044F87860FEF735FC03468D
:1028A8001A467B68DB081A417B68DB0840F6FF7133
:1028B80041FA03F39A4201D1012300E000231846AC
:1028C8000837BD4680BD00BF0080000880B582B0D3
:1028D80000AF08237B6002233B60104800F020F81B
:1028E80003467B607B68DB08012202FA03F3C3F529
:1028F80080533B60FEF7A8FB3B6800211846FEF7B3
:10290800BDFBFEF7E9FB0346092B01D0022300E0DB
:10291800012318460837BD4680BD00BF0080000867
:1029280080B485B000AF78600023FB607B68404AC4
:10293800934206D87B68B3F1006F02D30023FB6093
:102948006FE07B683B4A934206D87B68384A9342DB
:1029580002D90823FB6064E07B68374A934206D8B3
:102968007B68344A934202D91023FB6059E07B68A4
:10297800324A934206D87B682F4A934202D91823D9
:10298800FB604EE07B682E4A934206D87B682B4A50
:10299800934202D92023FB6043E07B68294A934293
:1029A80006D87B68264A934202D92823FB6038E080
:1029B8007B68254A934206D87B68224A934202D90B
:1029C8003023FB602DE07B68204A934206D87B6861
:1029D8001D4A934202D93823FB6022E07B681C4AD7
:1029E800934206D87B68194A934202D94023FB6078
:1029F80017E07B68174A934206D87B68144A9342CB
:102A080002D94823FB600CE07B68134A934206D83E
:102A18007B68104A934202D95023FB6001E0582397
:102A2800FB60FB6818461437BD465DF8047B7047A9
:102A3800FF3F0008FF7F0008FFBF0008FFFF0008F6
:102A4800FFFF0108FFFF0308FFFF0508FFFF070856
:102A5800FFFF0908FFFF0B08FFFF0D0880B584B0D2
:102A680000AF03463960FB7101210120FEF70AFE21
:102A780001211020FEF726FE072209211748FEF73C
:102A88000FFD07220A211548FEF70AFD0023BB7334
:102A98000123FB7302233B734FF40073BB600323D2
:102AA8007B7307F1080319460C48FEF751FC022313
:102AB8003B734FF48063BB6007F10803194607486E
:102AC800FEF746FC39680648FEF708FF012104486E
:102AD800FEF7BEFF00BF1037BD4680BD00000240B4
:102AE8000010014080B58CB000AF00F09BF800F0FA
:102AF800B3F83D48FFF718FEFFF72BFE0023FB62F3
:102B080002E0FB6A0133FB62FB6A384A9342F8DD54
:102B180001213748FEF7AAFC0346012B02D100F039
:102B2800BFF95BE007F1140319460320FEF7E6F846
:102B38003048FFF7F9FD002387F82B3013E097F8AA
:102B48002B3003F1006303F500431A4697F82B3046
:102B5800127807F130010B4403F82C2C97F82B302E
:102B6800013387F82B3097F82B300F2BE7D93B1D13
:102B780007F1140041F270521F49FFF771FA03463A
:102B8800012B23D11D48FFF7CFFD1D48FFF7CCFDD2
:102B98001C48FEF717FE1648FEF728FB1A4B164A84
:102BA8009A6072B6194B1B68194A1360184B1B6858
:102BB8001A46184B1A60184B1B6810337B627B6AE5
:102BC80083F30888134B1B68984707E01348FFF7FF
:102BD800ABFD1348FFF7A8FD00F062F90023184683
:102BE8003037BD4680BD00BF0C4300083F420F0090
:102BF800000002404843000810800008884300088D
:102C0800C84300080010014000ED00E014800008EF
:102C18001C210020342100200080000808440008FE
:102C28004844000880B584B000AF4FF4E1333B60FE
:102C38000023BB800023FB8000233B810023BB8152
:102C48000C237B813B4619460020FFF707FF00BF96
:102C58001037BD4680BD000080B582B000AF0121AD
:102C68000120FEF70FFD01233B6000233B71002389
:102C7800BB710223FB7102237B713B4619460D4849
:102C8800FEF766FB01211020FEF7FCFC10233B60D9
:102C980000233B710023BB710223FB7103237B716B
:102CA8003B4619460448FEF753FB00BF0837BD46AC
:102CB80080BD00BF000002400010024080B584B013
:102CC80000AF494A3B4607CA03C31A804748FFF783
:102CD8002BFD4749474800F059FB0246464B1A600E
:102CE8000023FB6002E0FB680133FB60FB68434A9A
:102CF8009342F8DD404B1B68002B1ADD4048FFF774
:102D080013FD4048FFF710FD3B4B1A683B46114640
:102D18001846FFF76BFB3C48FFF706FD3B46184695
:102D2800FFF702FD3948FFF7FFFC3948FFF7FCFCC5
:102D38001DE0314B1B68B3F1FF3F03D13548FFF766
:102D4800F3FC14E02C4B1B6813F1020F03D132483B
:102D5800FFF7EAFC0BE0284B1B6813F1030F03D1C4
:102D68002E48FFF7E1FC02E02D48FFF7DDFC0023C9
:102D7800FB7208E0FA7AFB7A1D49895C294AD1542A
:102D8800FB7A0133FB72FB7A0F2BF3D92649032018
:102D9800FDF7B4FF184B1B68103B1A46214B23491B
:102DA8002148FFF75DF90346012B0ED1124B1B6832
:102DB800002B00DA03339B101A460D491C48FFF715
:102DC80023FD1C48FFF7B0FC0AE01B48FFF7ACFCEA
:102DD8001A48FFF7A9FC1A48FFF7A6FC00F060F8AC
:102DE80000BF1037BD4680BDA046000888440008D3
:102DF800A80900209C040020940400209F8601005C
:102E0800C44400087821002018450008244500081B
:102E1800304500084845000888450008A4450008D2
:102E2800BC4500082021002058210020B8090020B6
:102E380034000020DC450008104600084046000821
:102E48007046000880B582B000AF0023FB710F48C0
:102E5800FFF76AFCFFF73AFC0346432B11D14FF406
:102E680078220B490B4800F03FFD0346FB71FB79C4
:102E7800002B03D00848FFF757FC02E00748FFF78C
:102E880053FC00BF0837BD4680BD00BFAC460008F4
:102E9800C846000800800008E04600080C47000803
:102EA80080B582B000AF00237B716D48FFF73CFC12
:102EB8006C48FFF739FC6C48FFF736FC6B48FFF7A6
:102EC80033FC6948FFF730FC6948FFF72DFC64487C
:102ED800FFF72AFC6748FFF727FCFFF7D5FC0346F6
:102EE800002B03D1644B01221A6002E0624B0022DE
:102EF8001A606248FFF718FC6148FFF715FC614843
:102F0800FFF712FC6048FFF70FFC6048FFF70CFC66
:102F1800594B1B68002B02D05D48FFF705FC5D4844
:102F2800FFF702FCFFF7D2FB03467B717B79312B5D
:102F380002D1FFF7C3FEDCE77B79322B02D1FFF722
:102F480081FFD6E77B79342B54D10023FB7102E053
:102F5800FB790133FB71FB79632BF9D94E490320C7
:102F6800FDF7CCFE4D48FFF7DFFB0023BB710CE0FB
:102F7800BB7903F1006303F500431A46BB79117866
:102F8800474AD154BB790133BB71BB790F2BEFD9B9
:102F9800434B41F2705243493F48FFF761F80346FB
:102FA800012B23D14048FFF7BFFB4048FFF7BCFB8C
:102FB8003F48FEF707FC3F48FEF718F93E4B394AF1
:102FC8009A6072B63D4B1B683D4A13603C4B1B68C8
:102FD8001A463C4B1A603C4B1B6810333B603B68FD
:102FE80083F30888374B1B68984782E73748FFF711
:102FF8009BFB7EE77B79332B0BD1FDF739FF3449F7
:103008000320FDF7FDFDFDF70FFF3248FFF78CFBAE
:103018006FE77B79342B17D1174B1B68012B13D122
:10302800FFF754FC0346012B02D0022B07D016E011
:103038002948FFF779FB104B00221A6003E0274864
:10304800FFF772FB00BF0AE00B4B1B68002B03D194
:103058002348FFF769FB4CE72248FFF765FB48E781
:103068002C47000878470008C447000810480008A3
:103078005C480008A848000898040020B0480008E8
:10308800F04800083049000870490008B0490008B5
:10309800F0490008304A000858210020704A00080A
:1030A8002021002010800008B04A0008F04A0008DB
:1030B800001001400000024000ED00E0148000080C
:1030C8001C2100203421002000800008304B00081B
:1030D80024000020704B0008B44B0008D44B0008B3
:1030E800004C00083C4C000880B500AF164BD3F8E4
:1030F8008830154A43F47003C2F88830134B1B68B4
:10310800124A43F001031360104B00229A600F4BE0
:103118001B680E4A23F0847323F4803313600B4B2F
:103128000B4A5A60094B1B68084A23F48023136032
:10313800064B0022DA6000F00DF8034B4FF00062F6
:103148009A6000BF80BD00BF00ED00E0003802407B
:103158001030002480B483B000AF00237B600023CC
:103168003B60364B1B68354A43F480331360334B5E
:103178001B6803F400333B607B6801337B603B686A
:10318800002B03D17B68B3F5A04FF0D12B4B1B6804
:1031980003F40033002B02D001233B6001E000233D
:1031A8003B603B68012B42D1244B1B6C234A43F004
:1031B80080531364224B1B68214A43F44043136035
:1031C8001E4B1E4A9B6893601C4B9B681B4A43F42A
:1031D80000439360194B9B68184A43F4A0539360CB
:1031E800164B184A5A60154B1B68144A43F08073F3
:1031F800136000BF114B1B6803F00073002BF9D05C
:10320800114B40F205721A600C4B9B680B4A23F075
:1032180003039360094B9B68084A43F002039360D9
:1032280000BF064B9B6803F00C03082BF9D100BFC5
:103238000C37BD465DF8047B704700BF003802407C
:103248000070004008544004003C024080B582B041
:1032580000AF7860396007E07868FFF71BFA03462B
:10326800012B01D1002306E03B685A1E3A60002B6F
:10327800F2D14FF0FF3318460837BD4680BD80B500
:1032880082B000AF0346FB71FB791846FFF732FAAC
:10329800002318460837BD4680BD80B586B000AF0C
:1032A800F860B9607A60BB6800221A6007F11303FE
:1032B80079681846FFF7CAFF0346002B02D04FF083
:1032C800FF335FE0FB7C042B14D0042B04DC012BC0
:1032D80009D0022B0AD026E0412B22D0612B20D026
:1032E800182B09D01FE08023BB821FE04FF48063B6
:1032F800BB821BE0002345E007F1130379681846F9
:10330800FFF7A4FF0346002B08D1FB7C182B05D13F
:10331800BB684FF0FF321A60002333E04FF0FF33F1
:1033280030E001232EE04FF0FF332BE0FA7CFB68FE
:103338001A700123FB820FE0FB8AFA68134479684C
:103348001846FFF783FF0346002B02D04FF0FF33E8
:1033580018E0FB8A0133FB82FA8ABB8A05339A425A
:10336800EADBFB6801331A78FB6802331B78DB431E
:10337800DBB29A4202D04FF0FF3303E0BA8ABB684F
:103388001A60002318461837BD4680BD80B5ADF5D4
:103398008A6D00AF3B1D18603B46196007F10803B2
:1033A80000221A600023C7F830340023C7F84434D9
:1033B8000023C7F838340023C7F834340023C7F88B
:1033C8003C340023C7F840343B1D1B68C7F82C3435
:1033D80007F10C0107F120034FF480121846FFF79C
:1033E8005CFF0346002B03D0012B00F0DE80E5E0F4
:1033F8000023C7F8383407F10C031B68B3F1FF3F0B
:1034080002D0002B05D00BE00620FFF738FF002381
:10341800FBE00620FFF733FF0123C7F84034C3E081
:1034280007F120035B781A46D7F83C34DBB29A429E
:1034380003D01520FFF723FFD9E0D7F83C34002B41
:1034480040F0818007F12003DB78002B71D0002346
:10345800C7F8483407F120030333C7F84C340CE0AD
:10346800D7F84C24531CC7F84C34D7F84834591CA7
:10347800C7F848141178674AD154D7F84C341B78E8
:10348800002B03D0D7F84834FF2BE9DDD7F84834B0
:103498005A1CC7F848245F4A0021D1540023C7F8B2
:1034A8004834D7F84C340133C7F84C340DE0D7F81A
:1034B8004C24531CC7F84C34D7F84834591CC7F867
:1034C8004814117807F11002D154D7F84C341B78FE
:1034D800002B03D0D7F848340F2BE8DDD7F8483451
:1034E8005A1CC7F8482407F110020021D15407F1EB
:1034F800080207F1100311461846FEF7CBFF07F143
:1035080008031B681A46444B9A4208D91820FFF74B
:10351800B6FE1820FFF7B3FE4FF0FF3375E03F48C3
:10352800FFF720F90620FFF7AAFE4320FFF7A7FEC2
:1035380031E00620FFF7A3FE0123C7F8403401233A
:10354800C7F8443430E007F12003033307F10C02D5
:1035580012681946D7F82C04FDF7B8FA3B1D1B680A
:10356800C7F828343B461A68D7F83034D018D7F84B
:10357800281407F10C031B681A46FDF7A7FA07F190
:103588000C031B681A46D7F830341344C7F8303494
:103598000620FFF774FED7F83C340133C7F83C34F3
:1035A8000123C7F8343422E021E01820FFF767FE32
:1035B8001820FFF764FE6FF0020326E0D7F83434D2
:1035C800002B04DDD7F838340133C7F83834D7F87E
:1035D8003834052B07DD1820FFF751FE1820FFF7B8
:1035E8004EFE002311E04320FFF749FE00BFD7F845
:1035F8004034002B00D1EBE600BFD7F84434002B51
:1036080000D1DBE600BFD7F83034184607F58A67E3
:10361800BD4680BD7821002001800F000080000891
:1036280080B588B000AFF860B9607A60FB680122A5
:103638001A70FB68013300221A70FB680233FF22FC
:103648001A700023FB830BE0FB8BBA681A44FB8BD0
:103658000333F9680B4412781A70FB8B0133FB8330
:10366800FB8BBA6813441B78002B02D0FB8BFF2B13
:10367800EAD9FB8B0333FA68134400221A707B687B
:103688001B681A4607F1100311461846FEF7AEFEEE
:103698000023BB83FB8B0433FB830FE0BB8B5A1CDB
:1036A800BA831A46FB8B591CF9831946FB680B44ED
:1036B80007F120010A4412F8102C1A70BB8B07F18D
:1036C8002002134413F8103C002BE7D1FB8BBB837B
:1036D80007E0BB8BFA68134400221A70BB8B0133D6
:1036E800BB83BB8B822BF4D900BF2037BD4680BD7E
:1036F80080B489B000AFF860B9603B601346FB71D5
:103708003B68B3F5806F02D34FF4806300E08023F9
:10371800FB82FA8A3B68934228BF1346BB82FB8A26
:10372800B3F5806F03D1BB6802221A7002E0BB6850
:1037380001221A70BB680133FA791A70BB68023328
:10374800FA79D243D2B21A70FB68BB610323FB83B8
:103758000AE0BB695A1CBA61FA8BB9680A441B783B
:103768001370FB8B0133FB83FA8BBB8A03339A42BA
:10377800EFDBBA8AFB8A9A4210D8BB8A0333FB83F1
:1037880007E0FB8BBA6813441A221A70FB8B0133CB
:10379800FB83FA8BFB8A03339A42F2DB00BF2437A0
:1037A800BD465DF8047B704780B485B000AF034622
:1037B8000A46FB8013467B71FB88FB607B7943F4E8
:1037C8008073BB60FB685B00FB60BB685B00BB6031
:1037D800BB6803F48073002B02D0FB680133FB60E5
:1037E800FB6803F48033002B05D0FB6883F4815316
:1037F80083F00103FB60BB6803F48033002BE1D046
:10380800FB689BB218461437BD465DF8047B7047C9
:1038180080B584B000AF786039600023FB607A68B7
:103828003B681344BB600AE0FB6898B27B685A1C8B
:103838007A601B781946FFF7B7FF0346FB607A6882
:10384800BB689A42F0D3FB689BB200211846FFF789
:10385800ABFF0346FB60FB689BB200211846FFF7ED
:10386800A3FF0346FB60FB689BB218461037BD46B2
:1038780080BD80B485B000AF786039600023FB60FC
:103888007A683B681344BB6007E07B685A1C7A601F
:103898001B781A46FB681344FB607A68BB689A4237
:1038A800F3D3FB68DBB218461437BD465DF8047BDA
:1038B800704780B584B000AF78600B467B800023EA
:1038C800FB8109E0FB897A6813441B781846FFF7E7
:1038D800D6FCFB890133FB81FA897B889A42F1D3B4
:1038E80000BF1037BD4680BD80B5ADF5A76D00AFF0
:1038F80007F10C03186007F1080319603B1D1A60F3
:10390800002387F81F350023C7F824350023C7F89C
:103918002C350023C7F82835002387F8313510E007
:1039280097F8313507F1080212681A4497F83135CB
:10393800117807F11402D15497F83135013387F81B
:10394800313597F83135FF2BEAD1012387F81F3538
:103958003A1D07F1140107F58A731846FFF760FE50
:1039680007F58A7383211846FFF7A3FF97F81F35D9
:10397800002B18D007F58A73033380211846FFF708
:1039880047FF0346A7F81C35B7F81C351B0A9BB23E
:10399800DBB21846FFF773FCB7F81C35DBB21846E4
:1039A800FFF76DFC0EE007F58A7303338021184694
:1039B800FFF75FFF034687F81E3597F81E35184650
:1039C800FFF75DFC07F1100342F210711846FFF78C
:1039D8003DFC0346002B08D107F110031B78062B8A
:1039E80008D10123C7F8283504E0D7F82C3501336E
:1039F800C7F82C35D7F82835002B03D1D7F82C3544
:103A0800092BADD9D7F82C35092B03D9D7F82C3584
:103A1800DBB28FE107F10C031B68C7F834353B1D97
:103A28001B68C7F824350123A7F83235ADE0B7F88D
:103A38003235DAB207F58A71D7F82435D7F8340564
:103A4800FFF756FE0023C7F8283507F110030022B8
:103A58001A700023C7F82C35D7F82435B3F5806FD2
:103A680004D34FF48063C7F8203502E08023C7F8F9
:103A78002035D7F820359BB203339AB207F58A73FD
:103A880011461846FFF715FF97F81F35002B19D078
:103A980007F58A730333D7F820151846FFF7B8FEE1
:103AA8000346A7F81C35B7F81C351B0A9BB2DBB2D6
:103AB8001846FFF7E4FBB7F81C35DBB21846FFF7EA
:103AC800DEFB0FE007F58A730333D7F82015184695
:103AD800FFF7CFFE034687F81E3597F81E351846C0
:103AE800FFF7CDFB07F1100395491846FFF7AEFB2A
:103AF8000346002B33D107F110031B78062B2ED178
:103B08000123C7F82835D7F82425D7F820359A4255
:103B18001AD9D7F83425D7F820351344C7F83435DF
:103B2800D7F82425D7F82035D31AC7F82435B7F89D
:103B38003235B3F5787F01D1FF23FBE0B7F8323592
:103B48000133A7F832350FE0D7F83425D7F82035F8
:103B58001344C7F834350023C7F8243504E0D7F8F0
:103B68002C350133C7F82C35D7F82835002B04D16C
:103B7800D7F82C35092B7FF66FAFD7F82C35092BE2
:103B880003D9D7F82C35DBB2D4E0D7F82435002B8D
:103B98007FF44DAF0023C7F8283507F11003002242
:103BA8001A700023C7F82C350420FFF768FB07F1CB
:103BB800100342F210711846FFF748FB0346002B2A
:103BC80008D107F110031B78062B03D10123C7F88E
:103BD800283504E0D7F82C350133C7F82C35D7F849
:103BE8002835002B03D1D7F82C35092BDCD9D7F889
:103BF8002C35092B03D9D7F82C35DBB29AE00023F2
:103C0800C7F8283507F1100300221A700023C7F8F7
:103C18002C3507F58A7301221A7007F58A7300227A
:103C28005A7007F58A73FF229A70032387F8313593
:103C38000AE097F8313507F58A720021D15497F8D0
:103C48003135013387F8313597F83135822BF0D982
:103C580007F58A7383211846FFF72BFE07F58A7349
:103C6800033380211846FFF7D3FD0346A7F81C3518
:103C7800B7F81C351B0A9BB2DBB21846FFF7FFFAF0
:103C8800B7F81C35DBB21846FFF7F9FA07F110034D
:103C980042F210711846FFF7D9FA0346002B08D1F3
:103CA80007F110031B78062B08D10123C7F8283524
:103CB80004E0D7F82C350133C7F82C35D7F8283568
:103CC800002B03D1D7F82C35092BC1D9D7F82C35BF
:103CD800092B03D9D7F82C35DBB22BE00420FFF7EA
:103CE800CEFA07F1100342F210711846FFF7AEFA48
:103CF8000346002B08D107F110031B78062B03D1CC
:103D08000123C7F8283504E0D7F82C350133C7F864
:103D18002C35D7F82835002B03D1D7F82C35092BAB
:103D2800DCD9D7F82C35092B03D9D7F82C35DBB2D9
:103D380000E00023184607F5A767BD4680BD00BF11
:103D4800A08601000D4885460D480E490E4A0023FD
:103D580002E0D458C4500433C4188C42F9D30B4A37
:103D68000B4C002301E013600432A242FBD3FFF79F
:103D7800BBF900F099F8FEF7B5FEFEE70000022057
:103D880000000020640400208C4C0008640400201B
:103D9800AC220020FEE7000051EC100BC1F30A53DF
:103DA8002DE9F041A3F2FF35132D0C460F4610EE16
:103DB800106A22DC002D4DDB394B43FA05F801EA85
:103DC800080303431ED034A3D3E90023FCF70EFAFB
:103DD80000220023FCF750FE48B1002C04DD4FF40C
:103DE800801343FA05F52F4427EA080400262346E2
:103DF800324643EC102BBDE8F081332D06DDB5F5D6
:103E0800806F39D041EC100BBDE8F081A3F2134369
:103E18004FF0FF3828FA03F818EA000FF2D01EA373
:103E2800D3E90023FCF7E2F900220023FCF724FE83
:103E38000028DCD0002C09DD142D27D00123C5F182
:103E4800340503FA05F5AE1928BFFF1826EA080657
:103E58003C46CCE710A3D3E90023FCF7C7F90022BE
:103E68000023FCF709FE0028C1D0002C10DB2643F4
:103E78000AD000260B4CBAE710EE102A0B46FCF7C6
:103E8800B5F941EC100BBFE73446B0E70137DDE781
:103E980000264FF00044AAE79C7500883CE4377E72
:103EA800FFFF0F000000F03F70B50D4E0D4D761B63
:103EB800B61006D00024013455F8043B9847A642B2
:103EC800F9D1094E094D761B00F0D2F8B61006D08C
:103ED8000024013455F8043B9847A642F9D170BD37
:103EE800804C0008804C0008884C0008804C000872
:103EF800032A70B414D940EA0105AD0704460B46FD
:103F080022D11D682668AE421946204603F10403F3
:103F180004F1040418D1043A032A20461946F0D8BB
:103F2800541E72B102780B789A4208BF641806D002
:103F38000CE010F8012F11F8013F9A4206D1A14276
:103F4800F7D1002070BC7047541EEBE7D01A70BC44
:103F5800704700BF024B13B1024800F005B8704724
:103F6800000000007D3F0008002301461A4618465D
:103F780000F01EB838B50A4C0A4D641BA4100AD0CC
:103F880004F18043013B05EB8305013C55F80439F6
:103F98009847002CF9D1BDE8384000F06FB800BF51
:103FA8008C4C0008884C0008704700BF704700BF61
:103FB8002DE9F8432B4D0646286898460F4691464A
:103FC800FFF7F2FF284B1C68D4F84831002B3DD08E
:103FD8005A681F2A0DDC02F1010C16BB0232C3F825
:103FE80004C0286843F82270FFF7E0FF0020BDE80E
:103FF800F8831E4B7BB34FF4C870AFF300800346C1
:1040080048B3D4F848210021C0E900214FF0010C41
:10401800C4F848010A46C0F88811C0F88C11002E6F
:10402800DCD003EB82010124C1F88890D3F8880121
:1040380094402043022EC3F88801C1F80881CDD1ED
:10404800D3F88C110C43C3F88C41C7E704F5A67369
:10405800C4F84831BCE72868FFF7A8FF4FF0FF30E5
:10406800C5E700BF600400207C4C00080000000089
:10407800F8B500BFF8BC08BC9E467047F8B500BF4D
:08408800F8BC08BC9E4670471D
:10409000637C777BF26B6FC53001672BFED7AB7605
:1040A000CA82C97DFA5947F0ADD4A2AF9CA472C0B0
:1040B000B7FD9326363FF7CC34A5E5F171D831151D
:1040C00004C723C31896059A071280E2EB27B2753E
:1040D00009832C1A1B6E5AA0523BD6B329E32F84B6
:1040E00053D100ED20FCB15B6ACBBE394A4C58CFAE
:1040F000D0EFAAFB434D338545F9027F503C9FA882
:1041000051A3408F929D38F5BCB6DA2110FFF3D24F
:10411000CD0C13EC5F974417C4A77E3D645D197303
:1041200060814FDC222A908846EEB814DE5E0BDBFD
:10413000E0323A0A4906245CC2D3AC629195E47934
:10414000E7C8376D8DD54EA96C56F4EA657AAE088E
:10415000BA78252E1CA6B4C6E8DD741F4BBD8B8A29
:10416000703EB5664803F60E613557B986C11D9E8F
:10417000E1F8981169D98E949B1E87E9CE5528DF06
:104180008CA1890DBFE6426841992D0FB054BB1632
:1041900052096AD53036A538BF40A39E81F3D7FBBC
:1041A0007CE339829B2FFF87348E4344C4DEE9CB06
:1041B000547B9432A6C2233DEE4C950B42FAC34E7B
:1041C000082EA16628D924B2765BA2496D8BD12531
:1041D00072F8F66486689816D4A45CCC5D65B692D5
:1041E0006C704850FDEDB9DA5E154657A78D9D8479
:1041F00090D8AB008CBCD30AF7E45805B8B3450699
:10420000D02C1E8FCA3F0F02C1AFBD0301138A6BB2
:104210003A9111414F67DCEA97F2CFCEF0B4E673E2
:1042200096AC7422E7AD3585E2F937E81C75DF6E90
:1042300047F11A711D29C5896FB7620EAA18BE1BF6
:10424000FC563E4BC6D279209ADBC0FE78CD5AF49C
:104250001FDDA8338807C731B11210592780EC5FE2
:1042600060517FA919B54A0D2DE57A9F93C99CEF3E
:10427000A0E03B4DAE2AF5B0C8EBBB3C835399613F
:10428000172B047EBA77D626E169146355210C7D7D
:104290008D01020408102040801B36004000000100
:1042A000000280004000000040000000000100000B
:1042B0000400000001000020008000000100000058
:1042C0000400000040000000010000200080000009
:1042D000000002000600000000000D000F000000BA
:1042E0000600280028000000100000000100000067
:1042F00001000000000200000004000009000000AE
:104300000A0000000700000007000000426F6F7401
:10431000696E672E2E2E2E2E2E2E2E2E2E2E2E2E09
:104320002E2E2E2E2E2E2E2E2E2E2E2E2E2E2E2EAD
:104330002E2E2E2E2E2E2E2E2E2E2E2E2E2E2E2E9D
:104340002E2E2E2E0D0A0A0043616C63756C61746B
:104350006520434D4143206F66206170706C696336
:104360006174696F6E2D2D2D2D2D2D2D2D2D2D2D43
:104370002D2D2D2D2D2D2D2D2D2D2D2D2D2D2D2D6D
:10438000200D0A0A00000000566572696679204116
:1043900070706C69636174696F6E3A205041535359
:1043A0002D2D2D2D2D2D2D2D2D2D2D2D2D2D2D2D3D
:1043B0002D2D2D2D2D2D2D2D2D2D2D2D2D2D2D2D2D
:1043C000200D0A0A000000004578656375746520B9
:1043D000746865206E65772070726F6772616D20FA
:1043E0002D2D2D2D2D2D2D2D2D2D2D2D2D2D2D2DFD
:1043F0002D2D2D2D2D2D2D2D2D2D2D2D2D2D2D2DED
:10440000200D0A0A00000000566572696679204195
:1044100070706C69636174696F6E3A204641494CF3
:104420002D2D2D2D2D2D2D2D2D2D2D2D2D2D2D2DBC
:104430002D2D2D2D2D2D2D2D2D2D2D2D2D2D2D2DAC
:10444000200D0A0A00000000506C6561736520723F
:10445000652D70726F6772616D696E672D2D2D2DE0
:104460002D2D2D2D2D2D2D2D2D2D2D2D2D2D2D2D7C
:104470002D2D2D2D2D2D2D2D2D2D2D2D2D2D2D2D6C
:10448000200D0A0A0000000057616974696E6720F8
:10449000666F72207468652066696C6520746F2091
:1044A00062652073656E74202E2E2E202870726532
:1044B00073732027612720746F2061626F727429E3
:1044C0000A0D00000A0A0D2050726F6772616D6D4F
:1044D000696E6720436F6D706C65746564205375F9
:1044E000636365737366756C6C79210A0D2D2D2DD0
:1044F0002D2D2D2D2D2D2D2D2D2D2D2D2D2D2D2DEC
:104500002D2D2D2D2D2D2D2D2D2D2D2D2D0D0A202B
:104510004E616D653A2000000A0D2053697A653AB4
:10452000200000002042797465730D0A000000002D
:104530002D2D2D2D2D2D2D2D2D2D2D2D2D2D2D2DAB
:104540002D2D2D0A000000000A0A0D54686520690F
:104550006D6167652073697A652069732068696792
:10456000686572207468616E2074686520616C6C87
:104570006F776564207370616365206D656D6F7220
:1045800079210A0D000000000A0A0D56657269665D
:1045900069636174696F6E206661696C6564210A84
:1045A0000D0000000D0A0A41626F7274656420629A
:1045B0007920757365722E0A0D0000000A0D4661A0
:1045C000696C656420746F20726563656976652027
:1045D0007468652066696C65210A0D000A0D204625
:1045E0006C617368696E6720746F20464C41534854
:1045F000207375636365737366756C6C792E2E2EEC
:104600002E2E2E2E2E2E2E2E2E2E0A0D00000000C7
:104610000A0D20466C617368696E6720746F2046CE
:104620004C415348206661696C2E2E2E2E2E2E2E64
:104630002E2E2E2E2E2E2E2E2E2E2E2E2E0A0D000D
:104640000A0D204170706C69636174696F6E206936
:1046500073206E6F742061757468656E7469636130
:1046600074652E2E2E2E2E2E2E2E2E2E2E0A0D0060
:104670000A0D20506C656173652072652D70726F34
:104680006772616D6D696E67206170706C696361DE
:1046900074696F6E2E2E2E2E2E2E2E2E2E0A0D00AB
:1046A0002020202020202020202000000A0A0D5356
:1046B000656C65637420526563656976652046693B
:1046C0006C650A0D0000000055706C6F61646564D4
:1046D000466C617368496D6167652E62696E0000A2
:1046E0000A0D4572726F72204F6363757272656452
:1046F000207768696C65205472616E736D6974749B
:10470000696E672046696C650A0D00000A0D4669EE
:104710006C652075706C6F6164656420737563638C
:1047200065737366756C6C79200A0D000D0A3D3D4A
:104730003D3D3D3D3D3D3D3D3D3D3D3D3D3D3D3DA9
:104740003D3D3D3D3D3D3D3D3D3D3D3D3D3D3D3D99
:104750003D3D3D3D3D3D3D3D3D3D3D3D3D3D3D3D89
:104760003D3D3D3D3D3D3D3D3D3D3D3D3D3D3D3D79
:104770003D3D3D3D000000000D0A3D202020202051
:1047800020202020202020202028432920434F5073
:1047900059524947485420323031312053544D69E1
:1047A00063726F656C656374726F6E6963732020EA
:1047B0002020202020202020202020202020203DDC
:1047C000000000000D0A3D20202020202020202075
:1047D00020202020202020202020202020202020D9
:1047E00020202020202020202020202020202020C9
:1047F00020202020202020202020202020202020B9
:1048000020202020202020202020203D000000000B
:104810000D0A3D202053544D3332463478782049D8
:104820006E2D4170706C69636174696F6E20507297
:104830006F6772616D6D696E67204170706C69633E
:104840006174696F6E20202856657273696F6E20DF
:10485000312E302E3029203D000000000D0A3D2071
:104860002020202020202020202020202020202048
:104870002020202020202020202020202020202038
:1048800020204279204D4344204170706C6963615F
:1048900074696F6E205465616D20202020202020D7
:1048A0002020203D000000000D0A0D0A000000003D
:1048B0000D0A3D3D3D3D3D3D3D3D3D3D3D3D3D3D8B
:1048C0003D3D3D3D204D61696E204D656E75203D3D
:1048D0003D3D3D3D3D3D3D3D3D3D3D3D3D3D3D3D08
:1048E0003D3D3D3D3D3D3D3D3D3D3D0D0A0A000008
:1048F0002020446F776E6C6F616420496D6167653D
:1049000020546F207468652053544D3332463478F8
:104910007820496E7465726E616C20466C617368B4
:10492000202D2D2D2D2D2D2D20310D0A0A000000BA
:10493000202055706C6F616420496D616765204669
:10494000726F6D207468652053544D33324634784D
:104950007820496E7465726E616C20466C61736874
:10496000202D2D2D2D2D2D2D20320D0A0A00000079
:1049700020204C6F6164206B657920746F20666C19
:104980006173682D2D2D2D2D2D2D2D2D2D2D2D2DA2
:104990002D2D2D2D2D2D2D2D2D2D2D2D2D2D2D2D47
:1049A0002D2D2D2D2D2D2D2D20330D0A0A0000002B
:1049B00020204578656375746520546865204E65D0
:1049C000772050726F6772616D2D2D2D2D2D2D2D3D
:1049D0002D2D2D2D2D2D2D2D2D2D2D2D2D2D2D2D07
:1049E0002D2D2D2D2D2D2D2D20340D0A0A000000EA
:1049F000202044697361626C652074686520777259
:104A00006974652070726F74656374696F6E202DB0
:104A10002D2D2D2D2D2D2D2D2D2D2D2D2D2D2D2DC6
:104A20002D2D2D2D2D2D2D2D20350D0A0A000000A8
:104A30003D3D3D3D3D3D3D3D3D3D3D3D3D3D3D3DA6
:104A40003D3D3D3D3D3D3D3D3D3D3D3D3D3D3D3D96
:104A50003D3D3D3D3D3D3D3D3D3D3D3D3D3D3D3D86
:104A60003D3D3D3D3D3D3D3D3D3D0D0A0A000000C3
:104A700043616C63756C61746520434D4143206FE5
:104A800066206170706C69636174696F6E2D2D2D85
:104A90002D2D2D2D2D2D2D2D2D2D2D2D2D2D2D2D46
:104AA0002D2D2D2D2D2D2D2D200D0A0A000000005D
:104AB000566572696679204170706C6963617469CA
:104AC0006F6E3A20504153532D2D2D2D2D2D2D2D10
:104AD0002D2D2D2D2D2D2D2D2D2D2D2D2D2D2D2D06
:104AE0002D2D2D2D2D2D2D2D200D0A0A000000001D
:104AF0004578656375746520746865206E657720F8
:104B000070726F6772616D202D2D2D2D2D2D2D2D25
:104B10002D2D2D2D2D2D2D2D2D2D2D2D2D2D2D2DC5
:104B20002D2D2D2D2D2D2D2D200D0A0A00000000DC
:104B3000566572696679204170706C696361746949
:104B40006F6E3A204641494C2D2D2D2D2D2D2D2DAA
:104B50002D2D2D2D2D2D2D2D2D2D2D2D2D2D2D2D85
:104B60002D2D2D2D2D2D2D2D200D0A0A000000009C
:104B70004C6F6164206B6579207375636365737333
:104B800066756C6C79202D2D2D2D2D2D2D2D2D2D17
:104B90002D2D2D2D2D2D2D2D2D2D2D2D2D2D2D2D45
:104BA0002D2D2D2D2D2D2D2D2D2D2D2D200D0A0AA8
:104BB0000000000057726974652050726F7465635D
:104BC00074696F6E2064697361626C65642E2E2E49
:104BD0000D0A00004572726F723A20466C6173686C
:104BE00020777269746520756E70726F7465637476
:104BF000696F6E206661696C65642E2E2E0D0A0049
:104C0000496E76616C6964204E756D626572202113
:104C1000203D3D3E20546865206E756D62657220B2
:104C200073686F756C64206265206569746865726D
:104C300020312C2032206F7220330D00496E7661B6
:104C40006C6964204E756D6265722021203D3D3E89
:104C500020546865206E756D6265722073686F758B
:104C60006C642062652065697468657220312C204F
:104C7000322C2033206F7220340D000038000020C9
:084C80005D3F0008CD010008B2
:044C8800A901000876
:104C8C009C08002000000000010203040102030440
:104C9C0006070809000000000000000000000000EA
:104CAC00000000872B7E151628AED2A6ABF7158810
:104CBC0009CF4F3C008000080000000024030020B6
:104CCC008C030020F4030020000000000000000012
:104CDC0000000000000000000000000000000000C8
:104CEC0000000000000000000000000000000000B8
:104CFC0000000000000000000000000000000000A8
:104D0C000000000000000000000000000000000097
:104D1C000000000000000000000000000000000087
:104D2C000000000000000000000000000000000077
:104D3C000000000000000000000000000000000067
:104D4C000000000000000000000000000000000057
:104D5C000000000000000000000000000000000047
:104D6C0001000000000000000E33CDAB34126DE6E4
:104D7C00ECDE05000B00000000000000000000004D
:104D8C000000000000000000000000000000000017
:104D9C000000000000000000000000000000000007
:104DAC0000000000000000000000000000000000F7
:104DBC0000000000000000000000000000000000E7
:0450EC0088220020F6
:0400000508003D4D65
:00000001FF
