:020000040800F2
:1080000000800120F19600089196000893960008E0
:1080100095960008979600089996000800000000C1
:108020000000000000000000000000009B96000817
:108030009D960008000000009F960008A196000889
:1080400041970008419700084197000841970008B0
:1080500041970008419700084197000841970008A0
:108060004197000841970008419700084197000890
:108070004197000841970008419700084197000880
:108080004197000841970008419700084197000870
:108090004197000841970008419700084197000860
:1080A0004197000841970008419700084197000850
:1080B0004197000841970008419700084197000840
:1080C0004197000841970008419700084197000830
:1080D0004197000841970008419700084197000820
:1080E0004197000841970008419700084197000810
:1080F0004197000841970008419700084197000800
:1081000041970008419700084197000841970008EF
:1081100041970008419700084197000841970008DF
:1081200041970008419700084197000841970008CF
:1081300041970008419700084197000841970008BF
:1081400041970008419700084197000841970008AF
:10815000419700084197000841970008419700089F
:10816000419700084197000841970008419700088F
:10817000419700084197000841970008000000005F
:08818000419700084197000837
:1081880010B5054C237833B9044B13B10448AFF349
:1081980000800123237010BD1000002000000000A3
:1081A8009C97000808B5034B1BB103490348AFF37C
:1081B800008008BD00000000140000209C97000803
:1081C800104B1B680BB90120704710B504464FF4DB
:1081D8007A70B0FBF3F30C4A1068B0FBF3F000F0D0
:1081E8007DF868B90F2C01D901200AE00022214648
:1081F8004FF0FF3000F03EF8024B5C60002000E0DA
:10820800012010BD000000200800002010B5032048
:1082180000F01EF80020FFF7D3FF10B1012420461C
:1082280010BD044601F018FAF9E70000034A136884
:10823800034909680B441360704700BF2C000020F5
:1082480000000020014B1868704700BF2C00002078
:10825800074AD36823F4E0631B041B0C000200F4F4
:10826800E060184340F0BF6040F40030D0607047D1
:1082780000ED00E030B4174BDB68C3F30223C3F111
:108288000704042C28BF04241D1D062D18D9033B00
:108298004FF0FF3505FA04F421EA0401994005FA84
:1082A80003F322EA0303194300280BDB0901C9B2CF
:1082B80000F1604000F5614080F8001330BC704761
:1082C8000023E5E700F00F000901C9B2024B195479
:1082D800F4E700BF00ED00E014ED00E00138B0F174
:1082E800807F0AD2064B5860064AF02182F8231094
:1082F8000020986007221A6070470120704700BF6D
:1083080010E000E000ED00E0F0B482B0002341E0AE
:10831800D0F82CC02CEA040CC6F3C0049C4044EAF4
:108328000C04C46286E0062400E00024B4403C4308
:108338000235664E46F82540654C2568D44304EA64
:1083480005064F6817F4803F01D042EA0506604DE4
:108358002E606D6804EA05064F6817F4003F01D0E7
:1083680042EA05065A4D6E60AD6804EA05064F6894
:1083780017F4801F01D042EA0506554DAE60ED683E
:108388002C404E6816F4001F01D042EA0504504AFA
:10839800D46001330A6832FA03F400F093800124B0
:1083A8009C402240F5D04D68022D01D0122D10D1ED
:1083B800DE08083650F826C003F00705AF000F2581
:1083C800BD402CEA050C0D69BD4045EA0C0540F896
:1083D800265006685F000325BD40ED4305EA060CFC
:1083E8004E6806F00306BE4046EA0C0606604E6874
:1083F80006F1FF3CBCF1010F03D9112E01D0122E5A
:1084080011D1866805EA060CCE68BE4046EA0C061D
:108418008660466826EA040C4E68C6F300169E403D
:1084280046EA0C0646604E6806F0030CBCF1030FE2
:108438003FF46EAFC46825408C68BC402C43C460D0
:108448004C6814F0805FA4D0224C256E45F00105DD
:108458002566246E04F001040194019C9D08AE1C5D
:108468001A4C54F8267003F00304A6000F24B440F5
:1084780027EA0407B0F1904F3FF457AF164CA042DB
:1084880016D004F58064A04214D004F58064A0429C
:1084980012D004F58064A04210D004F58064A04294
:1084A8000ED004F58064A0423FF43DAF07243DE7B9
:1084B80001243BE7022439E7032437E7042435E79E
:1084C800052433E702B0F0BC704700BF000001404C
:1084D8000004014000100240000400480AB981620B
:1084E80070478161704743690B4201D181617047D0
:1084F80081627047024B186800F4C060704700BF83
:1085080000700040B0F5007F0FD01F4B1B6803F4CC
:10851800C063B3F5806F34D01B4A136823F4C0637B
:1085280043F48063136000207047174B1B6803F403
:10853800C063B3F5007F22D0134A136823F4C063E5
:1085480043F400731360114B1A68322303FB02F3E0
:108558000F4AA2FB03239B0C013300E0013B0A4AAC
:10856800526912F4806F01D0002BF7D1064B5B697A
:1085780013F4806F01D1002070470320704700205A
:1085880070470020704700BF0070004008000020BE
:1085980083DE1B4330B583B00546204B9B6D13F03B
:1085A800805F0BD0FFF7A6FFB0F5007F17D0802DB6
:1085B8001FD82DD0702D2DD000211BE0174CA36D96
:1085C80043F08053A365A36D03F080530193019B8F
:1085D800FFF790FFA36D23F08053A365E4E7802D98
:1085E80003D9A02D03D9022104E0002102E00121D2
:1085F80000E003210A4A136823F007030B431360C2
:10860800136803F007038B4206D0012003B030BD86
:108618000221EFE70121EDE70020F7E70010024013
:1086280000200240284A9368D26802F0030213F03F
:108638000C030AD00C2B06D0042B1FD0082B20D0FB
:108648000020024610E0012AF6D11F4A126812F0F3
:10865800080F0CD11C4AD2F89420C2F303221B49FC
:1086680051F8222043B100200C2B0DD07047164A38
:108678001268C2F30312F2E71046F5E71448002225
:10868800F2E714480022EFE70F4BDB6803F003031F
:10869800022B15D0032B15D00B4BD868C0F3021052
:1086A8000130D968C1F3062102FB01F2B2FBF0F2F6
:1086B800D868C0F3416001304000B2FBF0F0D5E764
:1086C800034AE9E7034AE7E700100240B8970008C1
:1086D8000024F40000127A00002800F0D182F0B5DE
:1086E80083B00446AD4B9D6805F00C05DE6806F0C6
:1086F8000306036813F0100F5ED0E5B10C2D18D0F7
:10870800A369002B00F0B880A44A136843F0010362
:108718001360FFF797FD0746A04B1B6813F0020F85
:1087280040F09780FFF78EFDC01B0228F4D9032381
:10873800B9E2012EE4D1994B1B6813F0020F03D064
:10874800A369002B00F09F82206A944B1B6813F0EA
:10875800080F5ED0914B1B6803F0F00398425FD975
:10876800FFF718FF002840F097828C4B1A6842F0F8
:1087780008021A601A6822F0F002216A0A431A6095
:108788005A6822F47F42E16942EA01225A60FFF7FF
:1087980049FF824B9B68C3F30313814AD35C03F000
:1087A8001F03D8407F4B18607F4B1868FFF708FD00
:1087B8000346002840F07782236813F0010F7AD02F
:1087C800082D6FD00C2D6BD06368B3F5803F00F097
:1087D8009180B3F5A02F00F09380704B1A6822F4B3
:1087E80080321A601A6822F480221A606368002BAB
:1087F80000F09380FFF726FD0746684B1B6813F4CB
:10880800003F58D1FFF71EFDC01B6428F5D903238C
:1088180049E2624BD3F894301B0903F0F0039DE75B
:108828005E4B1A6842F008021A601A6822F0F002D9
:10883800216A0A431A605A6822F47F42E16942EACF
:1088480001225A60206AFFF7A5FE00289FD0012365
:1088580029E2524B1A6842F008021A601A6822F09C
:10886800F002216A0A431A605A6822F47F42E169D9
:1088780042EA01225A609FE7484A136823F001033D
:108888001360FFF7DFFC0746444B1B6813F0020F29
:1088980092D0FFF7D7FCC01B0228F5D9032302E2C8
:1088A800032E91D13D4B1B6813F4003F03D063683E
:1088B800002B00F0F381236813F0020F4FD0042D32
:1088C8003CD00C2D38D0E368002B78D0334A13689D
:1088D80043F480731360FFF7B5FC06462F4B1B6803
:1088E80013F4806F62D1FFF7ADFC801B0228F5D925
:1088F8000323D8E1294A136843F48033136075E7EA
:1089080003F18043A3F53C331A6842F480221A60CD
:108918001A6842F480321A6068E7FFF793FC07464A
:108928001E4B1B6813F4003FC5D0FFF78BFCC01B20
:108938006428F5D90323B6E1022EC4D1174B1B686E
:1089480013F4806F03D0E368002B00F0A981134A69
:10895800536823F0F853216943EA0163536023689D
:1089680013F0080F56D06369002B3CD00B4AD2F89D
:10897800943043F00103C2F89430FFF763FC0646D5
:10898800064BD3F8943013F0020F43D1FFF75AFC8B
:10899800801B0228F4D9032385E100BF00100240A0
:1089A800E89700080800002004000020B74A536830
:1089B80023F0F853216943EA01635360CFE7B34AD0
:1089C800136823F480731360FFF73CFC0646AF4B33
:1089D8001B6813F4806FC2D0FFF734FC801B022899
:1089E800F5D903235FE1A94AD2F8943023F00103B3
:1089F800C2F89430FFF726FC0646A44BD3F894300F
:108A080013F0020F06D0FFF71DFC801B0228F4D9D3
:108A1800032348E1236813F0040F7AD09B4B9B6D26
:108A280013F0805F0BD1994B9A6D42F080529A6592
:108A38009B6D03F080530193019B012600E0002603
:108A4800934B1B6813F4807F26D0A368012B37D083
:108A5800052B3DD08D4BD3F8902022F00102C3F8AE
:108A68009020D3F8902022F00402C3F89020A36845
:108A7800002B3BD0FFF7E6FB0746844BD3F890303A
:108A880013F0020F44D1FFF7DDFBC01B41F288331E
:108A98009842F2D9032306E17D4A136843F48073B0
:108AA8001360FFF7CFFB0746794B1B6813F4807FF1
:108AB800CBD1FFF7C7FBC01B0228F5D90323F2E08F
:108AC800724AD2F8903043F00103C2F89030CEE7F2
:108AD8006E4BD3F8902042F00402C3F89020D3F8EC
:108AE800902042F00102C3F89020C0E7FFF7AAFBEC
:108AF8000746664BD3F8903013F0020F08D0FFF703
:108B0800A1FBC01B41F288339842F2D90323CAE083
:108B18005EBBA36A002B00F0C5800C2D76D0022B1B
:108B280029D05A4B1A6822F080721A601B6813F019
:108B3800205F04D1554AD36823F00303D360534A16
:108B4800D36823F0887323F48033D360FFF77AFB6C
:108B580004464E4B1B6813F0007F55D0FFF772FB9D
:108B6800001B0228F5D903239DE0484A936D23F0A2
:108B780080539365CDE7454A136823F080731360EB
:108B8800FFF760FB0546414B1B6813F0007F06D0DA
:108B9800FFF758FB401B0228F5D9032383E03B4A23
:108BA800D3683C491940E36A206B013843EA001353
:108BB800606B43EA0023E06B4008013843EA405306
:108BC800206C4008013843EA4063A06B000943EA7F
:108BD80040430B43D360136843F080731360D3683A
:108BE80043F08073D360FFF72DFB0446274B1B68C7
:108BF80013F0007F06D1FFF725FB001B0228F5D9EB
:108C0800032350E000234EE000234CE0012B4DD01D
:108C18001E4BDB6803F00301E26A914201D0012395
:108C280041E003F07002216B0139B2EB011F01D062
:108C3800012338E003F4FE42616BB2EB012F01D04F
:108C4800012330E003F40031A26B073A18BF012278
:108C5800914201D0012326E003F4C001E26B5208DF
:108C6800013AB1EB425F01D001231CE003F0C0637D
:108C7800226C5208013AB3EB426F19D0012312E07B
:108C880001231846704701230DE000BF0010024081
:108C9800007000408C809DF9012304E0012302E06C
:108CA800012300E00023184603B0F0BD0123FAE7D2
:108CB8000023F8E7002800F09B8070B504464E4B6F
:108CC8001B6803F007038B420CD24B4A136823F04E
:108CD80007030B431360136803F007038B4201D0AB
:108CE800012070BD0D46236813F0010F39D0636869
:108CF800032B09D0022B26D063BB404A126812F01E
:108D0800020F06D10120ECE73C4A126812F0007FFE
:108D180070D03A498A6822F0030213438B60FFF748
:108D280091FA0646354B9B6803F00C036268B3EB77
:108D3800820F16D0FFF786FA801B41F288339842DB
:108D4800F0D90320CDE72D4A126812F4003FE0D194
:108D58000120C6E7294A126812F4806FD9D1012090
:108D6800BFE7236813F0020F06D0244A936823F064
:108D7800F003A1680B4393601F4B1B6803F00703C4
:108D8800AB420CD91C4A136823F007032B4313602A
:108D9800136803F00703AB4201D00120A1E7236861
:108DA80013F0040F06D0154A936823F4E063E168D2
:108DB8000B439360236813F0080F07D00F4A93689A
:108DC80023F46053216943EAC1039360FFF72AFC47
:108DD8000A4B9B68C3F30313094AD35C03F01F03D0
:108DE800D840084B1860084B1868FFF7E9F978E78E
:108DF80001207047012074E7002002400010024063
:108E0800E89700080800002004000020F8B55A4B35
:108E1800DB6813F0030F18D0574BDB6803F003032C
:108E28000268934202D001252846F8BD002A00F0C6
:108E3800A080514BDB68C3F30213013342689342AD
:108E480001D00125F0E700251AE00368022B59D06C
:108E5800032B5ED0012B01D001250FE0464A126892
:108E680012F0020F61D0444DEA6822F073024468A0
:108E7800013C43EA04131343EB600025002DD3D1D2
:108E88000F4604463C4A136823F080631360FFF7DB
:108E9800D9F90646384B1B6813F0006F05D0FFF769
:108EA800D1F9801B0228F5D90325002DBCD1002F4C
:108EB8003DD131490B6923F41F3323F44073A06873
:108EC800E2681209520442EA002213430B612A4A5B
:108ED800136843F080631360FFF7B4F90646264B26
:108EE8001B6813F0006F05D1FFF7ACF9801B02284F
:108EF800F5D90325002D97D11F4A1369A1690B43A2
:108F0800136191E71C4A126812F4806FABD10125F6
:108F1800B4E7194A126812F4003FA4D1164A12683D
:108F280012F4802F9FD10125A8E70125A6E7012F7C
:108F38000FD01148026922F0C06222F4FE42A168F3
:108F480063695B08013B5B0643EA01231343036142
:108F5800BDE70948026922F4C00222F4FE42A16872
:108F680023695B08013B5B0543EA01231343036163
:108F7800ADE7012558E700BF00100240F8B5514B96
:108F8800DB6813F0030F18D04E4BDB6803F00303C4
:108F98000268934202D001252846F8BD002A00F055
:108FA8008E80484BDB68C3F3021301334268934257
:108FB80001D00125F0E700251AE00368022B59D0FB
:108FC800032B5ED0012B01D001250FE03D4A12682A
:108FD80012F0020F61D03B4DEA6822F07302446838
:108FE800013C43EA04131343EB600025002DD3D161
:108FF8000F460446334A136823F080531360FFF783
:1090080021F906462F4B1B6813F0005F05D0FFF7C8
:1090180019F9801B0228F5D90325002DBCD1002F92
:109028003DD128494B6923F41F3323F44073A068CA
:10903800E2681209520442EA002213434B61214AB2
:10904800136843F080531360FFF7FCF806461D4B86
:109058001B6813F0005F05D1FFF7F4F8801B0228A6
:10906800F5D90325002D97D1164A536961690B4339
:10907800536191E7134A126812F4806FABD101254E
:10908800B4E7104A126812F4003FA4D10D4A1268DE
:1090980012F4802F9FD10125A8E70125A6E70948EA
:1090A800426922F0C06222F4FE42A16823695B088B
:1090B800013B5B0643EA012313434361BFE70125F4
:1090C8006AE700BF001002402DE9F04182B0044673
:1090D800036813F4006F2FD0436EB3F5800F25D0CB
:1090E80008D9B3F5000F10D0B3F5400F40F09980C0
:1090F800002610E0002B40F0948000210430FFF798
:1091080085FE06463EB1374618E05E4AD36843F40A
:109118008033D36000265B4AD2F8883023F44003BA
:10912800616E0B43C2F88830002707E00021203029
:10913800FFF724FF0646E5E700273E46236813F4B9
:10914800805F15D0A36EB3F1807F7AD06CD9B3F16C
:10915800007F70D0B3F1407F7AD1002E7BD1494A8D
:10916800D2F8883023F04073A16E0B43C2F88830E0
:10917800236813F4003F00F08E80424B9B6D13F080
:10918800805F6AD13F4B9A6D42F080529A659B6D21
:1091980003F080530193019B4FF001083A4A13688A
:1091A80043F480731360FFF74DF80546364B1B6890
:1091B80013F4807F05D1FFF745F8401B0228F5D945
:1091C8000326002E62D12F4BD3F8903013F440734E
:1091D80016D0D4F884209A4212D02A4AD2F8903075
:1091E80023F44073D2F8901041F48031C2F8901003
:1091F800D2F8901021F48031C2F89010C2F8903063
:1092080013F0010F2CD1002E40F043811D4AD2F8F3
:10921800903023F44073D4F884100B43C2F8903094
:1092280035E001273E4689E793B90021201DFFF765
:10923800EDFD064691E7134AD36843F48033D360C3
:109248008BE7002104F12000FFF798FE064684E72B
:1092580001273E468CE737468AE74FF000089DE72E
:10926800FEF7F0FF0546074BD3F8903013F0020FD6
:10927800C9D1FEF7E7FF401B41F288339842F2D983
:109288000326C0E700100240007000403746B8F1DE
:10929800000F40F00081236813F0010F08D09D4AA9
:1092A800D2F8883023F00303A16B0B43C2F888304F
:1092B800236813F0020F08D0964AD2F8883023F0BA
:1092C8000C03E16B0B43C2F88830236813F0040FDA
:1092D80008D0904AD2F8883023F03003216C0B4331
:1092E800C2F88830236813F0080F08D0894AD2F8EA
:1092F800883023F0C003616C0B43C2F888302368C0
:1093080013F0100F08D0834AD2F8883023F4407342
:10931800A16C0B43C2F88830236813F0200F08D0E3
:109328007C4AD2F8883023F44063E16C0B43C2F8DE
:109338008830236813F4007F08D0764AD2F8883042
:1093480023F44023E16D0B43C2F88830236813F4FB
:10935800806F08D06F4AD2F8883023F44013216E0A
:109368000B43C2F88830236813F0400F08D0694ACD
:10937800D2F8883023F44053216D0B43C2F888306B
:10938800236813F0800F08D0624AD2F8883023F49B
:109398004043616D0B43C2F88830236813F4807F23
:1093A80008D05C4AD2F8883023F44033A16D0B43CF
:1093B800C2F88830236813F4005F0FD0554AD2F8FA
:1093C800883023F04063E16E0B43C2F88830E36EC7
:1093D800B3F1006F65D0B3F1806F67D0236813F4E1
:1093E800002F0FD04B4AD2F8883023F04063216F0A
:1093F8000B43C2F88830236FB3F1006F5ED0B3F12E
:10940800806F60D0236813F4802F0FD0414AD2F8C0
:10941800883023F04063616F0B43C2F88830636F74
:10942800B3F1006F57D0B3F1806F59D0236813F4AC
:10943800804F0FD0374AD2F8883023F04053A16FBD
:109448000B43C2F88830A36FB3F1805F50D0B3F1FB
:10945800005F55D0236813F4004F08D02D4AD2F886
:10946800883023F08043E16F0B43C2F888302368CB
:1094780013F4803F09D0274AD2F8883023F00043FC
:10948800D4F880100B43C2F88830384602B0BDE8E3
:10949800F0813746FBE61F4A936D23F080539365AE
:1094A800F9E6D36843F48013D36097E70121201DC0
:1094B800FFF7ACFC002891D007468FE7D36843F448
:1094C8008013D3609EE70121201DFFF79FFC002831
:1094D80098D0074696E7D36843F48013D360A5E78E
:1094E8000121201DFFF792FC00289FD007469DE729
:1094F8000221201DFFF78AFC0028ABD00746A9E708
:10950800022104F12000FFF739FD0028A2D0074608
:10951800A0E700BF00100240F0B589B00024039412
:1095280004940594069407941A4BDA6C42F00202EC
:10953800DA64DA6C02F002020192019ADA6C42F003
:109548001002DA64DB6C03F010030293029B124FE3
:10955800224604213846FEF7C1FF104D22464FF43B
:1095680080712846FEF7BAFF042303930126049668
:109578000594069403A93846FEF7C6FE4FF4807397
:10958800039304960594069403A92846FEF7BCFEA7
:1095980009B0F0BD00100240000400480010004867
:1095A80070B5B8B02422002128A800F0EBF80024F8
:1095B800229423942494259426948822214668464C
:1095C80000F0E0F8022527954FF480732A931023C2
:1095D8002B93319532950123339314233493072326
:1095E800359336950426379627A8FFF775F80F2385
:1095F800229303232393249425942694314622A866
:10960800FFF758FB00950F946846FFF75DFD4FF490
:109618000070FEF777FF38B070BD000008B5FEF7A0
:10962800F5FDFFF7BDFFFFF777FF03E00133074ABA
:109638009342FBD904210648FEF755FF4FF4807189
:109648000448FEF750FF0023F1E700BFBFC62D0016
:10965800000400480010004882B00A4B1A6E42F01D
:1096680001021A661A6E02F001020092009A9A6DBF
:1096780042F080529A659B6D03F080530193019BE1
:1096880002B07047001002407047FEE7FEE7FEE7B1
:10969800FEE770477047704708B5FEF7C7FD08BD7D
:1096A8000F49D1F8883043F47003C1F888300D4B66
:1096B8001A6842F001021A60002098601A6822F0C5
:1096C800A85222F410221A604FF48052DA601A6805
:1096D80022F480221A6098614FF000638B60704713
:1096E80000ED00E000100240DFF834D0002103E074
:1096F8000C4B5B58435004310B480C4B42189A42B0
:10970800F6D30B4A02E0002342F8043B094B9A4285
:10971800F9D3FFF7C5FF00F011F8FFF77FFFFEE769
:109728000080012010980008000000201000002090
:109738001000002030000020FEE7000070B50D4E3C
:109748000D4CA41BA4100025A54209D10B4E0C4CAE
:1097580000F020F8A41BA4100025A54205D170BD77
:1097680056F8253098470135EEE756F825309847E2
:109778000135F2E7009800080098000800980008F2
:109788000498000802440346934200D1704703F846
:10979800011BF9E7F8B500BFF8BC08BC9E46704746
:1097A800F8B500BFF8BC08BC9E4670470000000032
:1097B800A0860100400D0300801A060000350C0049
:1097C80040420F0080841E0000093D0000127A000C
:1097D8000024F40000366E010048E801006CDC0249
:1097E8000000000000000000010203040607080949
:0897F80000000000010203045F
:08980000AD810008000000002A
:08980800898100080000000046
:10981000010000001000000000093D0000000000F1
:04000005080096F168
:00000001FF
